{
  "contractName": "GladiatorNFT",
  "abi": [
    {
      "inputs": [
        {
          "internalType": "string",
          "name": "newBaseURI",
          "type": "string"
        }
      ],
      "stateMutability": "nonpayable",
      "type": "constructor"
    },
    {
      "anonymous": false,
      "inputs": [
        {
          "indexed": true,
          "internalType": "address",
          "name": "account",
          "type": "address"
        },
        {
          "indexed": true,
          "internalType": "address",
          "name": "operator",
          "type": "address"
        },
        {
          "indexed": false,
          "internalType": "bool",
          "name": "approved",
          "type": "bool"
        }
      ],
      "name": "ApprovalForAll",
      "type": "event"
    },
    {
      "anonymous": false,
      "inputs": [
        {
          "indexed": true,
          "internalType": "address",
          "name": "operator",
          "type": "address"
        },
        {
          "indexed": true,
          "internalType": "address",
          "name": "from",
          "type": "address"
        },
        {
          "indexed": true,
          "internalType": "address",
          "name": "to",
          "type": "address"
        },
        {
          "indexed": false,
          "internalType": "uint256[]",
          "name": "ids",
          "type": "uint256[]"
        },
        {
          "indexed": false,
          "internalType": "uint256[]",
          "name": "values",
          "type": "uint256[]"
        }
      ],
      "name": "TransferBatch",
      "type": "event"
    },
    {
      "anonymous": false,
      "inputs": [
        {
          "indexed": true,
          "internalType": "address",
          "name": "operator",
          "type": "address"
        },
        {
          "indexed": true,
          "internalType": "address",
          "name": "from",
          "type": "address"
        },
        {
          "indexed": true,
          "internalType": "address",
          "name": "to",
          "type": "address"
        },
        {
          "indexed": false,
          "internalType": "uint256",
          "name": "id",
          "type": "uint256"
        },
        {
          "indexed": false,
          "internalType": "uint256",
          "name": "value",
          "type": "uint256"
        }
      ],
      "name": "TransferSingle",
      "type": "event"
    },
    {
      "anonymous": false,
      "inputs": [
        {
          "indexed": false,
          "internalType": "string",
          "name": "value",
          "type": "string"
        },
        {
          "indexed": true,
          "internalType": "uint256",
          "name": "id",
          "type": "uint256"
        }
      ],
      "name": "URI",
      "type": "event"
    },
    {
      "inputs": [
        {
          "internalType": "address",
          "name": "account",
          "type": "address"
        },
        {
          "internalType": "uint256",
          "name": "id",
          "type": "uint256"
        }
      ],
      "name": "balanceOf",
      "outputs": [
        {
          "internalType": "uint256",
          "name": "",
          "type": "uint256"
        }
      ],
      "stateMutability": "view",
      "type": "function",
      "constant": true
    },
    {
      "inputs": [
        {
          "internalType": "address[]",
          "name": "accounts",
          "type": "address[]"
        },
        {
          "internalType": "uint256[]",
          "name": "ids",
          "type": "uint256[]"
        }
      ],
      "name": "balanceOfBatch",
      "outputs": [
        {
          "internalType": "uint256[]",
          "name": "",
          "type": "uint256[]"
        }
      ],
      "stateMutability": "view",
      "type": "function",
      "constant": true
    },
    {
      "inputs": [
        {
          "internalType": "address",
          "name": "account",
          "type": "address"
        },
        {
          "internalType": "address",
          "name": "operator",
          "type": "address"
        }
      ],
      "name": "isApprovedForAll",
      "outputs": [
        {
          "internalType": "bool",
          "name": "",
          "type": "bool"
        }
      ],
      "stateMutability": "view",
      "type": "function",
      "constant": true
    },
    {
      "inputs": [
        {
          "internalType": "address",
          "name": "from",
          "type": "address"
        },
        {
          "internalType": "address",
          "name": "to",
          "type": "address"
        },
        {
          "internalType": "uint256[]",
          "name": "ids",
          "type": "uint256[]"
        },
        {
          "internalType": "uint256[]",
          "name": "amounts",
          "type": "uint256[]"
        },
        {
          "internalType": "bytes",
          "name": "data",
          "type": "bytes"
        }
      ],
      "name": "safeBatchTransferFrom",
      "outputs": [],
      "stateMutability": "nonpayable",
      "type": "function"
    },
    {
      "inputs": [
        {
          "internalType": "address",
          "name": "from",
          "type": "address"
        },
        {
          "internalType": "address",
          "name": "to",
          "type": "address"
        },
        {
          "internalType": "uint256",
          "name": "id",
          "type": "uint256"
        },
        {
          "internalType": "uint256",
          "name": "amount",
          "type": "uint256"
        },
        {
          "internalType": "bytes",
          "name": "data",
          "type": "bytes"
        }
      ],
      "name": "safeTransferFrom",
      "outputs": [],
      "stateMutability": "nonpayable",
      "type": "function"
    },
    {
      "inputs": [
        {
          "internalType": "address",
          "name": "operator",
          "type": "address"
        },
        {
          "internalType": "bool",
          "name": "approved",
          "type": "bool"
        }
      ],
      "name": "setApprovalForAll",
      "outputs": [],
      "stateMutability": "nonpayable",
      "type": "function"
    },
    {
      "inputs": [
        {
          "internalType": "bytes4",
          "name": "interfaceId",
          "type": "bytes4"
        }
      ],
      "name": "supportsInterface",
      "outputs": [
        {
          "internalType": "bool",
          "name": "",
          "type": "bool"
        }
      ],
      "stateMutability": "view",
      "type": "function",
      "constant": true
    },
    {
      "inputs": [
        {
          "internalType": "uint256",
          "name": "",
          "type": "uint256"
        }
      ],
      "name": "uri",
      "outputs": [
        {
          "internalType": "string",
          "name": "",
          "type": "string"
        }
      ],
      "stateMutability": "view",
      "type": "function",
      "constant": true
    },
    {
      "inputs": [
        {
          "internalType": "address",
          "name": "receiver",
          "type": "address"
        },
        {
          "internalType": "uint256",
          "name": "tokenId",
          "type": "uint256"
        }
      ],
      "name": "mint",
      "outputs": [],
      "stateMutability": "nonpayable",
      "type": "function"
    },
    {
      "inputs": [
        {
          "internalType": "uint256",
          "name": "tokenId",
          "type": "uint256"
        }
      ],
      "name": "tokenURI",
      "outputs": [
        {
          "internalType": "string",
          "name": "",
          "type": "string"
        }
      ],
      "stateMutability": "view",
      "type": "function",
      "constant": true
    },
    {
      "inputs": [],
      "name": "getGladiatorAddress",
      "outputs": [
        {
          "internalType": "address",
          "name": "",
          "type": "address"
        }
      ],
      "stateMutability": "view",
      "type": "function",
      "constant": true
    },
    {
      "inputs": [],
      "name": "getMyNFT",
      "outputs": [
        {
          "internalType": "uint256",
          "name": "",
          "type": "uint256"
        }
      ],
      "stateMutability": "view",
      "type": "function",
      "constant": true
    },
    {
      "inputs": [
        {
          "internalType": "address",
          "name": "newAddress",
          "type": "address"
        }
      ],
      "name": "setGladiatorAddress",
      "outputs": [
        {
          "internalType": "address",
          "name": "",
          "type": "address"
        }
      ],
      "stateMutability": "nonpayable",
      "type": "function"
    }
  ],
  "bytecode": "0x60806040523480156200001157600080fd5b5060405162003678380380620036788339818101604052810190620000379190620002de565b6005805462000046906200035e565b80601f016020809104026020016040519081016040528092919081815260200182805462000074906200035e565b8015620000c55780601f106200009957610100808354040283529160200191620000c5565b820191906000526020600020905b815481529060010190602001808311620000a757829003601f168201915b5050505050620000db816200013660201b60201c565b5033600460006101000a81548173ffffffffffffffffffffffffffffffffffffffff021916908373ffffffffffffffffffffffffffffffffffffffff16021790555080600590816200012e91906200057a565b505062000661565b80600290816200014791906200057a565b5050565b6000604051905090565b600080fd5b600080fd5b600080fd5b600080fd5b6000601f19601f8301169050919050565b7f4e487b7100000000000000000000000000000000000000000000000000000000600052604160045260246000fd5b620001b48262000169565b810181811067ffffffffffffffff82111715620001d657620001d56200017a565b5b80604052505050565b6000620001eb6200014b565b9050620001f98282620001a9565b919050565b600067ffffffffffffffff8211156200021c576200021b6200017a565b5b620002278262000169565b9050602081019050919050565b60005b838110156200025457808201518184015260208101905062000237565b60008484015250505050565b6000620002776200027184620001fe565b620001df565b90508281526020810184848401111562000296576200029562000164565b5b620002a384828562000234565b509392505050565b600082601f830112620002c357620002c26200015f565b5b8151620002d584826020860162000260565b91505092915050565b600060208284031215620002f757620002f662000155565b5b600082015167ffffffffffffffff8111156200031857620003176200015a565b5b6200032684828501620002ab565b91505092915050565b7f4e487b7100000000000000000000000000000000000000000000000000000000600052602260045260246000fd5b600060028204905060018216806200037757607f821691505b6020821081036200038d576200038c6200032f565b5b50919050565b600081519050919050565b60008190508160005260206000209050919050565b60006020601f8301049050919050565b600082821b905092915050565b600060088302620004027fffffffffffffffffffffffffffffffffffffffffffffffffffffffffffffffff82620003c3565b6200040e8683620003c3565b95508019841693508086168417925050509392505050565b6000819050919050565b6000819050919050565b60006200045b620004556200044f8462000426565b62000430565b62000426565b9050919050565b6000819050919050565b62000477836200043a565b6200048f620004868262000462565b848454620003d0565b825550505050565b600090565b620004a662000497565b620004b38184846200046c565b505050565b5b81811015620004db57620004cf6000826200049c565b600181019050620004b9565b5050565b601f8211156200052a57620004f4816200039e565b620004ff84620003b3565b810160208510156200050f578190505b620005276200051e85620003b3565b830182620004b8565b50505b505050565b600082821c905092915050565b60006200054f600019846008026200052f565b1980831691505092915050565b60006200056a83836200053c565b9150826002028217905092915050565b620005858262000393565b67ffffffffffffffff811115620005a157620005a06200017a565b5b620005ad82546200035e565b620005ba828285620004df565b600060209050601f831160018114620005f25760008415620005dd578287015190505b620005e985826200055c565b86555062000659565b601f19841662000602866200039e565b60005b828110156200062c5784890151825560018201915060208501945060208101905062000605565b868310156200064c578489015162000648601f8916826200053c565b8355505b6001600288020188555050505b505050505050565b61300780620006716000396000f3fe608060405234801561001057600080fd5b50600436106100ce5760003560e01c80634e1273f41161008c578063cad7d03311610066578063cad7d03314610235578063ce50b84714610253578063e985e9c514610283578063f242432a146102b3576100ce565b80634e1273f4146101b9578063a22cb465146101e9578063c87b56dd14610205576100ce565b8062fdd58e146100d357806301ffc9a7146101035780630e89341c14610133578063273470e5146101635780632eb2c2d61461018157806340c10f191461019d575b600080fd5b6100ed60048036038101906100e89190611bfc565b6102cf565b6040516100fa9190611c4b565b60405180910390f35b61011d60048036038101906101189190611cbe565b610397565b60405161012a9190611d06565b60405180910390f35b61014d60048036038101906101489190611d21565b610479565b60405161015a9190611dde565b60405180910390f35b61016b61050d565b6040516101789190611e0f565b60405180910390f35b61019b60048036038101906101969190612027565b610537565b005b6101b760048036038101906101b29190611bfc565b6105d8565b005b6101d360048036038101906101ce91906121b9565b61072e565b6040516101e091906122ef565b60405180910390f35b61020360048036038101906101fe919061233d565b610847565b005b61021f600480360381019061021a9190611d21565b61085d565b60405161022c9190611dde565b60405180910390f35b61023d6108bd565b60405161024a9190611c4b565b60405180910390f35b61026d6004803603810190610268919061237d565b610904565b60405161027a9190611e0f565b60405180910390f35b61029d600480360381019061029891906123aa565b610a59565b6040516102aa9190611d06565b60405180910390f35b6102cd60048036038101906102c891906123ea565b610aed565b005b60008073ffffffffffffffffffffffffffffffffffffffff168373ffffffffffffffffffffffffffffffffffffffff160361033f576040517f08c379a0000000000000000000000000000000000000000000000000000000008152600401610336906124f3565b60405180910390fd5b60008083815260200190815260200160002060008473ffffffffffffffffffffffffffffffffffffffff1673ffffffffffffffffffffffffffffffffffffffff16815260200190815260200160002054905092915050565b60007fd9b67a26000000000000000000000000000000000000000000000000000000007bffffffffffffffffffffffffffffffffffffffffffffffffffffffff1916827bffffffffffffffffffffffffffffffffffffffffffffffffffffffff1916148061046257507f0e89341c000000000000000000000000000000000000000000000000000000007bffffffffffffffffffffffffffffffffffffffffffffffffffffffff1916827bffffffffffffffffffffffffffffffffffffffffffffffffffffffff1916145b80610472575061047182610b8e565b5b9050919050565b60606002805461048890612542565b80601f01602080910402602001604051908101604052809291908181526020018280546104b490612542565b80156105015780601f106104d657610100808354040283529160200191610501565b820191906000526020600020905b8154815290600101906020018083116104e457829003601f168201915b50505050509050919050565b6000600360009054906101000a900473ffffffffffffffffffffffffffffffffffffffff16905090565b61053f610bf8565b73ffffffffffffffffffffffffffffffffffffffff168573ffffffffffffffffffffffffffffffffffffffff16148061058557506105848561057f610bf8565b610a59565b5b6105c4576040517f08c379a00000000000000000000000000000000000000000000000000000000081526004016105bb906125e5565b60405180910390fd5b6105d18585858585610c00565b5050505050565b600460009054906101000a900473ffffffffffffffffffffffffffffffffffffffff1673ffffffffffffffffffffffffffffffffffffffff163373ffffffffffffffffffffffffffffffffffffffff1614806106815750600360009054906101000a900473ffffffffffffffffffffffffffffffffffffffff1673ffffffffffffffffffffffffffffffffffffffff163373ffffffffffffffffffffffffffffffffffffffff16145b6106c0576040517f08c379a00000000000000000000000000000000000000000000000000000000081526004016106b790612651565b60405180910390fd5b6106dc8282600160405180602001604052806000815250610f21565b6106e58161085d565b5080600660008473ffffffffffffffffffffffffffffffffffffffff1673ffffffffffffffffffffffffffffffffffffffff168152602001908152602001600020819055505050565b60608151835114610774576040517f08c379a000000000000000000000000000000000000000000000000000000000815260040161076b906126e3565b60405180910390fd5b6000835167ffffffffffffffff81111561079157610790611e2f565b5b6040519080825280602002602001820160405280156107bf5781602001602082028036833780820191505090505b50905060005b845181101561083c5761080c8582815181106107e4576107e3612703565b5b60200260200101518583815181106107ff576107fe612703565b5b60200260200101516102cf565b82828151811061081f5761081e612703565b5b6020026020010181815250508061083590612761565b90506107c5565b508091505092915050565b610859610852610bf8565b83836110d1565b5050565b606060006005805461086e90612542565b90501161088a57604051806020016040528060008152506108b6565b60056108958361123d565b6040516020016108a69291906128c9565b6040516020818303038152906040525b9050919050565b6000600660003373ffffffffffffffffffffffffffffffffffffffff1673ffffffffffffffffffffffffffffffffffffffff16815260200190815260200160002054905090565b6000600460009054906101000a900473ffffffffffffffffffffffffffffffffffffffff1673ffffffffffffffffffffffffffffffffffffffff163373ffffffffffffffffffffffffffffffffffffffff1614806109af5750600360009054906101000a900473ffffffffffffffffffffffffffffffffffffffff1673ffffffffffffffffffffffffffffffffffffffff163373ffffffffffffffffffffffffffffffffffffffff16145b6109ee576040517f08c379a00000000000000000000000000000000000000000000000000000000081526004016109e590612651565b60405180910390fd5b81600360006101000a81548173ffffffffffffffffffffffffffffffffffffffff021916908373ffffffffffffffffffffffffffffffffffffffff160217905550600360009054906101000a900473ffffffffffffffffffffffffffffffffffffffff169050919050565b6000600160008473ffffffffffffffffffffffffffffffffffffffff1673ffffffffffffffffffffffffffffffffffffffff16815260200190815260200160002060008373ffffffffffffffffffffffffffffffffffffffff1673ffffffffffffffffffffffffffffffffffffffff16815260200190815260200160002060009054906101000a900460ff16905092915050565b610af5610bf8565b73ffffffffffffffffffffffffffffffffffffffff168573ffffffffffffffffffffffffffffffffffffffff161480610b3b5750610b3a85610b35610bf8565b610a59565b5b610b7a576040517f08c379a0000000000000000000000000000000000000000000000000000000008152600401610b71906125e5565b60405180910390fd5b610b87858585858561130b565b5050505050565b60007f01ffc9a7000000000000000000000000000000000000000000000000000000007bffffffffffffffffffffffffffffffffffffffffffffffffffffffff1916827bffffffffffffffffffffffffffffffffffffffffffffffffffffffff1916149050919050565b600033905090565b8151835114610c44576040517f08c379a0000000000000000000000000000000000000000000000000000000008152600401610c3b9061296a565b60405180910390fd5b600073ffffffffffffffffffffffffffffffffffffffff168473ffffffffffffffffffffffffffffffffffffffff1603610cb3576040517f08c379a0000000000000000000000000000000000000000000000000000000008152600401610caa906129fc565b60405180910390fd5b6000610cbd610bf8565b9050610ccd8187878787876115a6565b60005b8451811015610e7e576000858281518110610cee57610ced612703565b5b602002602001015190506000858381518110610d0d57610d0c612703565b5b60200260200101519050600080600084815260200190815260200160002060008b73ffffffffffffffffffffffffffffffffffffffff1673ffffffffffffffffffffffffffffffffffffffff16815260200190815260200160002054905081811015610dae576040517f08c379a0000000000000000000000000000000000000000000000000000000008152600401610da590612a8e565b60405180910390fd5b81810360008085815260200190815260200160002060008c73ffffffffffffffffffffffffffffffffffffffff1673ffffffffffffffffffffffffffffffffffffffff168152602001908152602001600020819055508160008085815260200190815260200160002060008b73ffffffffffffffffffffffffffffffffffffffff1673ffffffffffffffffffffffffffffffffffffffff1681526020019081526020016000206000828254610e639190612aae565b9250508190555050505080610e7790612761565b9050610cd0565b508473ffffffffffffffffffffffffffffffffffffffff168673ffffffffffffffffffffffffffffffffffffffff168273ffffffffffffffffffffffffffffffffffffffff167f4a39dc06d4c0dbc64b70af90fd698a233a518aa5d07e595d983b8c0526c8f7fb8787604051610ef5929190612ae2565b60405180910390a4610f0b8187878787876115ae565b610f198187878787876115b6565b505050505050565b600073ffffffffffffffffffffffffffffffffffffffff168473ffffffffffffffffffffffffffffffffffffffff1603610f90576040517f08c379a0000000000000000000000000000000000000000000000000000000008152600401610f8790612b8b565b60405180910390fd5b6000610f9a610bf8565b90506000610fa78561178d565b90506000610fb48561178d565b9050610fc5836000898585896115a6565b8460008088815260200190815260200160002060008973ffffffffffffffffffffffffffffffffffffffff1673ffffffffffffffffffffffffffffffffffffffff16815260200190815260200160002060008282546110249190612aae565b925050819055508673ffffffffffffffffffffffffffffffffffffffff16600073ffffffffffffffffffffffffffffffffffffffff168473ffffffffffffffffffffffffffffffffffffffff167fc3d58168c5ae7397731d063d5bbf3d657854427343f4c083240f7aacaa2d0f6289896040516110a2929190612bab565b60405180910390a46110b9836000898585896115ae565b6110c883600089898989611807565b50505050505050565b8173ffffffffffffffffffffffffffffffffffffffff168373ffffffffffffffffffffffffffffffffffffffff160361113f576040517f08c379a000000000000000000000000000000000000000000000000000000000815260040161113690612c46565b60405180910390fd5b80600160008573ffffffffffffffffffffffffffffffffffffffff1673ffffffffffffffffffffffffffffffffffffffff16815260200190815260200160002060008473ffffffffffffffffffffffffffffffffffffffff1673ffffffffffffffffffffffffffffffffffffffff16815260200190815260200160002060006101000a81548160ff0219169083151502179055508173ffffffffffffffffffffffffffffffffffffffff168373ffffffffffffffffffffffffffffffffffffffff167f17307eab39ab6107e8899845ad3d59bd9653f200f220920489ca2b5937696c31836040516112309190611d06565b60405180910390a3505050565b60606000600161124c846119de565b01905060008167ffffffffffffffff81111561126b5761126a611e2f565b5b6040519080825280601f01601f19166020018201604052801561129d5781602001600182028036833780820191505090505b509050600082602001820190505b600115611300578080600190039150507f3031323334353637383961626364656600000000000000000000000000000000600a86061a8153600a85816112f4576112f3612c66565b5b049450600085036112ab575b819350505050919050565b600073ffffffffffffffffffffffffffffffffffffffff168473ffffffffffffffffffffffffffffffffffffffff160361137a576040517f08c379a0000000000000000000000000000000000000000000000000000000008152600401611371906129fc565b60405180910390fd5b6000611384610bf8565b905060006113918561178d565b9050600061139e8561178d565b90506113ae8389898585896115a6565b600080600088815260200190815260200160002060008a73ffffffffffffffffffffffffffffffffffffffff1673ffffffffffffffffffffffffffffffffffffffff16815260200190815260200160002054905085811015611445576040517f08c379a000000000000000000000000000000000000000000000000000000000815260040161143c90612a8e565b60405180910390fd5b85810360008089815260200190815260200160002060008b73ffffffffffffffffffffffffffffffffffffffff1673ffffffffffffffffffffffffffffffffffffffff168152602001908152602001600020819055508560008089815260200190815260200160002060008a73ffffffffffffffffffffffffffffffffffffffff1673ffffffffffffffffffffffffffffffffffffffff16815260200190815260200160002060008282546114fa9190612aae565b925050819055508773ffffffffffffffffffffffffffffffffffffffff168973ffffffffffffffffffffffffffffffffffffffff168573ffffffffffffffffffffffffffffffffffffffff167fc3d58168c5ae7397731d063d5bbf3d657854427343f4c083240f7aacaa2d0f628a8a604051611577929190612bab565b60405180910390a461158d848a8a86868a6115ae565b61159b848a8a8a8a8a611807565b505050505050505050565b505050505050565b505050505050565b6115d58473ffffffffffffffffffffffffffffffffffffffff16611b31565b15611785578373ffffffffffffffffffffffffffffffffffffffff1663bc197c8187878686866040518663ffffffff1660e01b815260040161161b959493929190612cea565b6020604051808303816000875af192505050801561165757506040513d601f19601f820116820180604052508101906116549190612d67565b60015b6116fc57611663612da1565b806308c379a0036116bf5750611677612dc3565b8061168257506116c1565b806040517f08c379a00000000000000000000000000000000000000000000000000000000081526004016116b69190611dde565b60405180910390fd5b505b6040517f08c379a00000000000000000000000000000000000000000000000000000000081526004016116f390612ec5565b60405180910390fd5b63bc197c8160e01b7bffffffffffffffffffffffffffffffffffffffffffffffffffffffff1916817bffffffffffffffffffffffffffffffffffffffffffffffffffffffff191614611783576040517f08c379a000000000000000000000000000000000000000000000000000000000815260040161177a90612f57565b60405180910390fd5b505b505050505050565b60606000600167ffffffffffffffff8111156117ac576117ab611e2f565b5b6040519080825280602002602001820160405280156117da5781602001602082028036833780820191505090505b50905082816000815181106117f2576117f1612703565b5b60200260200101818152505080915050919050565b6118268473ffffffffffffffffffffffffffffffffffffffff16611b31565b156119d6578373ffffffffffffffffffffffffffffffffffffffff1663f23a6e6187878686866040518663ffffffff1660e01b815260040161186c959493929190612f77565b6020604051808303816000875af19250505080156118a857506040513d601f19601f820116820180604052508101906118a59190612d67565b60015b61194d576118b4612da1565b806308c379a00361191057506118c8612dc3565b806118d35750611912565b806040517f08c379a00000000000000000000000000000000000000000000000000000000081526004016119079190611dde565b60405180910390fd5b505b6040517f08c379a000000000000000000000000000000000000000000000000000000000815260040161194490612ec5565b60405180910390fd5b63f23a6e6160e01b7bffffffffffffffffffffffffffffffffffffffffffffffffffffffff1916817bffffffffffffffffffffffffffffffffffffffffffffffffffffffff1916146119d4576040517f08c379a00000000000000000000000000000000000000000000000000000000081526004016119cb90612f57565b60405180910390fd5b505b505050505050565b600080600090507a184f03e93ff9f4daa797ed6e38ed64bf6a1f0100000000000000008310611a3c577a184f03e93ff9f4daa797ed6e38ed64bf6a1f0100000000000000008381611a3257611a31612c66565b5b0492506040810190505b6d04ee2d6d415b85acef81000000008310611a79576d04ee2d6d415b85acef81000000008381611a6f57611a6e612c66565b5b0492506020810190505b662386f26fc100008310611aa857662386f26fc100008381611a9e57611a9d612c66565b5b0492506010810190505b6305f5e1008310611ad1576305f5e1008381611ac757611ac6612c66565b5b0492506008810190505b6127108310611af6576127108381611aec57611aeb612c66565b5b0492506004810190505b60648310611b195760648381611b0f57611b0e612c66565b5b0492506002810190505b600a8310611b28576001810190505b80915050919050565b6000808273ffffffffffffffffffffffffffffffffffffffff163b119050919050565b6000604051905090565b600080fd5b600080fd5b600073ffffffffffffffffffffffffffffffffffffffff82169050919050565b6000611b9382611b68565b9050919050565b611ba381611b88565b8114611bae57600080fd5b50565b600081359050611bc081611b9a565b92915050565b6000819050919050565b611bd981611bc6565b8114611be457600080fd5b50565b600081359050611bf681611bd0565b92915050565b60008060408385031215611c1357611c12611b5e565b5b6000611c2185828601611bb1565b9250506020611c3285828601611be7565b9150509250929050565b611c4581611bc6565b82525050565b6000602082019050611c606000830184611c3c565b92915050565b60007fffffffff0000000000000000000000000000000000000000000000000000000082169050919050565b611c9b81611c66565b8114611ca657600080fd5b50565b600081359050611cb881611c92565b92915050565b600060208284031215611cd457611cd3611b5e565b5b6000611ce284828501611ca9565b91505092915050565b60008115159050919050565b611d0081611ceb565b82525050565b6000602082019050611d1b6000830184611cf7565b92915050565b600060208284031215611d3757611d36611b5e565b5b6000611d4584828501611be7565b91505092915050565b600081519050919050565b600082825260208201905092915050565b60005b83811015611d88578082015181840152602081019050611d6d565b60008484015250505050565b6000601f19601f8301169050919050565b6000611db082611d4e565b611dba8185611d59565b9350611dca818560208601611d6a565b611dd381611d94565b840191505092915050565b60006020820190508181036000830152611df88184611da5565b905092915050565b611e0981611b88565b82525050565b6000602082019050611e246000830184611e00565b92915050565b600080fd5b7f4e487b7100000000000000000000000000000000000000000000000000000000600052604160045260246000fd5b611e6782611d94565b810181811067ffffffffffffffff82111715611e8657611e85611e2f565b5b80604052505050565b6000611e99611b54565b9050611ea58282611e5e565b919050565b600067ffffffffffffffff821115611ec557611ec4611e2f565b5b602082029050602081019050919050565b600080fd5b6000611eee611ee984611eaa565b611e8f565b90508083825260208201905060208402830185811115611f1157611f10611ed6565b5b835b81811015611f3a5780611f268882611be7565b845260208401935050602081019050611f13565b5050509392505050565b600082601f830112611f5957611f58611e2a565b5b8135611f69848260208601611edb565b91505092915050565b600080fd5b600067ffffffffffffffff821115611f9257611f91611e2f565b5b611f9b82611d94565b9050602081019050919050565b82818337600083830152505050565b6000611fca611fc584611f77565b611e8f565b905082815260208101848484011115611fe657611fe5611f72565b5b611ff1848285611fa8565b509392505050565b600082601f83011261200e5761200d611e2a565b5b813561201e848260208601611fb7565b91505092915050565b600080600080600060a0868803121561204357612042611b5e565b5b600061205188828901611bb1565b955050602061206288828901611bb1565b945050604086013567ffffffffffffffff81111561208357612082611b63565b5b61208f88828901611f44565b935050606086013567ffffffffffffffff8111156120b0576120af611b63565b5b6120bc88828901611f44565b925050608086013567ffffffffffffffff8111156120dd576120dc611b63565b5b6120e988828901611ff9565b9150509295509295909350565b600067ffffffffffffffff82111561211157612110611e2f565b5b602082029050602081019050919050565b6000612135612130846120f6565b611e8f565b9050808382526020820190506020840283018581111561215857612157611ed6565b5b835b81811015612181578061216d8882611bb1565b84526020840193505060208101905061215a565b5050509392505050565b600082601f8301126121a05761219f611e2a565b5b81356121b0848260208601612122565b91505092915050565b600080604083850312156121d0576121cf611b5e565b5b600083013567ffffffffffffffff8111156121ee576121ed611b63565b5b6121fa8582860161218b565b925050602083013567ffffffffffffffff81111561221b5761221a611b63565b5b61222785828601611f44565b9150509250929050565b600081519050919050565b600082825260208201905092915050565b6000819050602082019050919050565b61226681611bc6565b82525050565b6000612278838361225d565b60208301905092915050565b6000602082019050919050565b600061229c82612231565b6122a6818561223c565b93506122b18361224d565b8060005b838110156122e25781516122c9888261226c565b97506122d483612284565b9250506001810190506122b5565b5085935050505092915050565b600060208201905081810360008301526123098184612291565b905092915050565b61231a81611ceb565b811461232557600080fd5b50565b60008135905061233781612311565b92915050565b6000806040838503121561235457612353611b5e565b5b600061236285828601611bb1565b925050602061237385828601612328565b9150509250929050565b60006020828403121561239357612392611b5e565b5b60006123a184828501611bb1565b91505092915050565b600080604083850312156123c1576123c0611b5e565b5b60006123cf85828601611bb1565b92505060206123e085828601611bb1565b9150509250929050565b600080600080600060a0868803121561240657612405611b5e565b5b600061241488828901611bb1565b955050602061242588828901611bb1565b945050604061243688828901611be7565b935050606061244788828901611be7565b925050608086013567ffffffffffffffff81111561246857612467611b63565b5b61247488828901611ff9565b9150509295509295909350565b7f455243313135353a2061646472657373207a65726f206973206e6f742061207660008201527f616c6964206f776e657200000000000000000000000000000000000000000000602082015250565b60006124dd602a83611d59565b91506124e882612481565b604082019050919050565b6000602082019050818103600083015261250c816124d0565b9050919050565b7f4e487b7100000000000000000000000000000000000000000000000000000000600052602260045260246000fd5b6000600282049050600182168061255a57607f821691505b60208210810361256d5761256c612513565b5b50919050565b7f455243313135353a2063616c6c6572206973206e6f7420746f6b656e206f776e60008201527f6572206f7220617070726f766564000000000000000000000000000000000000602082015250565b60006125cf602e83611d59565b91506125da82612573565b604082019050919050565b600060208201905081810360008301526125fe816125c2565b9050919050565b7f556e617574686f72697a65640000000000000000000000000000000000000000600082015250565b600061263b600c83611d59565b915061264682612605565b602082019050919050565b6000602082019050818103600083015261266a8161262e565b9050919050565b7f455243313135353a206163636f756e747320616e6420696473206c656e67746860008201527f206d69736d617463680000000000000000000000000000000000000000000000602082015250565b60006126cd602983611d59565b91506126d882612671565b604082019050919050565b600060208201905081810360008301526126fc816126c0565b9050919050565b7f4e487b7100000000000000000000000000000000000000000000000000000000600052603260045260246000fd5b7f4e487b7100000000000000000000000000000000000000000000000000000000600052601160045260246000fd5b600061276c82611bc6565b91507fffffffffffffffffffffffffffffffffffffffffffffffffffffffffffffffff820361279e5761279d612732565b5b600182019050919050565b600081905092915050565b60008190508160005260206000209050919050565b600081546127d681612542565b6127e081866127a9565b945060018216600081146127fb576001811461281057612843565b60ff1983168652811515820286019350612843565b612819856127b4565b60005b8381101561283b5781548189015260018201915060208101905061281c565b838801955050505b50505092915050565b600061285782611d4e565b61286181856127a9565b9350612871818560208601611d6a565b80840191505092915050565b7f2e6a736f6e000000000000000000000000000000000000000000000000000000600082015250565b60006128b36005836127a9565b91506128be8261287d565b600582019050919050565b60006128d582856127c9565b91506128e1828461284c565b91506128ec826128a6565b91508190509392505050565b7f455243313135353a2069647320616e6420616d6f756e7473206c656e6774682060008201527f6d69736d61746368000000000000000000000000000000000000000000000000602082015250565b6000612954602883611d59565b915061295f826128f8565b604082019050919050565b6000602082019050818103600083015261298381612947565b9050919050565b7f455243313135353a207472616e7366657220746f20746865207a65726f20616460008201527f6472657373000000000000000000000000000000000000000000000000000000602082015250565b60006129e6602583611d59565b91506129f18261298a565b604082019050919050565b60006020820190508181036000830152612a15816129d9565b9050919050565b7f455243313135353a20696e73756666696369656e742062616c616e636520666f60008201527f72207472616e7366657200000000000000000000000000000000000000000000602082015250565b6000612a78602a83611d59565b9150612a8382612a1c565b604082019050919050565b60006020820190508181036000830152612aa781612a6b565b9050919050565b6000612ab982611bc6565b9150612ac483611bc6565b9250828201905080821115612adc57612adb612732565b5b92915050565b60006040820190508181036000830152612afc8185612291565b90508181036020830152612b108184612291565b90509392505050565b7f455243313135353a206d696e7420746f20746865207a65726f2061646472657360008201527f7300000000000000000000000000000000000000000000000000000000000000602082015250565b6000612b75602183611d59565b9150612b8082612b19565b604082019050919050565b60006020820190508181036000830152612ba481612b68565b9050919050565b6000604082019050612bc06000830185611c3c565b612bcd6020830184611c3c565b9392505050565b7f455243313135353a2073657474696e6720617070726f76616c2073746174757360008201527f20666f722073656c660000000000000000000000000000000000000000000000602082015250565b6000612c30602983611d59565b9150612c3b82612bd4565b604082019050919050565b60006020820190508181036000830152612c5f81612c23565b9050919050565b7f4e487b7100000000000000000000000000000000000000000000000000000000600052601260045260246000fd5b600081519050919050565b600082825260208201905092915050565b6000612cbc82612c95565b612cc68185612ca0565b9350612cd6818560208601611d6a565b612cdf81611d94565b840191505092915050565b600060a082019050612cff6000830188611e00565b612d0c6020830187611e00565b8181036040830152612d1e8186612291565b90508181036060830152612d328185612291565b90508181036080830152612d468184612cb1565b90509695505050505050565b600081519050612d6181611c92565b92915050565b600060208284031215612d7d57612d7c611b5e565b5b6000612d8b84828501612d52565b91505092915050565b60008160e01c9050919050565b600060033d1115612dc05760046000803e612dbd600051612d94565b90505b90565b600060443d10612e5057612dd5611b54565b60043d036004823e80513d602482011167ffffffffffffffff82111715612dfd575050612e50565b808201805167ffffffffffffffff811115612e1b5750505050612e50565b80602083010160043d038501811115612e38575050505050612e50565b612e4782602001850186611e5e565b82955050505050505b90565b7f455243313135353a207472616e7366657220746f206e6f6e2d4552433131353560008201527f526563656976657220696d706c656d656e746572000000000000000000000000602082015250565b6000612eaf603483611d59565b9150612eba82612e53565b604082019050919050565b60006020820190508181036000830152612ede81612ea2565b9050919050565b7f455243313135353a204552433131353552656365697665722072656a6563746560008201527f6420746f6b656e73000000000000000000000000000000000000000000000000602082015250565b6000612f41602883611d59565b9150612f4c82612ee5565b604082019050919050565b60006020820190508181036000830152612f7081612f34565b9050919050565b600060a082019050612f8c6000830188611e00565b612f996020830187611e00565b612fa66040830186611c3c565b612fb36060830185611c3c565b8181036080830152612fc58184612cb1565b9050969550505050505056fea264697066735822122093e8c7ad0137bab73020a594f28ac4d6963e492859bacce1aa9188b78db6dfdc64736f6c63430008110033",
  "immutableReferences": {},
  "source": "//SPDX-License-Identifier: MIT\r\n\r\npragma solidity ^0.8.17;\r\n\r\nimport '../../node_modules/@openzeppelin/contracts/token/ERC1155/ERC1155.sol';\r\nimport '../../node_modules/@openzeppelin/contracts/utils/Strings.sol';\r\n\r\n//Elegimos tokens ERC1155 para poder crear varios gladiadores de una misma\r\n//clase. ERC1155 nos permite esto y adems podemos establecer un URI para cada\r\n//gladiador\r\n\r\ncontract GladiatorNFT is ERC1155{\r\n\r\n    using Strings for uint256;\r\n    \r\n    address private gladiatorAddress;\r\n    address private owner;\r\n    string private baseURI;\r\n\r\n    mapping(address => uint256) ownerOf;\r\n\r\n    modifier onlyAuthorizedAccounts()  {\r\n        require(msg.sender == owner || msg.sender == gladiatorAddress, \"Unauthorized\");\r\n        _;\r\n    }\r\n\r\n    constructor(string memory newBaseURI) ERC1155(baseURI){\r\n        owner = msg.sender;\r\n        baseURI = newBaseURI;\r\n    }\r\n\r\n    //mint just from gameAddress\r\n    function mint(address receiver, uint256 tokenId) external onlyAuthorizedAccounts {\r\n        _mint(receiver, tokenId, 1, \"\");\r\n        tokenURI(tokenId);\r\n        ownerOf[receiver] = tokenId;\r\n    }\r\n\r\n    //URI\r\n    function tokenURI(uint256 tokenId) public view returns (string memory) {\r\n        return bytes(baseURI).length > 0 ? string(abi.encodePacked(baseURI, tokenId.toString(), \".json\")) : \"\";\r\n    }\r\n\r\n    function getGladiatorAddress() external view returns(address){\r\n        return gladiatorAddress;\r\n    }\r\n\r\n    //Getter\r\n    function getMyNFT() external view returns(uint256){\r\n        return ownerOf[msg.sender];\r\n    }\r\n\r\n    \r\n    function setGladiatorAddress(address newAddress) external onlyAuthorizedAccounts returns(address) {\r\n        gladiatorAddress = newAddress;\r\n        //Event\r\n        return gladiatorAddress;\r\n    }\r\n}",
  "sourcePath": "D:\\Documentos\\END\\curso\\Tema_5\\ERC721\\src\\contracts\\myNFT.sol",
  "compiler": {
    "name": "solc",
    "version": "0.8.17+commit.8df45f5f.Emscripten.clang"
  },
  "schemaVersion": "3.4.8",
  "updatedAt": "2023-04-11T14:41:58.319Z",
  "networkType": "ethereum",
  "devdoc": {
    "kind": "dev",
    "methods": {
      "balanceOf(address,uint256)": {
        "details": "See {IERC1155-balanceOf}. Requirements: - `account` cannot be the zero address."
      },
      "balanceOfBatch(address[],uint256[])": {
        "details": "See {IERC1155-balanceOfBatch}. Requirements: - `accounts` and `ids` must have the same length."
      },
      "isApprovedForAll(address,address)": {
        "details": "See {IERC1155-isApprovedForAll}."
      },
      "safeBatchTransferFrom(address,address,uint256[],uint256[],bytes)": {
        "details": "See {IERC1155-safeBatchTransferFrom}."
      },
      "safeTransferFrom(address,address,uint256,uint256,bytes)": {
        "details": "See {IERC1155-safeTransferFrom}."
      },
      "setApprovalForAll(address,bool)": {
        "details": "See {IERC1155-setApprovalForAll}."
      },
      "supportsInterface(bytes4)": {
        "details": "See {IERC165-supportsInterface}."
      },
      "uri(uint256)": {
        "details": "See {IERC1155MetadataURI-uri}. This implementation returns the same URI for *all* token types. It relies on the token type ID substitution mechanism https://eips.ethereum.org/EIPS/eip-1155#metadata[defined in the EIP]. Clients calling this function must replace the `\\{id\\}` substring with the actual token type ID."
      }
    },
    "version": 1
  },
  "userdoc": {
    "kind": "user",
    "methods": {},
    "version": 1
  }
}