{
  "contractName": "GladiatorsGameEfficient",
  "abi": [
    {
      "inputs": [
        {
          "internalType": "address",
          "name": "mtkAddress",
          "type": "address"
        },
        {
          "internalType": "address",
          "name": "nftAddress",
          "type": "address"
        }
      ],
      "stateMutability": "nonpayable",
      "type": "constructor"
    },
    {
      "inputs": [],
      "name": "nonValidSkin",
      "type": "error"
    },
    {
      "inputs": [],
      "name": "nonValidWeapon",
      "type": "error"
    },
    {
      "anonymous": false,
      "inputs": [
        {
          "indexed": true,
          "internalType": "address",
          "name": "",
          "type": "address"
        }
      ],
      "name": "playerRegistered",
      "type": "event"
    },
    {
      "anonymous": false,
      "inputs": [],
      "name": "startedGame",
      "type": "event"
    },
    {
      "inputs": [],
      "name": "startGame",
      "outputs": [],
      "stateMutability": "nonpayable",
      "type": "function"
    },
    {
      "inputs": [],
      "name": "registerPlayer",
      "outputs": [],
      "stateMutability": "nonpayable",
      "type": "function"
    },
    {
      "inputs": [
        {
          "internalType": "enum GladiatorsGameEfficient.Skin",
          "name": "newSkin",
          "type": "uint8"
        },
        {
          "internalType": "enum GladiatorsGameEfficient.Weapon",
          "name": "newWeapon",
          "type": "uint8"
        }
      ],
      "name": "createGladiator",
      "outputs": [],
      "stateMutability": "nonpayable",
      "type": "function"
    },
    {
      "inputs": [],
      "name": "fight",
      "outputs": [
        {
          "internalType": "address",
          "name": "",
          "type": "address"
        }
      ],
      "stateMutability": "nonpayable",
      "type": "function"
    },
    {
      "inputs": [],
      "name": "getMyData",
      "outputs": [
        {
          "components": [
            {
              "internalType": "address",
              "name": "id",
              "type": "address"
            },
            {
              "internalType": "uint256",
              "name": "tokens",
              "type": "uint256"
            },
            {
              "internalType": "uint256",
              "name": "battlePoints",
              "type": "uint256"
            },
            {
              "components": [
                {
                  "internalType": "enum GladiatorsGameEfficient.Skin",
                  "name": "skin",
                  "type": "uint8"
                },
                {
                  "internalType": "enum GladiatorsGameEfficient.Weapon",
                  "name": "weapon",
                  "type": "uint8"
                },
                {
                  "internalType": "uint256",
                  "name": "strengthPoints",
                  "type": "uint256"
                },
                {
                  "internalType": "bool",
                  "name": "isActive",
                  "type": "bool"
                }
              ],
              "internalType": "struct GladiatorsGameEfficient.Gladiator",
              "name": "gladiator",
              "type": "tuple"
            },
            {
              "internalType": "bool",
              "name": "active",
              "type": "bool"
            }
          ],
          "internalType": "struct GladiatorsGameEfficient.Player",
          "name": "",
          "type": "tuple"
        }
      ],
      "stateMutability": "view",
      "type": "function"
    },
    {
      "inputs": [],
      "name": "getMyTokenAddress",
      "outputs": [
        {
          "internalType": "address",
          "name": "",
          "type": "address"
        }
      ],
      "stateMutability": "view",
      "type": "function"
    },
    {
      "inputs": [
        {
          "internalType": "uint8",
          "name": "skin",
          "type": "uint8"
        },
        {
          "internalType": "uint8",
          "name": "weapon",
          "type": "uint8"
        }
      ],
      "name": "getInfo",
      "outputs": [
        {
          "components": [
            {
              "internalType": "uint256",
              "name": "tokenId",
              "type": "uint256"
            },
            {
              "internalType": "uint256",
              "name": "totalPoints",
              "type": "uint256"
            },
            {
              "internalType": "uint256",
              "name": "amountToPay",
              "type": "uint256"
            }
          ],
          "internalType": "struct GladiatorsGameEfficient.Info",
          "name": "",
          "type": "tuple"
        }
      ],
      "stateMutability": "view",
      "type": "function"
    }
  ],
  "bytecode": "0x608060405260006003553480156200001657600080fd5b5060405162002b4538038062002b4583398181016040528101906200003c919062000170565b336000806101000a81548173ffffffffffffffffffffffffffffffffffffffff021916908373ffffffffffffffffffffffffffffffffffffffff16021790555081600460006101000a81548173ffffffffffffffffffffffffffffffffffffffff021916908373ffffffffffffffffffffffffffffffffffffffff16021790555080600560006101000a81548173ffffffffffffffffffffffffffffffffffffffff021916908373ffffffffffffffffffffffffffffffffffffffff1602179055505050620001b7565b600080fd5b600073ffffffffffffffffffffffffffffffffffffffff82169050919050565b600062000138826200010b565b9050919050565b6200014a816200012b565b81146200015657600080fd5b50565b6000815190506200016a816200013f565b92915050565b600080604083850312156200018a576200018962000106565b5b60006200019a8582860162000159565b9250506020620001ad8582860162000159565b9150509250929050565b61297e80620001c76000396000f3fe608060405234801561001057600080fd5b506004361061007d5760003560e01c8063b506abba1161005b578063b506abba146100c6578063b82bce7c146100e4578063d65ab5f214610114578063d9c8a38b1461011e5761007d565b8063457df8de146100825780635c07a4b0146100a05780638f8f08d2146100aa575b600080fd5b61008a61013c565b6040516100979190611ceb565b60405180910390f35b6100a8610a08565b005b6100c460048036038101906100bf9190611d55565b610d82565b005b6100ce6111aa565b6040516100db9190611ceb565b60405180910390f35b6100fe60048036038101906100f99190611dce565b6111d4565b60405161010b9190611e69565b60405180910390f35b61011c61124e565b005b610126611529565b604051610133919061202b565b60405180910390f35b6000600660003373ffffffffffffffffffffffffffffffffffffffff1673ffffffffffffffffffffffffffffffffffffffff16815260200190815260200160002060060160009054906101000a900460ff166101cd576040517f08c379a00000000000000000000000000000000000000000000000000000000081526004016101c4906120a4565b60405180910390fd5b600660003373ffffffffffffffffffffffffffffffffffffffff1673ffffffffffffffffffffffffffffffffffffffff16815260200190815260200160002060030160020160009054906101000a900460ff1661025f576040517f08c379a000000000000000000000000000000000000000000000000000000000815260040161025690612110565b60405180910390fd5b600073ffffffffffffffffffffffffffffffffffffffff16600160009054906101000a900473ffffffffffffffffffffffffffffffffffffffff1673ffffffffffffffffffffffffffffffffffffffff16148061030a5750600073ffffffffffffffffffffffffffffffffffffffff16600260009054906101000a900473ffffffffffffffffffffffffffffffffffffffff1673ffffffffffffffffffffffffffffffffffffffff16145b610349576040517f08c379a00000000000000000000000000000000000000000000000000000000081526004016103409061217c565b60405180910390fd5b6000600660003373ffffffffffffffffffffffffffffffffffffffff1673ffffffffffffffffffffffffffffffffffffffff1681526020019081526020016000209050674563918244f40000816001015410156103db576040517f08c379a00000000000000000000000000000000000000000000000000000000081526004016103d29061220e565b60405180910390fd5b600460009054906101000a900473ffffffffffffffffffffffffffffffffffffffff1673ffffffffffffffffffffffffffffffffffffffff1663e6d66ac83330674563918244f400006040518463ffffffff1660e01b815260040161044293929190612273565b600060405180830381600087803b15801561045c57600080fd5b505af1158015610470573d6000803e3d6000fd5b50505050600460009054906101000a900473ffffffffffffffffffffffffffffffffffffffff1673ffffffffffffffffffffffffffffffffffffffff166370a08231336040518263ffffffff1660e01b81526004016104cf9190611ceb565b602060405180830381865afa1580156104ec573d6000803e3d6000fd5b505050506040513d601f19601f8201168201806040525081019061051091906122d6565b8160010181905550674563918244f40000600360008282546105329190612332565b92505081905550600073ffffffffffffffffffffffffffffffffffffffff16600160009054906101000a900473ffffffffffffffffffffffffffffffffffffffff1673ffffffffffffffffffffffffffffffffffffffff16036105d55733600160006101000a81548173ffffffffffffffffffffffffffffffffffffffff021916908373ffffffffffffffffffffffffffffffffffffffff16021790555061099e565b33600260006101000a81548173ffffffffffffffffffffffffffffffffffffffff021916908373ffffffffffffffffffffffffffffffffffffffff1602179055506000610666600160009054906101000a900473ffffffffffffffffffffffffffffffffffffffff16600260009054906101000a900473ffffffffffffffffffffffffffffffffffffffff166116b4565b9050600073ffffffffffffffffffffffffffffffffffffffff168173ffffffffffffffffffffffffffffffffffffffff16036106d7576040517f08c379a00000000000000000000000000000000000000000000000000000000081526004016106ce906123b2565b60405180910390fd5b600460009054906101000a900473ffffffffffffffffffffffffffffffffffffffff1673ffffffffffffffffffffffffffffffffffffffff1663e6d66ac830836003546040518463ffffffff1660e01b8152600401610738939291906123e1565b600060405180830381600087803b15801561075257600080fd5b505af1158015610766573d6000803e3d6000fd5b5050505060006003819055506002600660008373ffffffffffffffffffffffffffffffffffffffff1673ffffffffffffffffffffffffffffffffffffffff16815260200190815260200160002060020160008282546107c59190612332565b92505081905550600460009054906101000a900473ffffffffffffffffffffffffffffffffffffffff1673ffffffffffffffffffffffffffffffffffffffff166370a08231826040518263ffffffff1660e01b81526004016108279190611ceb565b602060405180830381865afa158015610844573d6000803e3d6000fd5b505050506040513d601f19601f8201168201806040525081019061086891906122d6565b600660008373ffffffffffffffffffffffffffffffffffffffff1673ffffffffffffffffffffffffffffffffffffffff168152602001908152602001600020600101819055506000600160006101000a81548173ffffffffffffffffffffffffffffffffffffffff021916908373ffffffffffffffffffffffffffffffffffffffff1602179055506000600260006101000a81548173ffffffffffffffffffffffffffffffffffffffff021916908373ffffffffffffffffffffffffffffffffffffffff160217905550600660008273ffffffffffffffffffffffffffffffffffffffff1673ffffffffffffffffffffffffffffffffffffffff16815260200190815260200160002060000160009054906101000a900473ffffffffffffffffffffffffffffffffffffffff1692505050610a05565b600660008073ffffffffffffffffffffffffffffffffffffffff1673ffffffffffffffffffffffffffffffffffffffff16815260200190815260200160002060000160009054906101000a900473ffffffffffffffffffffffffffffffffffffffff169150505b90565b600260149054906101000a900460ff16610a57576040517f08c379a0000000000000000000000000000000000000000000000000000000008152600401610a4e90612464565b60405180910390fd5b600660003373ffffffffffffffffffffffffffffffffffffffff1673ffffffffffffffffffffffffffffffffffffffff16815260200190815260200160002060060160009054906101000a900460ff1615610ae7576040517f08c379a0000000000000000000000000000000000000000000000000000000008152600401610ade906124d0565b60405180910390fd5b33600660003373ffffffffffffffffffffffffffffffffffffffff1673ffffffffffffffffffffffffffffffffffffffff16815260200190815260200160002060000160006101000a81548173ffffffffffffffffffffffffffffffffffffffff021916908373ffffffffffffffffffffffffffffffffffffffff160217905550600460009054906101000a900473ffffffffffffffffffffffffffffffffffffffff1673ffffffffffffffffffffffffffffffffffffffff166340c10f19336802b5e3af16b18800006040518363ffffffff1660e01b8152600401610bce92919061252b565b600060405180830381600087803b158015610be857600080fd5b505af1158015610bfc573d6000803e3d6000fd5b50505050600460009054906101000a900473ffffffffffffffffffffffffffffffffffffffff1673ffffffffffffffffffffffffffffffffffffffff166370a08231336040518263ffffffff1660e01b8152600401610c5b9190611ceb565b602060405180830381865afa158015610c78573d6000803e3d6000fd5b505050506040513d601f19601f82011682018060405250810190610c9c91906122d6565b600660003373ffffffffffffffffffffffffffffffffffffffff1673ffffffffffffffffffffffffffffffffffffffff168152602001908152602001600020600101819055506001600660003373ffffffffffffffffffffffffffffffffffffffff1673ffffffffffffffffffffffffffffffffffffffff16815260200190815260200160002060060160006101000a81548160ff0219169083151502179055503373ffffffffffffffffffffffffffffffffffffffff167f9b66d49082843aa418cd502edc3b870cda1cef5aa3c1e289ca61475532afd35660405160405180910390a2565b6000600660003373ffffffffffffffffffffffffffffffffffffffff1673ffffffffffffffffffffffffffffffffffffffff16815260200190815260200160002090508060060160009054906101000a900460ff16610e16576040517f08c379a0000000000000000000000000000000000000000000000000000000008152600401610e0d906125a0565b60405180910390fd5b60008383604051602001610e2b92919061260d565b604051602081830303815290604052805190602001209050600060076000838152602001908152602001600020604051806060016040529081600082015481526020016001820154815260200160028201548152505090508060400151600460009054906101000a900473ffffffffffffffffffffffffffffffffffffffff1673ffffffffffffffffffffffffffffffffffffffff166370a082318560000160009054906101000a900473ffffffffffffffffffffffffffffffffffffffff166040518263ffffffff1660e01b8152600401610f079190611ceb565b602060405180830381865afa158015610f24573d6000803e3d6000fd5b505050506040513d601f19601f82011682018060405250810190610f4891906122d6565b1015610f89576040517f08c379a0000000000000000000000000000000000000000000000000000000008152600401610f8090612685565b60405180910390fd5b600460009054906101000a900473ffffffffffffffffffffffffffffffffffffffff1673ffffffffffffffffffffffffffffffffffffffff166370a08231336040518263ffffffff1660e01b8152600401610fe49190611ceb565b602060405180830381865afa158015611001573d6000803e3d6000fd5b505050506040513d601f19601f8201168201806040525081019061102591906122d6565b83600101819055506000816040015190506000826020015190506000836000015190506110528383611779565b600560009054906101000a900473ffffffffffffffffffffffffffffffffffffffff1673ffffffffffffffffffffffffffffffffffffffff166340c10f1933836040518363ffffffff1660e01b81526004016110af9291906126a5565b600060405180830381600087803b1580156110c957600080fd5b505af11580156110dd573d6000803e3d6000fd5b505050506002670de0b6b3a764000087600101546110fb91906126fd565b61110591906126fd565b86600301600101600082825461111b9190612332565b92505081905550878660030160000160006101000a81548160ff0219169083600281111561114c5761114b611e93565b5b0217905550868660030160000160016101000a81548160ff0219169083600281111561117b5761117a611e93565b5b021790555060018660030160020160006101000a81548160ff0219169083151502179055505050505050505050565b6000600460009054906101000a900473ffffffffffffffffffffffffffffffffffffffff16905090565b6111dc611bee565b600083836040516020016111f1929190612745565b60405160208183030381529060405280519060200120905060076000828152602001908152602001600020604051806060016040529081600082015481526020016001820154815260200160028201548152505091505092915050565b60008054906101000a900473ffffffffffffffffffffffffffffffffffffffff1673ffffffffffffffffffffffffffffffffffffffff163373ffffffffffffffffffffffffffffffffffffffff16146112dc576040517f08c379a00000000000000000000000000000000000000000000000000000000081526004016112d3906127bd565b60405180910390fd5b3073ffffffffffffffffffffffffffffffffffffffff16600460009054906101000a900473ffffffffffffffffffffffffffffffffffffffff1673ffffffffffffffffffffffffffffffffffffffff1663273470e56040518163ffffffff1660e01b8152600401602060405180830381865afa158015611360573d6000803e3d6000fd5b505050506040513d601f19601f820116820180604052508101906113849190612809565b73ffffffffffffffffffffffffffffffffffffffff16146113da576040517f08c379a00000000000000000000000000000000000000000000000000000000081526004016113d190612882565b60405180910390fd5b3073ffffffffffffffffffffffffffffffffffffffff16600560009054906101000a900473ffffffffffffffffffffffffffffffffffffffff1673ffffffffffffffffffffffffffffffffffffffff1663273470e56040518163ffffffff1660e01b8152600401602060405180830381865afa15801561145e573d6000803e3d6000fd5b505050506040513d601f19601f820116820180604052508101906114829190612809565b73ffffffffffffffffffffffffffffffffffffffff16146114d8576040517f08c379a00000000000000000000000000000000000000000000000000000000081526004016114cf90612882565b60405180910390fd5b6114e0611936565b6001600260146101000a81548160ff0219169083151502179055507fa256766d903fb548a6aa83a1b97999683fd1aa2f8a909b8ffab16fa4b38e4a4f60405160405180910390a1565b611531611c0f565b600660003373ffffffffffffffffffffffffffffffffffffffff1673ffffffffffffffffffffffffffffffffffffffff1681526020019081526020016000206040518060a00160405290816000820160009054906101000a900473ffffffffffffffffffffffffffffffffffffffff1673ffffffffffffffffffffffffffffffffffffffff1673ffffffffffffffffffffffffffffffffffffffff1681526020016001820154815260200160028201548152602001600382016040518060800160405290816000820160009054906101000a900460ff16600281111561161a57611619611e93565b5b600281111561162c5761162b611e93565b5b81526020016000820160019054906101000a900460ff16600281111561165557611654611e93565b5b600281111561166757611666611e93565b5b8152602001600182015481526020016002820160009054906101000a900460ff16151515158152505081526020016006820160009054906101000a900460ff161515151581525050905090565b600080600660008573ffffffffffffffffffffffffffffffffffffffff1673ffffffffffffffffffffffffffffffffffffffff1681526020019081526020016000206003016001015490506000600660008573ffffffffffffffffffffffffffffffffffffffff1673ffffffffffffffffffffffffffffffffffffffff16815260200190815260200160002060030160010154905080821061175a578492505050611773565b8082101561176c578392505050611773565b6000925050505b92915050565b6000600660003373ffffffffffffffffffffffffffffffffffffffff1673ffffffffffffffffffffffffffffffffffffffff1681526020019081526020016000209050600460009054906101000a900473ffffffffffffffffffffffffffffffffffffffff1673ffffffffffffffffffffffffffffffffffffffff1663e6d66ac833600460009054906101000a900473ffffffffffffffffffffffffffffffffffffffff16866040518463ffffffff1660e01b815260040161183d939291906123e1565b600060405180830381600087803b15801561185757600080fd5b505af115801561186b573d6000803e3d6000fd5b50505050600460009054906101000a900473ffffffffffffffffffffffffffffffffffffffff1673ffffffffffffffffffffffffffffffffffffffff166370a08231336040518263ffffffff1660e01b81526004016118ca9190611ceb565b602060405180830381865afa1580156118e7573d6000803e3d6000fd5b505050506040513d601f19601f8201168201806040525081019061190b91906122d6565b81600101819055508181600301600101600082825461192a9190612332565b92505081905550505050565b600060019050611944611bee565b600080600090505b60028160ff1611611be85760005b60028160ff1611611bd45760008260ff16036119f25767d02ab486cedc0000925060008160ff16036119a15767d02ab486cedc00008361199a9190612332565b92506119ed565b60018160ff16036119c85768015af1d78b58c40000836119c19190612332565b92506119ec565b60028160ff16036119eb576801a055690d9db80000836119e89190612332565b92505b5b5b611b0c565b60018260ff1603611a805768015af1d78b58c40000925060008160ff1603611a2f5767d02ab486cedc000083611a289190612332565b9250611a7b565b60018160ff1603611a565768015af1d78b58c4000083611a4f9190612332565b9250611a7a565b60028160ff1603611a79576801a055690d9db8000083611a769190612332565b92505b5b5b611b0b565b60028260ff1603611b0a576801a055690d9db80000925060008160ff1603611abd5767d02ab486cedc000083611ab69190612332565b9250611b09565b60018160ff1603611ae45768015af1d78b58c4000083611add9190612332565b9250611b08565b60028160ff1603611b07576801a055690d9db8000083611b049190612332565b92505b5b5b5b5b5b84846000018181525050600181611b2391906128a2565b600183611b3091906128a2565b611b3a91906128a2565b60ff168460200181815250508284604001818152505060008282604051602001611b65929190612745565b60405160208183030381529060405280519060200120905084600760008381526020019081526020016000206000820151816000015560208201518160010155604082015181600201559050508580611bbd906128d7565b965050508080611bcc9061291f565b91505061195a565b508080611be09061291f565b91505061194c565b50505050565b60405180606001604052806000815260200160008152602001600081525090565b6040518060a00160405280600073ffffffffffffffffffffffffffffffffffffffff1681526020016000815260200160008152602001611c4d611c5c565b81526020016000151581525090565b604051806080016040528060006002811115611c7b57611c7a611e93565b5b815260200160006002811115611c9457611c93611e93565b5b8152602001600081526020016000151581525090565b600073ffffffffffffffffffffffffffffffffffffffff82169050919050565b6000611cd582611caa565b9050919050565b611ce581611cca565b82525050565b6000602082019050611d006000830184611cdc565b92915050565b600080fd5b60038110611d1857600080fd5b50565b600081359050611d2a81611d0b565b92915050565b60038110611d3d57600080fd5b50565b600081359050611d4f81611d30565b92915050565b60008060408385031215611d6c57611d6b611d06565b5b6000611d7a85828601611d1b565b9250506020611d8b85828601611d40565b9150509250929050565b600060ff82169050919050565b611dab81611d95565b8114611db657600080fd5b50565b600081359050611dc881611da2565b92915050565b60008060408385031215611de557611de4611d06565b5b6000611df385828601611db9565b9250506020611e0485828601611db9565b9150509250929050565b6000819050919050565b611e2181611e0e565b82525050565b606082016000820151611e3d6000850182611e18565b506020820151611e506020850182611e18565b506040820151611e636040850182611e18565b50505050565b6000606082019050611e7e6000830184611e27565b92915050565b611e8d81611cca565b82525050565b7f4e487b7100000000000000000000000000000000000000000000000000000000600052602160045260246000fd5b60038110611ed357611ed2611e93565b5b50565b6000819050611ee482611ec2565b919050565b6000611ef482611ed6565b9050919050565b611f0481611ee9565b82525050565b60038110611f1b57611f1a611e93565b5b50565b6000819050611f2c82611f0a565b919050565b6000611f3c82611f1e565b9050919050565b611f4c81611f31565b82525050565b60008115159050919050565b611f6781611f52565b82525050565b608082016000820151611f836000850182611efb565b506020820151611f966020850182611f43565b506040820151611fa96040850182611e18565b506060820151611fbc6060850182611f5e565b50505050565b61010082016000820151611fd96000850182611e84565b506020820151611fec6020850182611e18565b506040820151611fff6040850182611e18565b5060608201516120126060850182611f6d565b50608082015161202560e0850182611f5e565b50505050565b6000610100820190506120416000830184611fc2565b92915050565b600082825260208201905092915050565b7f506c61796572206e6f7420726567697374657265640000000000000000000000600082015250565b600061208e601583612047565b915061209982612058565b602082019050919050565b600060208201905081810360008301526120bd81612081565b9050919050565b7f476c61646961746f72206973206e6f7420616374697661746564207965740000600082015250565b60006120fa601e83612047565b9150612105826120c4565b602082019050919050565b60006020820190508181036000830152612129816120ed565b9050919050565b7f546865726520617265206e6f20736c6f747320617661696c61626c6500000000600082015250565b6000612166601c83612047565b915061217182612130565b602082019050919050565b6000602082019050818103600083015261219581612159565b9050919050565b7f596f7520646f6e2774206861766520656e6f75676820746f6b656e7320746f2060008201527f706c617900000000000000000000000000000000000000000000000000000000602082015250565b60006121f8602483612047565b91506122038261219c565b604082019050919050565b60006020820190508181036000830152612227816121eb565b9050919050565b6000819050919050565b6000819050919050565b600061225d6122586122538461222e565b612238565b611e0e565b9050919050565b61226d81612242565b82525050565b60006060820190506122886000830186611cdc565b6122956020830185611cdc565b6122a26040830184612264565b949350505050565b6122b381611e0e565b81146122be57600080fd5b50565b6000815190506122d0816122aa565b92915050565b6000602082840312156122ec576122eb611d06565b5b60006122fa848285016122c1565b91505092915050565b7f4e487b7100000000000000000000000000000000000000000000000000000000600052601160045260246000fd5b600061233d82611e0e565b915061234883611e0e565b92508282019050808211156123605761235f612303565b5b92915050565b7f536f6d657468696e672077656e742077726f6e67000000000000000000000000600082015250565b600061239c601483612047565b91506123a782612366565b602082019050919050565b600060208201905081810360008301526123cb8161238f565b9050919050565b6123db81611e0e565b82525050565b60006060820190506123f66000830186611cdc565b6124036020830185611cdc565b61241060408301846123d2565b949350505050565b7f47616d65206e6f74207374617274656420796574000000000000000000000000600082015250565b600061244e601483612047565b915061245982612418565b602082019050919050565b6000602082019050818103600083015261247d81612441565b9050919050565b7f506c6179657220616c7265616479207265676973746572656400000000000000600082015250565b60006124ba601983612047565b91506124c582612484565b602082019050919050565b600060208201905081810360008301526124e9816124ad565b9050919050565b6000819050919050565b600061251561251061250b846124f0565b612238565b611e0e565b9050919050565b612525816124fa565b82525050565b60006040820190506125406000830185611cdc565b61254d602083018461251c565b9392505050565b7f506c61796572206973206e6f7420726567697374657265640000000000000000600082015250565b600061258a601883612047565b915061259582612554565b602082019050919050565b600060208201905081810360008301526125b98161257d565b9050919050565b60008160f81b9050919050565b60006125d8826125c0565b9050919050565b6125f06125eb82611ee9565b6125cd565b82525050565b61260761260282611f31565b6125cd565b82525050565b600061261982856125df565b60018201915061262982846125f6565b6001820191508190509392505050565b7f73656e6465722062616c616e636520697320746f6f206c6f7700000000000000600082015250565b600061266f601983612047565b915061267a82612639565b602082019050919050565b6000602082019050818103600083015261269e81612662565b9050919050565b60006040820190506126ba6000830185611cdc565b6126c760208301846123d2565b9392505050565b7f4e487b7100000000000000000000000000000000000000000000000000000000600052601260045260246000fd5b600061270882611e0e565b915061271383611e0e565b925082612723576127226126ce565b5b828204905092915050565b61273f61273a82611d95565b6125cd565b82525050565b6000612751828561272e565b600182019150612761828461272e565b6001820191508190509392505050565b7f556e617574686f72697a65640000000000000000000000000000000000000000600082015250565b60006127a7600c83612047565b91506127b282612771565b602082019050919050565b600060208201905081810360008301526127d68161279a565b9050919050565b6127e681611cca565b81146127f157600080fd5b50565b600081519050612803816127dd565b92915050565b60006020828403121561281f5761281e611d06565b5b600061282d848285016127f4565b91505092915050565b7f47616d652063616e277420737461727420796574000000000000000000000000600082015250565b600061286c601483612047565b915061287782612836565b602082019050919050565b6000602082019050818103600083015261289b8161285f565b9050919050565b60006128ad82611d95565b91506128b883611d95565b9250828201905060ff8111156128d1576128d0612303565b5b92915050565b60006128e282611e0e565b91507fffffffffffffffffffffffffffffffffffffffffffffffffffffffffffffffff820361291457612913612303565b5b600182019050919050565b600061292a82611d95565b915060ff820361293d5761293c612303565b5b60018201905091905056fea264697066735822122016f0894bf4f2307d626ba44a703a251a25109e37cc59e7fccf0bd6662d2cd6f764736f6c63430008110033",
  "immutableReferences": {},
  "source": "//SPDX-License-Identifier: MIT\r\n\r\nimport \"./myToken.sol\";\r\nimport \"./myNFT.sol\";\r\n\r\npragma solidity ^0.8.17;\r\n\r\ncontract GladiatorsGameEfficient {\r\n\r\n    address private owner;\r\n    address private playerOne;\r\n    address private playerTwo;\r\n    bool private gameStarted;\r\n    uint256 tipJar = 0;\r\n\r\n    MyToken myToken;\r\n    GladiatorNFT myNFT; \r\n\r\n    //Gladiator \r\n    enum Skin { \r\n        boots,  \r\n        helmet,\r\n        armor\r\n    } \r\n\r\n    enum Weapon {\r\n        sword,\r\n        spear,\r\n        trident\r\n    }\r\n\r\n    struct Gladiator {\r\n        Skin skin;\r\n        Weapon weapon;\r\n        uint256 strengthPoints;\r\n        bool isActive;\r\n    }\r\n    \r\n    //MODIFIED\r\n    struct Info {\r\n        uint256 tokenId;\r\n        uint256 totalPoints;\r\n        uint256 amountToPay;\r\n    }\r\n\r\n    //Player\r\n    struct Player {\r\n        address id;\r\n        uint256 tokens;\r\n        uint256 battlePoints;\r\n        Gladiator gladiator;\r\n        bool active; \r\n    }\r\n\r\n    //Mappings\r\n    mapping(address => Player) registeredPlayers;\r\n    mapping(bytes32 => Info) startInfo; //MODIFIED\r\n\r\n    //Events\r\n    event startedGame();\r\n    event playerRegistered(address indexed);\r\n\r\n    //Errors\r\n    error nonValidSkin();\r\n    error nonValidWeapon();\r\n\r\n    //Modifiers\r\n    modifier onlyOwner() {\r\n        require(msg.sender == owner, \"Unauthorized\");\r\n        _;\r\n    }\r\n\r\n    //Constructor \r\n    constructor(address mtkAddress, address nftAddress){\r\n        owner = msg.sender;\r\n        myToken = MyToken(mtkAddress);\r\n        myNFT = GladiatorNFT(nftAddress); \r\n    }\r\n    \r\n    //initialize game\r\n    function startGame() external onlyOwner {\r\n        require(myToken.getGladiatorAddress() == address(this), \"Game can't start yet\"); \r\n        require(myNFT.getGladiatorAddress() == address(this), \"Game can't start yet\"); \r\n        initializeInfo(); //MODIFIED\r\n        gameStarted = true;\r\n\r\n        emit startedGame(); \r\n    }\r\n\r\n    //register players\r\n    function registerPlayer() external {\r\n        require(gameStarted, \"Game not started yet\");\r\n        require(!registeredPlayers[msg.sender].active, \"Player already registered\");\r\n\r\n        registeredPlayers[msg.sender].id = address(msg.sender);\r\n        myToken.mint(msg.sender, 50 ether); \r\n        registeredPlayers[msg.sender].tokens = myToken.balanceOf(msg.sender); \r\n        registeredPlayers[msg.sender].active = true;\r\n\r\n        emit playerRegistered(msg.sender); \r\n    }\r\n\r\n    //Select items (create gladiator)\r\n    function createGladiator(Skin newSkin, Weapon newWeapon) external {\r\n        Player storage currentPlayer = registeredPlayers[msg.sender];\r\n        require(currentPlayer.active, \"Player is not registered\");\r\n\r\n        //calculate hash key\r\n        bytes32 key = keccak256(abi.encodePacked(newSkin, newWeapon));\r\n        Info memory currentInfo = startInfo[key];\r\n\r\n        require(myToken.balanceOf(currentPlayer.id) >= currentInfo.amountToPay, \"sender balance is too low\"); //El jugador debe poder pagar el gladiador\r\n        currentPlayer.tokens = myToken.balanceOf(msg.sender);\r\n\r\n        uint256 amount = currentInfo.amountToPay;\r\n        uint256 points = currentInfo.totalPoints;\r\n        uint256 tokenId = currentInfo.tokenId;\r\n\r\n        setNewElement(amount, points);   \r\n        myNFT.mint(msg.sender, tokenId);     \r\n\r\n        currentPlayer.gladiator.strengthPoints += ((currentPlayer.tokens/1 ether) / 2); \r\n        currentPlayer.gladiator.skin = newSkin;\r\n        currentPlayer.gladiator.weapon = newWeapon;\r\n        currentPlayer.gladiator.isActive = true;\r\n    }\r\n    \r\n    //Fight \r\n    function fight() external returns(address) {\r\n        require(registeredPlayers[msg.sender].active, \"Player not registered\");\r\n        require(registeredPlayers[msg.sender].gladiator.isActive, \"Gladiator is not activated yet\");\r\n        require(playerOne == address(0) || playerTwo == address(0), \"There are no slots available\");\r\n\r\n        Player storage currentPlayer = registeredPlayers[msg.sender];\r\n        require(currentPlayer.tokens >= 5 ether, \"You don't have enough tokens to play\");\r\n\r\n        myToken.sendTokens(msg.sender, address(this), 5 ether);\r\n\r\n        currentPlayer.tokens = myToken.balanceOf(msg.sender);\r\n        tipJar += 5 ether;\r\n\r\n        if(playerOne == address(0)){\r\n            playerOne = msg.sender;\r\n        } else {\r\n            playerTwo = msg.sender;\r\n\r\n            address winnerAddress = startFight(playerOne, playerTwo);\r\n            require(winnerAddress != address(0), \"Something went wrong\");\r\n\r\n            myToken.sendTokens(address(this), winnerAddress, tipJar);\r\n            tipJar = 0;\r\n\r\n            registeredPlayers[winnerAddress].battlePoints += 2;\r\n            registeredPlayers[winnerAddress].tokens = myToken.balanceOf(winnerAddress);\r\n            playerOne = address(0);\r\n            playerTwo = address(0);\r\n\r\n            return registeredPlayers[winnerAddress].id;\r\n        }\r\n\r\n        return registeredPlayers[address(0)].id;\r\n    }\r\n    \r\n    function startFight(address p1, address p2) private view returns(address) {\r\n\r\n        uint256 p1GlaPts = registeredPlayers[p1].gladiator.strengthPoints;\r\n        uint256 p2GlaPts = registeredPlayers[p2].gladiator.strengthPoints;\r\n\r\n        if(p1GlaPts >= p2GlaPts){ \r\n            return p1;\r\n        } else if(p1GlaPts < p2GlaPts){\r\n            return p2;\r\n        }\r\n\r\n        return address(0);\r\n    }\r\n\r\n    //Get my data\r\n    function getMyData() external view returns(Player memory){\r\n        return registeredPlayers[msg.sender];\r\n    }\r\n\r\n    function getMyTokenAddress() external view returns(address){\r\n        return address(myToken);\r\n    }\r\n\r\n    //Private functions\r\n    function setNewElement(uint256 amount, uint256 points) private {\r\n        Player storage currentPlayer = registeredPlayers[msg.sender];\r\n        myToken.sendTokens(msg.sender, address(myToken), amount);\r\n        currentPlayer.tokens = myToken.balanceOf(msg.sender);\r\n        currentPlayer.gladiator.strengthPoints += points;\r\n    }\r\n\r\n    function initializeInfo() private {\r\n        uint256 counter = 1;\r\n        Info memory currentInfo;\r\n        uint256 tokensToPay;\r\n\r\n        for(uint8 i = 0; i <= 2; i++){           \r\n            for(uint8 j = 0; j <= 2; j++){\r\n                if(i == 0){\r\n                    tokensToPay = 15 ether;\r\n                    if(j == 0) tokensToPay += 15 ether;\r\n                    else if(j == 1) tokensToPay += 25 ether;\r\n                    else if(j == 2) tokensToPay += 30 ether;\r\n                } else if (i == 1){\r\n                    tokensToPay = 25 ether;\r\n                    if(j == 0) tokensToPay += 15 ether;\r\n                    else if(j == 1) tokensToPay += 25 ether;\r\n                    else if(j == 2) tokensToPay += 30 ether;\r\n                } else if(i == 2){\r\n                    tokensToPay = 30 ether;\r\n                    if(j == 0) tokensToPay += 15 ether;\r\n                    else if(j == 1) tokensToPay += 25 ether;\r\n                    else if(j == 2) tokensToPay += 30 ether;\r\n                }\r\n\r\n                currentInfo.tokenId = counter;\r\n                currentInfo.totalPoints = (i+1)+(j+1);\r\n                currentInfo.amountToPay = tokensToPay;\r\n\r\n                bytes32 key = keccak256(abi.encodePacked(i, j));\r\n                startInfo[key] = currentInfo;\r\n                counter++;\r\n            }\r\n        }\r\n    }\r\n\r\n    function getInfo(uint8 skin, uint8 weapon) external view returns(Info memory) {\r\n        bytes32 key = keccak256(abi.encodePacked(skin, weapon));\r\n        return startInfo[key];\r\n    }\r\n}",
  "sourcePath": "D:\\Documentos\\END\\curso\\Tema_5\\ERC721\\src\\contracts\\game-efficient.sol",
  "compiler": {
    "name": "solc",
    "version": "0.8.17+commit.8df45f5f.Emscripten.clang"
  },
  "schemaVersion": "3.4.8",
  "updatedAt": "2023-04-11T14:41:53.068Z",
  "devdoc": {
    "kind": "dev",
    "methods": {},
    "version": 1
  },
  "userdoc": {
    "kind": "user",
    "methods": {},
    "version": 1
  }
}