{
  "contractName": "GladiatorsGame",
  "abi": [
    {
      "inputs": [
        {
          "internalType": "address",
          "name": "mtkAddress",
          "type": "address"
        },
        {
          "internalType": "address",
          "name": "nftAddress",
          "type": "address"
        }
      ],
      "stateMutability": "nonpayable",
      "type": "constructor"
    },
    {
      "inputs": [],
      "name": "nonValidSkin",
      "type": "error"
    },
    {
      "inputs": [],
      "name": "nonValidWeapon",
      "type": "error"
    },
    {
      "anonymous": false,
      "inputs": [
        {
          "indexed": true,
          "internalType": "address",
          "name": "",
          "type": "address"
        }
      ],
      "name": "playerRegistered",
      "type": "event"
    },
    {
      "anonymous": false,
      "inputs": [],
      "name": "startedGame",
      "type": "event"
    },
    {
      "inputs": [],
      "name": "startGame",
      "outputs": [],
      "stateMutability": "nonpayable",
      "type": "function"
    },
    {
      "inputs": [],
      "name": "registerPlayer",
      "outputs": [],
      "stateMutability": "nonpayable",
      "type": "function"
    },
    {
      "inputs": [
        {
          "internalType": "enum GladiatorsGame.Skin",
          "name": "newSkin",
          "type": "uint8"
        },
        {
          "internalType": "enum GladiatorsGame.Weapon",
          "name": "newWeapon",
          "type": "uint8"
        }
      ],
      "name": "createGladiator",
      "outputs": [],
      "stateMutability": "nonpayable",
      "type": "function"
    },
    {
      "inputs": [],
      "name": "fight",
      "outputs": [
        {
          "internalType": "address",
          "name": "",
          "type": "address"
        }
      ],
      "stateMutability": "nonpayable",
      "type": "function"
    },
    {
      "inputs": [],
      "name": "getMyData",
      "outputs": [
        {
          "components": [
            {
              "internalType": "address",
              "name": "id",
              "type": "address"
            },
            {
              "internalType": "uint256",
              "name": "tokens",
              "type": "uint256"
            },
            {
              "components": [
                {
                  "internalType": "enum GladiatorsGame.Skin",
                  "name": "skin",
                  "type": "uint8"
                },
                {
                  "internalType": "enum GladiatorsGame.Weapon",
                  "name": "weapon",
                  "type": "uint8"
                },
                {
                  "internalType": "uint256",
                  "name": "strengthPoints",
                  "type": "uint256"
                },
                {
                  "internalType": "bool",
                  "name": "isActive",
                  "type": "bool"
                }
              ],
              "internalType": "struct GladiatorsGame.Gladiator",
              "name": "gladiator",
              "type": "tuple"
            },
            {
              "internalType": "bool",
              "name": "active",
              "type": "bool"
            }
          ],
          "internalType": "struct GladiatorsGame.Player",
          "name": "",
          "type": "tuple"
        }
      ],
      "stateMutability": "view",
      "type": "function",
      "constant": true
    },
    {
      "inputs": [],
      "name": "getMyTokenAddress",
      "outputs": [
        {
          "internalType": "address",
          "name": "",
          "type": "address"
        }
      ],
      "stateMutability": "view",
      "type": "function",
      "constant": true
    }
  ],
  "bytecode": "0x608060405260006003553480156200001657600080fd5b50604051620034243803806200342483398181016040528101906200003c919062000170565b336000806101000a81548173ffffffffffffffffffffffffffffffffffffffff021916908373ffffffffffffffffffffffffffffffffffffffff16021790555081600460006101000a81548173ffffffffffffffffffffffffffffffffffffffff021916908373ffffffffffffffffffffffffffffffffffffffff16021790555080600560006101000a81548173ffffffffffffffffffffffffffffffffffffffff021916908373ffffffffffffffffffffffffffffffffffffffff1602179055505050620001b7565b600080fd5b600073ffffffffffffffffffffffffffffffffffffffff82169050919050565b600062000138826200010b565b9050919050565b6200014a816200012b565b81146200015657600080fd5b50565b6000815190506200016a816200013f565b92915050565b600080604083850312156200018a576200018962000106565b5b60006200019a8582860162000159565b9250506020620001ad8582860162000159565b9150509250929050565b61325d80620001c76000396000f3fe608060405234801561001057600080fd5b50600436106100625760003560e01c8063457df8de146100675780635c07a4b0146100855780638f8f08d21461008f578063b506abba146100ab578063d65ab5f2146100c9578063d9c8a38b146100d3575b600080fd5b61006f6100f1565b60405161007c9190612462565b60405180910390f35b61008d610963565b005b6100a960048036038101906100a491906124cc565b610cdd565b005b6100b3611c8d565b6040516100c09190612462565b60405180910390f35b6100d1611cb7565b005b6100db611f8a565b6040516100e891906126b8565b60405180910390f35b6000600660003373ffffffffffffffffffffffffffffffffffffffff1673ffffffffffffffffffffffffffffffffffffffff16815260200190815260200160002060050160009054906101000a900460ff16610182576040517f08c379a000000000000000000000000000000000000000000000000000000000815260040161017990612730565b60405180910390fd5b600660003373ffffffffffffffffffffffffffffffffffffffff1673ffffffffffffffffffffffffffffffffffffffff16815260200190815260200160002060020160020160009054906101000a900460ff16610214576040517f08c379a000000000000000000000000000000000000000000000000000000000815260040161020b9061279c565b60405180910390fd5b600073ffffffffffffffffffffffffffffffffffffffff16600160009054906101000a900473ffffffffffffffffffffffffffffffffffffffff1673ffffffffffffffffffffffffffffffffffffffff1614806102bf5750600073ffffffffffffffffffffffffffffffffffffffff16600260009054906101000a900473ffffffffffffffffffffffffffffffffffffffff1673ffffffffffffffffffffffffffffffffffffffff16145b6102fe576040517f08c379a00000000000000000000000000000000000000000000000000000000081526004016102f590612808565b60405180910390fd5b6000600660003373ffffffffffffffffffffffffffffffffffffffff1673ffffffffffffffffffffffffffffffffffffffff1681526020019081526020016000209050674563918244f4000081600101541015610390576040517f08c379a00000000000000000000000000000000000000000000000000000000081526004016103879061289a565b60405180910390fd5b600460009054906101000a900473ffffffffffffffffffffffffffffffffffffffff1673ffffffffffffffffffffffffffffffffffffffff1663e6d66ac83330674563918244f400006040518463ffffffff1660e01b81526004016103f7939291906128ff565b600060405180830381600087803b15801561041157600080fd5b505af1158015610425573d6000803e3d6000fd5b50505050600460009054906101000a900473ffffffffffffffffffffffffffffffffffffffff1673ffffffffffffffffffffffffffffffffffffffff166370a08231336040518263ffffffff1660e01b81526004016104849190612462565b602060405180830381865afa1580156104a1573d6000803e3d6000fd5b505050506040513d601f19601f820116820180604052508101906104c59190612962565b8160010181905550674563918244f40000600360008282546104e791906129be565b92505081905550600073ffffffffffffffffffffffffffffffffffffffff16600160009054906101000a900473ffffffffffffffffffffffffffffffffffffffff1673ffffffffffffffffffffffffffffffffffffffff160361058a5733600160006101000a81548173ffffffffffffffffffffffffffffffffffffffff021916908373ffffffffffffffffffffffffffffffffffffffff1602179055506108f9565b33600260006101000a81548173ffffffffffffffffffffffffffffffffffffffff021916908373ffffffffffffffffffffffffffffffffffffffff160217905550600061061b600160009054906101000a900473ffffffffffffffffffffffffffffffffffffffff16600260009054906101000a900473ffffffffffffffffffffffffffffffffffffffff1661210b565b9050600073ffffffffffffffffffffffffffffffffffffffff168173ffffffffffffffffffffffffffffffffffffffff160361068c576040517f08c379a000000000000000000000000000000000000000000000000000000000815260040161068390612a3e565b60405180910390fd5b600460009054906101000a900473ffffffffffffffffffffffffffffffffffffffff1673ffffffffffffffffffffffffffffffffffffffff1663e6d66ac830836003546040518463ffffffff1660e01b81526004016106ed93929190612a6d565b600060405180830381600087803b15801561070757600080fd5b505af115801561071b573d6000803e3d6000fd5b505050506000600381905550600460009054906101000a900473ffffffffffffffffffffffffffffffffffffffff1673ffffffffffffffffffffffffffffffffffffffff166370a08231826040518263ffffffff1660e01b81526004016107829190612462565b602060405180830381865afa15801561079f573d6000803e3d6000fd5b505050506040513d601f19601f820116820180604052508101906107c39190612962565b600660008373ffffffffffffffffffffffffffffffffffffffff1673ffffffffffffffffffffffffffffffffffffffff168152602001908152602001600020600101819055506000600160006101000a81548173ffffffffffffffffffffffffffffffffffffffff021916908373ffffffffffffffffffffffffffffffffffffffff1602179055506000600260006101000a81548173ffffffffffffffffffffffffffffffffffffffff021916908373ffffffffffffffffffffffffffffffffffffffff160217905550600660008273ffffffffffffffffffffffffffffffffffffffff1673ffffffffffffffffffffffffffffffffffffffff16815260200190815260200160002060000160009054906101000a900473ffffffffffffffffffffffffffffffffffffffff1692505050610960565b600660008073ffffffffffffffffffffffffffffffffffffffff1673ffffffffffffffffffffffffffffffffffffffff16815260200190815260200160002060000160009054906101000a900473ffffffffffffffffffffffffffffffffffffffff169150505b90565b600260149054906101000a900460ff166109b2576040517f08c379a00000000000000000000000000000000000000000000000000000000081526004016109a990612af0565b60405180910390fd5b600660003373ffffffffffffffffffffffffffffffffffffffff1673ffffffffffffffffffffffffffffffffffffffff16815260200190815260200160002060050160009054906101000a900460ff1615610a42576040517f08c379a0000000000000000000000000000000000000000000000000000000008152600401610a3990612b5c565b60405180910390fd5b33600660003373ffffffffffffffffffffffffffffffffffffffff1673ffffffffffffffffffffffffffffffffffffffff16815260200190815260200160002060000160006101000a81548173ffffffffffffffffffffffffffffffffffffffff021916908373ffffffffffffffffffffffffffffffffffffffff160217905550600460009054906101000a900473ffffffffffffffffffffffffffffffffffffffff1673ffffffffffffffffffffffffffffffffffffffff166340c10f19336802b5e3af16b18800006040518363ffffffff1660e01b8152600401610b29929190612bb7565b600060405180830381600087803b158015610b4357600080fd5b505af1158015610b57573d6000803e3d6000fd5b50505050600460009054906101000a900473ffffffffffffffffffffffffffffffffffffffff1673ffffffffffffffffffffffffffffffffffffffff166370a08231336040518263ffffffff1660e01b8152600401610bb69190612462565b602060405180830381865afa158015610bd3573d6000803e3d6000fd5b505050506040513d601f19601f82011682018060405250810190610bf79190612962565b600660003373ffffffffffffffffffffffffffffffffffffffff1673ffffffffffffffffffffffffffffffffffffffff168152602001908152602001600020600101819055506001600660003373ffffffffffffffffffffffffffffffffffffffff1673ffffffffffffffffffffffffffffffffffffffff16815260200190815260200160002060050160006101000a81548160ff0219169083151502179055503373ffffffffffffffffffffffffffffffffffffffff167f9b66d49082843aa418cd502edc3b870cda1cef5aa3c1e289ca61475532afd35660405160405180910390a2565b6000600660003373ffffffffffffffffffffffffffffffffffffffff1673ffffffffffffffffffffffffffffffffffffffff16815260200190815260200160002090508060050160009054906101000a900460ff16610d71576040517f08c379a0000000000000000000000000000000000000000000000000000000008152600401610d6890612c2c565b60405180910390fd5b600460009054906101000a900473ffffffffffffffffffffffffffffffffffffffff1673ffffffffffffffffffffffffffffffffffffffff166370a08231336040518263ffffffff1660e01b8152600401610dcc9190612462565b602060405180830381865afa158015610de9573d6000803e3d6000fd5b505050506040513d601f19601f82011682018060405250810190610e0d9190612962565b816001018190555060006002811115610e2957610e28612534565b5b836002811115610e3c57610e3b612534565b5b0361129457674563918244f4000067d02ab486cedc00008260010154610e629190612c4c565b1015610ea3576040517f08c379a0000000000000000000000000000000000000000000000000000000008152600401610e9a90612cf2565b60405180910390fd5b610eb667d02ab486cedc000060016121d0565b60006002811115610eca57610ec9612534565b5b826002811115610edd57610edc612534565b5b03610fec57674563918244f4000067d02ab486cedc00008260010154610f039190612c4c565b1015610f44576040517f08c379a0000000000000000000000000000000000000000000000000000000008152600401610f3b90612cf2565b60405180910390fd5b610f5767d02ab486cedc000060016121d0565b600560009054906101000a900473ffffffffffffffffffffffffffffffffffffffff1673ffffffffffffffffffffffffffffffffffffffff166340c10f193360016040518363ffffffff1660e01b8152600401610fb5929190612d4d565b600060405180830381600087803b158015610fcf57600080fd5b505af1158015610fe3573d6000803e3d6000fd5b5050505061128f565b6001600281111561100057610fff612534565b5b82600281111561101357611012612534565b5b0361112457674563918244f4000068015af1d78b58c40000826001015461103a9190612c4c565b101561107b576040517f08c379a000000000000000000000000000000000000000000000000000000000815260040161107290612cf2565b60405180910390fd5b61108f68015af1d78b58c4000060026121d0565b600560009054906101000a900473ffffffffffffffffffffffffffffffffffffffff1673ffffffffffffffffffffffffffffffffffffffff166340c10f193360026040518363ffffffff1660e01b81526004016110ed929190612db1565b600060405180830381600087803b15801561110757600080fd5b505af115801561111b573d6000803e3d6000fd5b5050505061128e565b60028081111561113757611136612534565b5b82600281111561114a57611149612534565b5b0361125b57674563918244f400006801a055690d9db8000082600101546111719190612c4c565b10156111b2576040517f08c379a00000000000000000000000000000000000000000000000000000000081526004016111a990612cf2565b60405180910390fd5b6111c66801a055690d9db8000060036121d0565b600560009054906101000a900473ffffffffffffffffffffffffffffffffffffffff1673ffffffffffffffffffffffffffffffffffffffff166340c10f193360036040518363ffffffff1660e01b8152600401611224929190612e15565b600060405180830381600087803b15801561123e57600080fd5b505af1158015611252573d6000803e3d6000fd5b5050505061128d565b6040517fea87c8b600000000000000000000000000000000000000000000000000000000815260040160405180910390fd5b5b5b611bc9565b600160028111156112a8576112a7612534565b5b8360028111156112bb576112ba612534565b5b0361171557674563918244f4000068015af1d78b58c4000082600101546112e29190612c4c565b1015611323576040517f08c379a000000000000000000000000000000000000000000000000000000000815260040161131a90612cf2565b60405180910390fd5b61133768015af1d78b58c4000060026121d0565b6000600281111561134b5761134a612534565b5b82600281111561135e5761135d612534565b5b0361146d57674563918244f4000067d02ab486cedc000082600101546113849190612c4c565b10156113c5576040517f08c379a00000000000000000000000000000000000000000000000000000000081526004016113bc90612cf2565b60405180910390fd5b6113d867d02ab486cedc000060016121d0565b600560009054906101000a900473ffffffffffffffffffffffffffffffffffffffff1673ffffffffffffffffffffffffffffffffffffffff166340c10f193360046040518363ffffffff1660e01b8152600401611436929190612e79565b600060405180830381600087803b15801561145057600080fd5b505af1158015611464573d6000803e3d6000fd5b50505050611710565b6001600281111561148157611480612534565b5b82600281111561149457611493612534565b5b036115a557674563918244f4000068015af1d78b58c4000082600101546114bb9190612c4c565b10156114fc576040517f08c379a00000000000000000000000000000000000000000000000000000000081526004016114f390612cf2565b60405180910390fd5b61151068015af1d78b58c4000060026121d0565b600560009054906101000a900473ffffffffffffffffffffffffffffffffffffffff1673ffffffffffffffffffffffffffffffffffffffff166340c10f193360056040518363ffffffff1660e01b815260040161156e929190612edd565b600060405180830381600087803b15801561158857600080fd5b505af115801561159c573d6000803e3d6000fd5b5050505061170f565b6002808111156115b8576115b7612534565b5b8260028111156115cb576115ca612534565b5b036116dc57674563918244f400006801a055690d9db8000082600101546115f29190612c4c565b1015611633576040517f08c379a000000000000000000000000000000000000000000000000000000000815260040161162a90612cf2565b60405180910390fd5b6116476801a055690d9db8000060036121d0565b600560009054906101000a900473ffffffffffffffffffffffffffffffffffffffff1673ffffffffffffffffffffffffffffffffffffffff166340c10f193360066040518363ffffffff1660e01b81526004016116a5929190612f41565b600060405180830381600087803b1580156116bf57600080fd5b505af11580156116d3573d6000803e3d6000fd5b5050505061170e565b6040517fea87c8b600000000000000000000000000000000000000000000000000000000815260040160405180910390fd5b5b5b611bc8565b60028081111561172857611727612534565b5b83600281111561173b5761173a612534565b5b03611b9557674563918244f400006801a055690d9db8000082600101546117629190612c4c565b10156117a3576040517f08c379a000000000000000000000000000000000000000000000000000000000815260040161179a90612cf2565b60405180910390fd5b6117b76801a055690d9db8000060036121d0565b600060028111156117cb576117ca612534565b5b8260028111156117de576117dd612534565b5b036118ed57674563918244f4000067d02ab486cedc000082600101546118049190612c4c565b1015611845576040517f08c379a000000000000000000000000000000000000000000000000000000000815260040161183c90612cf2565b60405180910390fd5b61185867d02ab486cedc000060016121d0565b600560009054906101000a900473ffffffffffffffffffffffffffffffffffffffff1673ffffffffffffffffffffffffffffffffffffffff166340c10f193360076040518363ffffffff1660e01b81526004016118b6929190612fa5565b600060405180830381600087803b1580156118d057600080fd5b505af11580156118e4573d6000803e3d6000fd5b50505050611b90565b6001600281111561190157611900612534565b5b82600281111561191457611913612534565b5b03611a2557674563918244f4000068015af1d78b58c40000826001015461193b9190612c4c565b101561197c576040517f08c379a000000000000000000000000000000000000000000000000000000000815260040161197390612cf2565b60405180910390fd5b61199068015af1d78b58c4000060026121d0565b600560009054906101000a900473ffffffffffffffffffffffffffffffffffffffff1673ffffffffffffffffffffffffffffffffffffffff166340c10f193360086040518363ffffffff1660e01b81526004016119ee929190613009565b600060405180830381600087803b158015611a0857600080fd5b505af1158015611a1c573d6000803e3d6000fd5b50505050611b8f565b600280811115611a3857611a37612534565b5b826002811115611a4b57611a4a612534565b5b03611b5c57674563918244f400006801a055690d9db800008260010154611a729190612c4c565b1015611ab3576040517f08c379a0000000000000000000000000000000000000000000000000000000008152600401611aaa90612cf2565b60405180910390fd5b611ac76801a055690d9db8000060036121d0565b600560009054906101000a900473ffffffffffffffffffffffffffffffffffffffff1673ffffffffffffffffffffffffffffffffffffffff166340c10f193360096040518363ffffffff1660e01b8152600401611b2592919061306d565b600060405180830381600087803b158015611b3f57600080fd5b505af1158015611b53573d6000803e3d6000fd5b50505050611b8e565b6040517fea87c8b600000000000000000000000000000000000000000000000000000000815260040160405180910390fd5b5b5b611bc7565b6040517ffb560e8000000000000000000000000000000000000000000000000000000000815260040160405180910390fd5b5b5b6002670de0b6b3a76400008260010154611be391906130c5565b611bed91906130c5565b816002016001016000828254611c0391906129be565b92505081905550828160020160000160006101000a81548160ff02191690836002811115611c3457611c33612534565b5b0217905550818160020160000160016101000a81548160ff02191690836002811115611c6357611c62612534565b5b021790555060018160020160020160006101000a81548160ff021916908315150217905550505050565b6000600460009054906101000a900473ffffffffffffffffffffffffffffffffffffffff16905090565b60008054906101000a900473ffffffffffffffffffffffffffffffffffffffff1673ffffffffffffffffffffffffffffffffffffffff163373ffffffffffffffffffffffffffffffffffffffff1614611d45576040517f08c379a0000000000000000000000000000000000000000000000000000000008152600401611d3c90613142565b60405180910390fd5b3073ffffffffffffffffffffffffffffffffffffffff16600460009054906101000a900473ffffffffffffffffffffffffffffffffffffffff1673ffffffffffffffffffffffffffffffffffffffff1663273470e56040518163ffffffff1660e01b8152600401602060405180830381865afa158015611dc9573d6000803e3d6000fd5b505050506040513d601f19601f82011682018060405250810190611ded919061318e565b73ffffffffffffffffffffffffffffffffffffffff1614611e43576040517f08c379a0000000000000000000000000000000000000000000000000000000008152600401611e3a90613207565b60405180910390fd5b3073ffffffffffffffffffffffffffffffffffffffff16600560009054906101000a900473ffffffffffffffffffffffffffffffffffffffff1673ffffffffffffffffffffffffffffffffffffffff1663273470e56040518163ffffffff1660e01b8152600401602060405180830381865afa158015611ec7573d6000803e3d6000fd5b505050506040513d601f19601f82011682018060405250810190611eeb919061318e565b73ffffffffffffffffffffffffffffffffffffffff1614611f41576040517f08c379a0000000000000000000000000000000000000000000000000000000008152600401611f3890613207565b60405180910390fd5b6001600260146101000a81548160ff0219169083151502179055507fa256766d903fb548a6aa83a1b97999683fd1aa2f8a909b8ffab16fa4b38e4a4f60405160405180910390a1565b611f9261238d565b600660003373ffffffffffffffffffffffffffffffffffffffff1673ffffffffffffffffffffffffffffffffffffffff1681526020019081526020016000206040518060800160405290816000820160009054906101000a900473ffffffffffffffffffffffffffffffffffffffff1673ffffffffffffffffffffffffffffffffffffffff1673ffffffffffffffffffffffffffffffffffffffff16815260200160018201548152602001600282016040518060800160405290816000820160009054906101000a900460ff16600281111561207157612070612534565b5b600281111561208357612082612534565b5b81526020016000820160019054906101000a900460ff1660028111156120ac576120ab612534565b5b60028111156120be576120bd612534565b5b8152602001600182015481526020016002820160009054906101000a900460ff16151515158152505081526020016005820160009054906101000a900460ff161515151581525050905090565b600080600660008573ffffffffffffffffffffffffffffffffffffffff1673ffffffffffffffffffffffffffffffffffffffff1681526020019081526020016000206002016001015490506000600660008573ffffffffffffffffffffffffffffffffffffffff1673ffffffffffffffffffffffffffffffffffffffff1681526020019081526020016000206002016001015490508082106121b15784925050506121ca565b808210156121c35783925050506121ca565b6000925050505b92915050565b6000600660003373ffffffffffffffffffffffffffffffffffffffff1673ffffffffffffffffffffffffffffffffffffffff1681526020019081526020016000209050600460009054906101000a900473ffffffffffffffffffffffffffffffffffffffff1673ffffffffffffffffffffffffffffffffffffffff1663e6d66ac833600460009054906101000a900473ffffffffffffffffffffffffffffffffffffffff16866040518463ffffffff1660e01b815260040161229493929190612a6d565b600060405180830381600087803b1580156122ae57600080fd5b505af11580156122c2573d6000803e3d6000fd5b50505050600460009054906101000a900473ffffffffffffffffffffffffffffffffffffffff1673ffffffffffffffffffffffffffffffffffffffff166370a08231336040518263ffffffff1660e01b81526004016123219190612462565b602060405180830381865afa15801561233e573d6000803e3d6000fd5b505050506040513d601f19601f820116820180604052508101906123629190612962565b81600101819055508181600201600101600082825461238191906129be565b92505081905550505050565b6040518060800160405280600073ffffffffffffffffffffffffffffffffffffffff168152602001600081526020016123c46123d3565b81526020016000151581525090565b6040518060800160405280600060028111156123f2576123f1612534565b5b81526020016000600281111561240b5761240a612534565b5b8152602001600081526020016000151581525090565b600073ffffffffffffffffffffffffffffffffffffffff82169050919050565b600061244c82612421565b9050919050565b61245c81612441565b82525050565b60006020820190506124776000830184612453565b92915050565b600080fd5b6003811061248f57600080fd5b50565b6000813590506124a181612482565b92915050565b600381106124b457600080fd5b50565b6000813590506124c6816124a7565b92915050565b600080604083850312156124e3576124e261247d565b5b60006124f185828601612492565b9250506020612502858286016124b7565b9150509250929050565b61251581612441565b82525050565b6000819050919050565b61252e8161251b565b82525050565b7f4e487b7100000000000000000000000000000000000000000000000000000000600052602160045260246000fd5b6003811061257457612573612534565b5b50565b600081905061258582612563565b919050565b600061259582612577565b9050919050565b6125a58161258a565b82525050565b600381106125bc576125bb612534565b5b50565b60008190506125cd826125ab565b919050565b60006125dd826125bf565b9050919050565b6125ed816125d2565b82525050565b60008115159050919050565b612608816125f3565b82525050565b608082016000820151612624600085018261259c565b50602082015161263760208501826125e4565b50604082015161264a6040850182612525565b50606082015161265d60608501826125ff565b50505050565b60e082016000820151612679600085018261250c565b50602082015161268c6020850182612525565b50604082015161269f604085018261260e565b5060608201516126b260c08501826125ff565b50505050565b600060e0820190506126cd6000830184612663565b92915050565b600082825260208201905092915050565b7f506c61796572206e6f7420726567697374657265640000000000000000000000600082015250565b600061271a6015836126d3565b9150612725826126e4565b602082019050919050565b600060208201905081810360008301526127498161270d565b9050919050565b7f476c61646961746f72206973206e6f7420616374697661746564207965740000600082015250565b6000612786601e836126d3565b915061279182612750565b602082019050919050565b600060208201905081810360008301526127b581612779565b9050919050565b7f546865726520617265206e6f20736c6f747320617661696c61626c6500000000600082015250565b60006127f2601c836126d3565b91506127fd826127bc565b602082019050919050565b60006020820190508181036000830152612821816127e5565b9050919050565b7f596f7520646f6e2774206861766520656e6f75676820746f6b656e7320746f2060008201527f706c617900000000000000000000000000000000000000000000000000000000602082015250565b60006128846024836126d3565b915061288f82612828565b604082019050919050565b600060208201905081810360008301526128b381612877565b9050919050565b6000819050919050565b6000819050919050565b60006128e96128e46128df846128ba565b6128c4565b61251b565b9050919050565b6128f9816128ce565b82525050565b60006060820190506129146000830186612453565b6129216020830185612453565b61292e60408301846128f0565b949350505050565b61293f8161251b565b811461294a57600080fd5b50565b60008151905061295c81612936565b92915050565b6000602082840312156129785761297761247d565b5b60006129868482850161294d565b91505092915050565b7f4e487b7100000000000000000000000000000000000000000000000000000000600052601160045260246000fd5b60006129c98261251b565b91506129d48361251b565b92508282019050808211156129ec576129eb61298f565b5b92915050565b7f536f6d657468696e672077656e742077726f6e67000000000000000000000000600082015250565b6000612a286014836126d3565b9150612a33826129f2565b602082019050919050565b60006020820190508181036000830152612a5781612a1b565b9050919050565b612a678161251b565b82525050565b6000606082019050612a826000830186612453565b612a8f6020830185612453565b612a9c6040830184612a5e565b949350505050565b7f47616d65206e6f74207374617274656420796574000000000000000000000000600082015250565b6000612ada6014836126d3565b9150612ae582612aa4565b602082019050919050565b60006020820190508181036000830152612b0981612acd565b9050919050565b7f506c6179657220616c7265616479207265676973746572656400000000000000600082015250565b6000612b466019836126d3565b9150612b5182612b10565b602082019050919050565b60006020820190508181036000830152612b7581612b39565b9050919050565b6000819050919050565b6000612ba1612b9c612b9784612b7c565b6128c4565b61251b565b9050919050565b612bb181612b86565b82525050565b6000604082019050612bcc6000830185612453565b612bd96020830184612ba8565b9392505050565b7f506c61796572206973206e6f7420726567697374657265640000000000000000600082015250565b6000612c166018836126d3565b9150612c2182612be0565b602082019050919050565b60006020820190508181036000830152612c4581612c09565b9050919050565b6000612c578261251b565b9150612c628361251b565b9250828203905081811115612c7a57612c7961298f565b5b92915050565b7f506c6179657220646f65736e2774206861766520656e6f75676820746f6b656e60008201527f7300000000000000000000000000000000000000000000000000000000000000602082015250565b6000612cdc6021836126d3565b9150612ce782612c80565b604082019050919050565b60006020820190508181036000830152612d0b81612ccf565b9050919050565b6000819050919050565b6000612d37612d32612d2d84612d12565b6128c4565b61251b565b9050919050565b612d4781612d1c565b82525050565b6000604082019050612d626000830185612453565b612d6f6020830184612d3e565b9392505050565b6000819050919050565b6000612d9b612d96612d9184612d76565b6128c4565b61251b565b9050919050565b612dab81612d80565b82525050565b6000604082019050612dc66000830185612453565b612dd36020830184612da2565b9392505050565b6000819050919050565b6000612dff612dfa612df584612dda565b6128c4565b61251b565b9050919050565b612e0f81612de4565b82525050565b6000604082019050612e2a6000830185612453565b612e376020830184612e06565b9392505050565b6000819050919050565b6000612e63612e5e612e5984612e3e565b6128c4565b61251b565b9050919050565b612e7381612e48565b82525050565b6000604082019050612e8e6000830185612453565b612e9b6020830184612e6a565b9392505050565b6000819050919050565b6000612ec7612ec2612ebd84612ea2565b6128c4565b61251b565b9050919050565b612ed781612eac565b82525050565b6000604082019050612ef26000830185612453565b612eff6020830184612ece565b9392505050565b6000819050919050565b6000612f2b612f26612f2184612f06565b6128c4565b61251b565b9050919050565b612f3b81612f10565b82525050565b6000604082019050612f566000830185612453565b612f636020830184612f32565b9392505050565b6000819050919050565b6000612f8f612f8a612f8584612f6a565b6128c4565b61251b565b9050919050565b612f9f81612f74565b82525050565b6000604082019050612fba6000830185612453565b612fc76020830184612f96565b9392505050565b6000819050919050565b6000612ff3612fee612fe984612fce565b6128c4565b61251b565b9050919050565b61300381612fd8565b82525050565b600060408201905061301e6000830185612453565b61302b6020830184612ffa565b9392505050565b6000819050919050565b600061305761305261304d84613032565b6128c4565b61251b565b9050919050565b6130678161303c565b82525050565b60006040820190506130826000830185612453565b61308f602083018461305e565b9392505050565b7f4e487b7100000000000000000000000000000000000000000000000000000000600052601260045260246000fd5b60006130d08261251b565b91506130db8361251b565b9250826130eb576130ea613096565b5b828204905092915050565b7f556e617574686f72697a65640000000000000000000000000000000000000000600082015250565b600061312c600c836126d3565b9150613137826130f6565b602082019050919050565b6000602082019050818103600083015261315b8161311f565b9050919050565b61316b81612441565b811461317657600080fd5b50565b60008151905061318881613162565b92915050565b6000602082840312156131a4576131a361247d565b5b60006131b284828501613179565b91505092915050565b7f47616d652063616e277420737461727420796574000000000000000000000000600082015250565b60006131f16014836126d3565b91506131fc826131bb565b602082019050919050565b60006020820190508181036000830152613220816131e4565b905091905056fea26469706673582212201b440ebbe57659932b43ea05b840dfc727bf57cd9fa452368c1013d1aeded86264736f6c63430008110033",
  "immutableReferences": {},
  "source": "//SPDX-License-Identifier: MIT\r\n\r\nimport \"./myToken.sol\";\r\nimport \"./myNFT.sol\";\r\n\r\npragma solidity ^0.8.17;\r\n\r\ncontract GladiatorsGame {\r\n\r\n    address private owner;\r\n    address private playerOne;\r\n    address private playerTwo;\r\n    bool private gameStarted;\r\n    uint256 tipJar = 0;\r\n\r\n    MyToken myToken;\r\n    GladiatorNFT myNFT; //MODIFIED\r\n\r\n    //Mappings\r\n    mapping(address => Player) registeredPlayers;\r\n\r\n    //Gladiator -> MODIFIED\r\n    enum Skin { \r\n        boots,  \r\n        helmet,\r\n        armor\r\n    } \r\n\r\n    //MODIFIED\r\n    enum Weapon {\r\n        sword,\r\n        spear,\r\n        trident\r\n    }\r\n\r\n    struct Gladiator {\r\n        Skin skin;\r\n        Weapon weapon;\r\n        uint256 strengthPoints;\r\n        bool isActive;\r\n    }\r\n\r\n    //Player\r\n    struct Player {\r\n        address id;\r\n        uint256 tokens;\r\n        Gladiator gladiator;\r\n        bool active; \r\n    }\r\n\r\n    //Events\r\n    event startedGame();\r\n    event playerRegistered(address indexed);\r\n\r\n    //Errors\r\n    error nonValidSkin();\r\n    error nonValidWeapon();\r\n\r\n    //Modifiers\r\n    modifier onlyOwner() {\r\n        require(msg.sender == owner, \"Unauthorized\");\r\n        _;\r\n    }\r\n\r\n    //Constructor \r\n    constructor(address mtkAddress, address nftAddress){\r\n        owner = msg.sender;\r\n        myToken = MyToken(mtkAddress);\r\n        myNFT = GladiatorNFT(nftAddress); //MODIFIED\r\n    }\r\n    \r\n    //initialize game\r\n    function startGame() external onlyOwner {\r\n        require(myToken.getGladiatorAddress() == address(this), \"Game can't start yet\"); \r\n        require(myNFT.getGladiatorAddress() == address(this), \"Game can't start yet\"); //MODIFIED\r\n        gameStarted = true;\r\n\r\n        emit startedGame(); //MODIFIED\r\n    }\r\n\r\n    //register players\r\n    function registerPlayer() external {\r\n        require(gameStarted, \"Game not started yet\");\r\n        require(!registeredPlayers[msg.sender].active, \"Player already registered\");\r\n\r\n        registeredPlayers[msg.sender].id = address(msg.sender);\r\n        myToken.mint(msg.sender, 50 ether);  //MODIFIED\r\n        registeredPlayers[msg.sender].tokens = myToken.balanceOf(msg.sender); \r\n        registeredPlayers[msg.sender].active = true;\r\n\r\n        emit playerRegistered(msg.sender); //MODIFIED\r\n    }\r\n\r\n    //Select items (create gladiator)\r\n    function createGladiator(Skin newSkin, Weapon newWeapon) external {\r\n        Player storage currentPlayer = registeredPlayers[msg.sender];\r\n\r\n        require(currentPlayer.active, \"Player is not registered\");\r\n        \r\n\r\n        //MODIFIED\r\n        currentPlayer.tokens = myToken.balanceOf(msg.sender); //Actualizar la informacin de los tokens por si el \r\n                                                              //usuario ha comprado tokens antes de crear el gladiador\r\n        //Mint the correct NFT \r\n        if(newSkin == Skin.boots){\r\n            require(currentPlayer.tokens - 15 ether >= 5 ether, \"Player doesn't have enough tokens\");\r\n            setNewElement(15 ether, 1);\r\n            \r\n            if(newWeapon == Weapon.sword){\r\n                require(currentPlayer.tokens - 15 ether >= 5 ether, \"Player doesn't have enough tokens\");\r\n                setNewElement(15 ether, 1);\r\n                myNFT.mint(msg.sender, 1);\r\n            } else if(newWeapon == Weapon.spear){\r\n                require(currentPlayer.tokens - 25 ether >= 5 ether, \"Player doesn't have enough tokens\");\r\n                setNewElement(25 ether, 2);\r\n                myNFT.mint(msg.sender, 2);\r\n            } else if(newWeapon == Weapon.trident) {\r\n                require(currentPlayer.tokens - 30 ether >= 5 ether, \"Player doesn't have enough tokens\");\r\n                setNewElement(30 ether, 3);\r\n                myNFT.mint(msg.sender, 3);\r\n            } else {\r\n                revert nonValidWeapon();\r\n            }\r\n\r\n        } else if(newSkin == Skin.helmet){\r\n            require(currentPlayer.tokens - 25 ether >= 5 ether, \"Player doesn't have enough tokens\");\r\n            setNewElement(25 ether, 2);\r\n            \r\n            if(newWeapon == Weapon.sword){\r\n                require(currentPlayer.tokens - 15 ether >= 5 ether, \"Player doesn't have enough tokens\");\r\n                setNewElement(15 ether, 1);\r\n                myNFT.mint(msg.sender, 4);\r\n            } else if(newWeapon == Weapon.spear){\r\n                require(currentPlayer.tokens - 25 ether >= 5 ether, \"Player doesn't have enough tokens\");\r\n                setNewElement(25 ether, 2);\r\n                myNFT.mint(msg.sender, 5);\r\n            } else if(newWeapon == Weapon.trident) {\r\n                require(currentPlayer.tokens - 30 ether >= 5 ether, \"Player doesn't have enough tokens\");\r\n                setNewElement(30 ether, 3);\r\n                myNFT.mint(msg.sender, 6);\r\n            } else {\r\n                revert nonValidWeapon();\r\n            }\r\n        } else if(newSkin == Skin.armor){\r\n            require(currentPlayer.tokens - 30 ether >= 5 ether, \"Player doesn't have enough tokens\");\r\n            setNewElement(30 ether, 3);\r\n\r\n            if(newWeapon == Weapon.sword){\r\n                require(currentPlayer.tokens - 15 ether >= 5 ether, \"Player doesn't have enough tokens\");\r\n                setNewElement(15 ether, 1);\r\n                myNFT.mint(msg.sender, 7);\r\n            } else if(newWeapon == Weapon.spear){\r\n                require(currentPlayer.tokens - 25 ether >= 5 ether, \"Player doesn't have enough tokens\");\r\n                setNewElement(25 ether, 2);\r\n                myNFT.mint(msg.sender, 8);\r\n            } else if(newWeapon == Weapon.trident) {\r\n                require(currentPlayer.tokens - 30 ether >= 5 ether, \"Player doesn't have enough tokens\");\r\n                setNewElement(30 ether, 3);\r\n                myNFT.mint(msg.sender, 9);\r\n            } else {\r\n                revert nonValidWeapon();\r\n            }\r\n        } else {\r\n            revert nonValidSkin();\r\n        }\r\n\r\n        currentPlayer.gladiator.strengthPoints += ((currentPlayer.tokens/1 ether) / 2); //MODIFIED\r\n        currentPlayer.gladiator.skin = newSkin;\r\n        currentPlayer.gladiator.weapon = newWeapon;\r\n        currentPlayer.gladiator.isActive = true;\r\n    }\r\n    \r\n    //Fight \r\n    function fight() external returns(address) {\r\n        require(registeredPlayers[msg.sender].active, \"Player not registered\");\r\n        require(registeredPlayers[msg.sender].gladiator.isActive, \"Gladiator is not activated yet\");\r\n        require(playerOne == address(0) || playerTwo == address(0), \"There are no slots available\");\r\n\r\n        Player storage currentPlayer = registeredPlayers[msg.sender];\r\n        require(currentPlayer.tokens >= 5 ether, \"You don't have enough tokens to play\"); //MODIFIED\r\n\r\n        myToken.sendTokens(msg.sender, address(this), 5 ether ); //MODIFIED\r\n\r\n        currentPlayer.tokens = myToken.balanceOf(msg.sender);\r\n        tipJar += 5 ether; //MODIFIED\r\n\r\n        if(playerOne == address(0)){\r\n            playerOne = msg.sender;\r\n        } else {\r\n            playerTwo = msg.sender;\r\n\r\n            address winnerAddress = startFight(playerOne, playerTwo);\r\n            require(winnerAddress != address(0), \"Something went wrong\");\r\n\r\n            myToken.sendTokens(address(this), winnerAddress, tipJar);\r\n            tipJar = 0;\r\n\r\n            registeredPlayers[winnerAddress].tokens = myToken.balanceOf(winnerAddress);\r\n            playerOne = address(0);\r\n            playerTwo = address(0);\r\n\r\n            return registeredPlayers[winnerAddress].id;\r\n        }\r\n\r\n        return registeredPlayers[address(0)].id;\r\n    }\r\n    \r\n    function startFight(address p1, address p2) private view returns(address) {\r\n\r\n        uint256 p1GlaPts = registeredPlayers[p1].gladiator.strengthPoints;\r\n        uint256 p2GlaPts = registeredPlayers[p2].gladiator.strengthPoints;\r\n\r\n        if(p1GlaPts >= p2GlaPts){ \r\n            return p1;\r\n        } else if(p1GlaPts < p2GlaPts){\r\n            return p2;\r\n        }\r\n\r\n        return address(0);\r\n    }\r\n\r\n    //Get my data\r\n    function getMyData() external view returns(Player memory){\r\n        return registeredPlayers[msg.sender];\r\n    }\r\n\r\n    function getMyTokenAddress() external view returns(address){\r\n        return address(myToken);\r\n    }\r\n\r\n    //setters\r\n    function setNewElement(uint256 amount, uint256 points) private {\r\n        Player storage currentPlayer = registeredPlayers[msg.sender];\r\n        myToken.sendTokens(msg.sender, address(myToken), amount);\r\n        currentPlayer.tokens = myToken.balanceOf(msg.sender);\r\n        currentPlayer.gladiator.strengthPoints += points;\r\n    }\r\n}",
  "sourcePath": "D:\\Documentos\\END\\curso\\Tema_5\\ERC721\\src\\contracts\\game.sol",
  "compiler": {
    "name": "solc",
    "version": "0.8.17+commit.8df45f5f.Emscripten.clang"
  },
  "schemaVersion": "3.4.8",
  "updatedAt": "2023-04-11T14:41:58.290Z",
  "networkType": "ethereum",
  "devdoc": {
    "kind": "dev",
    "methods": {},
    "version": 1
  },
  "userdoc": {
    "kind": "user",
    "methods": {},
    "version": 1
  }
}