{
  "contractName": "MyToken",
  "abi": [
    {
      "inputs": [],
      "stateMutability": "nonpayable",
      "type": "constructor"
    },
    {
      "anonymous": false,
      "inputs": [
        {
          "indexed": true,
          "internalType": "address",
          "name": "owner",
          "type": "address"
        },
        {
          "indexed": true,
          "internalType": "address",
          "name": "spender",
          "type": "address"
        },
        {
          "indexed": false,
          "internalType": "uint256",
          "name": "value",
          "type": "uint256"
        }
      ],
      "name": "Approval",
      "type": "event"
    },
    {
      "anonymous": false,
      "inputs": [
        {
          "indexed": true,
          "internalType": "address",
          "name": "from",
          "type": "address"
        },
        {
          "indexed": true,
          "internalType": "address",
          "name": "to",
          "type": "address"
        },
        {
          "indexed": false,
          "internalType": "uint256",
          "name": "value",
          "type": "uint256"
        }
      ],
      "name": "Transfer",
      "type": "event"
    },
    {
      "inputs": [
        {
          "internalType": "address",
          "name": "owner",
          "type": "address"
        },
        {
          "internalType": "address",
          "name": "spender",
          "type": "address"
        }
      ],
      "name": "allowance",
      "outputs": [
        {
          "internalType": "uint256",
          "name": "",
          "type": "uint256"
        }
      ],
      "stateMutability": "view",
      "type": "function",
      "constant": true
    },
    {
      "inputs": [
        {
          "internalType": "address",
          "name": "spender",
          "type": "address"
        },
        {
          "internalType": "uint256",
          "name": "amount",
          "type": "uint256"
        }
      ],
      "name": "approve",
      "outputs": [
        {
          "internalType": "bool",
          "name": "",
          "type": "bool"
        }
      ],
      "stateMutability": "nonpayable",
      "type": "function"
    },
    {
      "inputs": [
        {
          "internalType": "address",
          "name": "account",
          "type": "address"
        }
      ],
      "name": "balanceOf",
      "outputs": [
        {
          "internalType": "uint256",
          "name": "",
          "type": "uint256"
        }
      ],
      "stateMutability": "view",
      "type": "function",
      "constant": true
    },
    {
      "inputs": [],
      "name": "decimals",
      "outputs": [
        {
          "internalType": "uint8",
          "name": "",
          "type": "uint8"
        }
      ],
      "stateMutability": "view",
      "type": "function",
      "constant": true
    },
    {
      "inputs": [
        {
          "internalType": "address",
          "name": "spender",
          "type": "address"
        },
        {
          "internalType": "uint256",
          "name": "subtractedValue",
          "type": "uint256"
        }
      ],
      "name": "decreaseAllowance",
      "outputs": [
        {
          "internalType": "bool",
          "name": "",
          "type": "bool"
        }
      ],
      "stateMutability": "nonpayable",
      "type": "function"
    },
    {
      "inputs": [
        {
          "internalType": "address",
          "name": "spender",
          "type": "address"
        },
        {
          "internalType": "uint256",
          "name": "addedValue",
          "type": "uint256"
        }
      ],
      "name": "increaseAllowance",
      "outputs": [
        {
          "internalType": "bool",
          "name": "",
          "type": "bool"
        }
      ],
      "stateMutability": "nonpayable",
      "type": "function"
    },
    {
      "inputs": [],
      "name": "name",
      "outputs": [
        {
          "internalType": "string",
          "name": "",
          "type": "string"
        }
      ],
      "stateMutability": "view",
      "type": "function",
      "constant": true
    },
    {
      "inputs": [],
      "name": "symbol",
      "outputs": [
        {
          "internalType": "string",
          "name": "",
          "type": "string"
        }
      ],
      "stateMutability": "view",
      "type": "function",
      "constant": true
    },
    {
      "inputs": [],
      "name": "totalSupply",
      "outputs": [
        {
          "internalType": "uint256",
          "name": "",
          "type": "uint256"
        }
      ],
      "stateMutability": "view",
      "type": "function",
      "constant": true
    },
    {
      "inputs": [
        {
          "internalType": "address",
          "name": "to",
          "type": "address"
        },
        {
          "internalType": "uint256",
          "name": "amount",
          "type": "uint256"
        }
      ],
      "name": "transfer",
      "outputs": [
        {
          "internalType": "bool",
          "name": "",
          "type": "bool"
        }
      ],
      "stateMutability": "nonpayable",
      "type": "function"
    },
    {
      "inputs": [
        {
          "internalType": "address",
          "name": "from",
          "type": "address"
        },
        {
          "internalType": "address",
          "name": "to",
          "type": "address"
        },
        {
          "internalType": "uint256",
          "name": "amount",
          "type": "uint256"
        }
      ],
      "name": "transferFrom",
      "outputs": [
        {
          "internalType": "bool",
          "name": "",
          "type": "bool"
        }
      ],
      "stateMutability": "nonpayable",
      "type": "function"
    },
    {
      "inputs": [
        {
          "internalType": "address",
          "name": "receiver",
          "type": "address"
        },
        {
          "internalType": "uint256",
          "name": "amount",
          "type": "uint256"
        }
      ],
      "name": "mint",
      "outputs": [],
      "stateMutability": "nonpayable",
      "type": "function"
    },
    {
      "inputs": [
        {
          "internalType": "uint256",
          "name": "amount",
          "type": "uint256"
        }
      ],
      "name": "buyTokens",
      "outputs": [],
      "stateMutability": "payable",
      "type": "function",
      "payable": true
    },
    {
      "inputs": [
        {
          "internalType": "address",
          "name": "from",
          "type": "address"
        },
        {
          "internalType": "address",
          "name": "receiver",
          "type": "address"
        },
        {
          "internalType": "uint256",
          "name": "amount",
          "type": "uint256"
        }
      ],
      "name": "sendTokens",
      "outputs": [],
      "stateMutability": "nonpayable",
      "type": "function"
    },
    {
      "inputs": [
        {
          "internalType": "address",
          "name": "newAddress",
          "type": "address"
        }
      ],
      "name": "setGladiatorAddress",
      "outputs": [
        {
          "internalType": "address",
          "name": "",
          "type": "address"
        }
      ],
      "stateMutability": "nonpayable",
      "type": "function"
    },
    {
      "inputs": [],
      "name": "getGladiatorAddress",
      "outputs": [
        {
          "internalType": "address",
          "name": "",
          "type": "address"
        }
      ],
      "stateMutability": "view",
      "type": "function",
      "constant": true
    }
  ],
  "bytecode": "0x6080604052662386f26fc100006007553480156200001c57600080fd5b506040518060400160405280600781526020017f6d79546f6b656e000000000000000000000000000000000000000000000000008152506040518060400160405280600381526020017f4d544b000000000000000000000000000000000000000000000000000000000081525081600390816200009a919062000503565b508060049081620000ac919062000503565b50505033600560006101000a81548173ffffffffffffffffffffffffffffffffffffffff021916908373ffffffffffffffffffffffffffffffffffffffff1602179055506200010c3069d3c21bcecceda10000006200011260201b60201c565b62000705565b600073ffffffffffffffffffffffffffffffffffffffff168273ffffffffffffffffffffffffffffffffffffffff160362000184576040517f08c379a00000000000000000000000000000000000000000000000000000000081526004016200017b906200064b565b60405180910390fd5b62000198600083836200027f60201b60201c565b8060026000828254620001ac91906200069c565b92505081905550806000808473ffffffffffffffffffffffffffffffffffffffff1673ffffffffffffffffffffffffffffffffffffffff168152602001908152602001600020600082825401925050819055508173ffffffffffffffffffffffffffffffffffffffff16600073ffffffffffffffffffffffffffffffffffffffff167fddf252ad1be2c89b69c2b068fc378daa952ba7f163c4a11628f55a4df523b3ef836040516200025f9190620006e8565b60405180910390a36200027b600083836200028460201b60201c565b5050565b505050565b505050565b600081519050919050565b7f4e487b7100000000000000000000000000000000000000000000000000000000600052604160045260246000fd5b7f4e487b7100000000000000000000000000000000000000000000000000000000600052602260045260246000fd5b600060028204905060018216806200030b57607f821691505b602082108103620003215762000320620002c3565b5b50919050565b60008190508160005260206000209050919050565b60006020601f8301049050919050565b600082821b905092915050565b6000600883026200038b7fffffffffffffffffffffffffffffffffffffffffffffffffffffffffffffffff826200034c565b6200039786836200034c565b95508019841693508086168417925050509392505050565b6000819050919050565b6000819050919050565b6000620003e4620003de620003d884620003af565b620003b9565b620003af565b9050919050565b6000819050919050565b6200040083620003c3565b620004186200040f82620003eb565b84845462000359565b825550505050565b600090565b6200042f62000420565b6200043c818484620003f5565b505050565b5b8181101562000464576200045860008262000425565b60018101905062000442565b5050565b601f821115620004b3576200047d8162000327565b62000488846200033c565b8101602085101562000498578190505b620004b0620004a7856200033c565b83018262000441565b50505b505050565b600082821c905092915050565b6000620004d860001984600802620004b8565b1980831691505092915050565b6000620004f38383620004c5565b9150826002028217905092915050565b6200050e8262000289565b67ffffffffffffffff8111156200052a576200052962000294565b5b620005368254620002f2565b6200054382828562000468565b600060209050601f8311600181146200057b576000841562000566578287015190505b620005728582620004e5565b865550620005e2565b601f1984166200058b8662000327565b60005b82811015620005b5578489015182556001820191506020850194506020810190506200058e565b86831015620005d55784890151620005d1601f891682620004c5565b8355505b6001600288020188555050505b505050505050565b600082825260208201905092915050565b7f45524332303a206d696e7420746f20746865207a65726f206164647265737300600082015250565b600062000633601f83620005ea565b91506200064082620005fb565b602082019050919050565b60006020820190508181036000830152620006668162000624565b9050919050565b7f4e487b7100000000000000000000000000000000000000000000000000000000600052601160045260246000fd5b6000620006a982620003af565b9150620006b683620003af565b9250828201905080821115620006d157620006d06200066d565b5b92915050565b620006e281620003af565b82525050565b6000602082019050620006ff6000830184620006d7565b92915050565b611d8180620007156000396000f3fe6080604052600436106100f35760003560e01c806340c10f191161008a578063a9059cbb11610059578063a9059cbb14610345578063ce50b84714610382578063dd62ed3e146103bf578063e6d66ac8146103fc576100f3565b806340c10f191461027757806370a08231146102a057806395d89b41146102dd578063a457c2d714610308576100f3565b8063273470e5116100c6578063273470e5146101c8578063313ce567146101f35780633610724e1461021e578063395093511461023a576100f3565b806306fdde03146100f8578063095ea7b31461012357806318160ddd1461016057806323b872dd1461018b575b600080fd5b34801561010457600080fd5b5061010d610425565b60405161011a9190611271565b60405180910390f35b34801561012f57600080fd5b5061014a6004803603810190610145919061132c565b6104b7565b6040516101579190611387565b60405180910390f35b34801561016c57600080fd5b506101756104da565b60405161018291906113b1565b60405180910390f35b34801561019757600080fd5b506101b260048036038101906101ad91906113cc565b6104e4565b6040516101bf9190611387565b60405180910390f35b3480156101d457600080fd5b506101dd610513565b6040516101ea919061142e565b60405180910390f35b3480156101ff57600080fd5b5061020861053d565b6040516102159190611465565b60405180910390f35b61023860048036038101906102339190611480565b610546565b005b34801561024657600080fd5b50610261600480360381019061025c919061132c565b6106d6565b60405161026e9190611387565b60405180910390f35b34801561028357600080fd5b5061029e6004803603810190610299919061132c565b61070d565b005b3480156102ac57600080fd5b506102c760048036038101906102c291906114ad565b610803565b6040516102d491906113b1565b60405180910390f35b3480156102e957600080fd5b506102f261084b565b6040516102ff9190611271565b60405180910390f35b34801561031457600080fd5b5061032f600480360381019061032a919061132c565b6108dd565b60405161033c9190611387565b60405180910390f35b34801561035157600080fd5b5061036c6004803603810190610367919061132c565b610954565b6040516103799190611387565b60405180910390f35b34801561038e57600080fd5b506103a960048036038101906103a491906114ad565b610977565b6040516103b6919061142e565b60405180910390f35b3480156103cb57600080fd5b506103e660048036038101906103e191906114da565b610acc565b6040516103f391906113b1565b60405180910390f35b34801561040857600080fd5b50610423600480360381019061041e91906113cc565b610b53565b005b60606003805461043490611549565b80601f016020809104026020016040519081016040528092919081815260200182805461046090611549565b80156104ad5780601f10610482576101008083540402835291602001916104ad565b820191906000526020600020905b81548152906001019060200180831161049057829003601f168201915b5050505050905090565b6000806104c2610bae565b90506104cf818585610bb6565b600191505092915050565b6000600254905090565b6000806104ef610bae565b90506104fc858285610d7f565b610507858585610e0b565b60019150509392505050565b6000600660009054906101000a900473ffffffffffffffffffffffffffffffffffffffff16905090565b60006012905090565b8061055030610803565b1015610591576040517f08c379a0000000000000000000000000000000000000000000000000000000008152600401610588906115ec565b60405180910390fd5b6000600754670de0b6b3a7640000836105aa919061166a565b6105b4919061169b565b90508034146105f8576040517f08c379a00000000000000000000000000000000000000000000000000000000081526004016105ef90611729565b60405180910390fd5b6000600560009054906101000a900473ffffffffffffffffffffffffffffffffffffffff1673ffffffffffffffffffffffffffffffffffffffff16346040516106409061177a565b60006040518083038185875af1925050503d806000811461067d576040519150601f19603f3d011682016040523d82523d6000602084013e610682565b606091505b50509050806106c6576040517f08c379a00000000000000000000000000000000000000000000000000000000081526004016106bd906117db565b60405180910390fd5b6106d1303385610e0b565b505050565b6000806106e1610bae565b90506107028185856106f38589610acc565b6106fd91906117fb565b610bb6565b600191505092915050565b600560009054906101000a900473ffffffffffffffffffffffffffffffffffffffff1673ffffffffffffffffffffffffffffffffffffffff163373ffffffffffffffffffffffffffffffffffffffff1614806107b65750600660009054906101000a900473ffffffffffffffffffffffffffffffffffffffff1673ffffffffffffffffffffffffffffffffffffffff163373ffffffffffffffffffffffffffffffffffffffff16145b6107f5576040517f08c379a00000000000000000000000000000000000000000000000000000000081526004016107ec9061187b565b60405180910390fd5b6107ff8282611081565b5050565b60008060008373ffffffffffffffffffffffffffffffffffffffff1673ffffffffffffffffffffffffffffffffffffffff168152602001908152602001600020549050919050565b60606004805461085a90611549565b80601f016020809104026020016040519081016040528092919081815260200182805461088690611549565b80156108d35780601f106108a8576101008083540402835291602001916108d3565b820191906000526020600020905b8154815290600101906020018083116108b657829003601f168201915b5050505050905090565b6000806108e8610bae565b905060006108f68286610acc565b90508381101561093b576040517f08c379a00000000000000000000000000000000000000000000000000000000081526004016109329061190d565b60405180910390fd5b6109488286868403610bb6565b60019250505092915050565b60008061095f610bae565b905061096c818585610e0b565b600191505092915050565b6000600560009054906101000a900473ffffffffffffffffffffffffffffffffffffffff1673ffffffffffffffffffffffffffffffffffffffff163373ffffffffffffffffffffffffffffffffffffffff161480610a225750600660009054906101000a900473ffffffffffffffffffffffffffffffffffffffff1673ffffffffffffffffffffffffffffffffffffffff163373ffffffffffffffffffffffffffffffffffffffff16145b610a61576040517f08c379a0000000000000000000000000000000000000000000000000000000008152600401610a589061187b565b60405180910390fd5b81600660006101000a81548173ffffffffffffffffffffffffffffffffffffffff021916908373ffffffffffffffffffffffffffffffffffffffff160217905550600660009054906101000a900473ffffffffffffffffffffffffffffffffffffffff169050919050565b6000600160008473ffffffffffffffffffffffffffffffffffffffff1673ffffffffffffffffffffffffffffffffffffffff16815260200190815260200160002060008373ffffffffffffffffffffffffffffffffffffffff1673ffffffffffffffffffffffffffffffffffffffff16815260200190815260200160002054905092915050565b80610b5d84610803565b1015610b9e576040517f08c379a0000000000000000000000000000000000000000000000000000000008152600401610b9590611979565b60405180910390fd5b610ba9838383610e0b565b505050565b600033905090565b600073ffffffffffffffffffffffffffffffffffffffff168373ffffffffffffffffffffffffffffffffffffffff1603610c25576040517f08c379a0000000000000000000000000000000000000000000000000000000008152600401610c1c90611a0b565b60405180910390fd5b600073ffffffffffffffffffffffffffffffffffffffff168273ffffffffffffffffffffffffffffffffffffffff1603610c94576040517f08c379a0000000000000000000000000000000000000000000000000000000008152600401610c8b90611a9d565b60405180910390fd5b80600160008573ffffffffffffffffffffffffffffffffffffffff1673ffffffffffffffffffffffffffffffffffffffff16815260200190815260200160002060008473ffffffffffffffffffffffffffffffffffffffff1673ffffffffffffffffffffffffffffffffffffffff168152602001908152602001600020819055508173ffffffffffffffffffffffffffffffffffffffff168373ffffffffffffffffffffffffffffffffffffffff167f8c5be1e5ebec7d5bd14f71427d1e84f3dd0314c0f7b2291e5b200ac8c7c3b92583604051610d7291906113b1565b60405180910390a3505050565b6000610d8b8484610acc565b90507fffffffffffffffffffffffffffffffffffffffffffffffffffffffffffffffff8114610e055781811015610df7576040517f08c379a0000000000000000000000000000000000000000000000000000000008152600401610dee90611b09565b60405180910390fd5b610e048484848403610bb6565b5b50505050565b600073ffffffffffffffffffffffffffffffffffffffff168373ffffffffffffffffffffffffffffffffffffffff1603610e7a576040517f08c379a0000000000000000000000000000000000000000000000000000000008152600401610e7190611b9b565b60405180910390fd5b600073ffffffffffffffffffffffffffffffffffffffff168273ffffffffffffffffffffffffffffffffffffffff1603610ee9576040517f08c379a0000000000000000000000000000000000000000000000000000000008152600401610ee090611c2d565b60405180910390fd5b610ef48383836111d7565b60008060008573ffffffffffffffffffffffffffffffffffffffff1673ffffffffffffffffffffffffffffffffffffffff16815260200190815260200160002054905081811015610f7a576040517f08c379a0000000000000000000000000000000000000000000000000000000008152600401610f7190611cbf565b60405180910390fd5b8181036000808673ffffffffffffffffffffffffffffffffffffffff1673ffffffffffffffffffffffffffffffffffffffff16815260200190815260200160002081905550816000808573ffffffffffffffffffffffffffffffffffffffff1673ffffffffffffffffffffffffffffffffffffffff168152602001908152602001600020600082825401925050819055508273ffffffffffffffffffffffffffffffffffffffff168473ffffffffffffffffffffffffffffffffffffffff167fddf252ad1be2c89b69c2b068fc378daa952ba7f163c4a11628f55a4df523b3ef8460405161106891906113b1565b60405180910390a361107b8484846111dc565b50505050565b600073ffffffffffffffffffffffffffffffffffffffff168273ffffffffffffffffffffffffffffffffffffffff16036110f0576040517f08c379a00000000000000000000000000000000000000000000000000000000081526004016110e790611d2b565b60405180910390fd5b6110fc600083836111d7565b806002600082825461110e91906117fb565b92505081905550806000808473ffffffffffffffffffffffffffffffffffffffff1673ffffffffffffffffffffffffffffffffffffffff168152602001908152602001600020600082825401925050819055508173ffffffffffffffffffffffffffffffffffffffff16600073ffffffffffffffffffffffffffffffffffffffff167fddf252ad1be2c89b69c2b068fc378daa952ba7f163c4a11628f55a4df523b3ef836040516111bf91906113b1565b60405180910390a36111d3600083836111dc565b5050565b505050565b505050565b600081519050919050565b600082825260208201905092915050565b60005b8381101561121b578082015181840152602081019050611200565b60008484015250505050565b6000601f19601f8301169050919050565b6000611243826111e1565b61124d81856111ec565b935061125d8185602086016111fd565b61126681611227565b840191505092915050565b6000602082019050818103600083015261128b8184611238565b905092915050565b600080fd5b600073ffffffffffffffffffffffffffffffffffffffff82169050919050565b60006112c382611298565b9050919050565b6112d3816112b8565b81146112de57600080fd5b50565b6000813590506112f0816112ca565b92915050565b6000819050919050565b611309816112f6565b811461131457600080fd5b50565b60008135905061132681611300565b92915050565b6000806040838503121561134357611342611293565b5b6000611351858286016112e1565b925050602061136285828601611317565b9150509250929050565b60008115159050919050565b6113818161136c565b82525050565b600060208201905061139c6000830184611378565b92915050565b6113ab816112f6565b82525050565b60006020820190506113c660008301846113a2565b92915050565b6000806000606084860312156113e5576113e4611293565b5b60006113f3868287016112e1565b9350506020611404868287016112e1565b925050604061141586828701611317565b9150509250925092565b611428816112b8565b82525050565b6000602082019050611443600083018461141f565b92915050565b600060ff82169050919050565b61145f81611449565b82525050565b600060208201905061147a6000830184611456565b92915050565b60006020828403121561149657611495611293565b5b60006114a484828501611317565b91505092915050565b6000602082840312156114c3576114c2611293565b5b60006114d1848285016112e1565b91505092915050565b600080604083850312156114f1576114f0611293565b5b60006114ff858286016112e1565b9250506020611510858286016112e1565b9150509250929050565b7f4e487b7100000000000000000000000000000000000000000000000000000000600052602260045260246000fd5b6000600282049050600182168061156157607f821691505b6020821081036115745761157361151a565b5b50919050565b7f416d6f756e74206578636565647320636f6e747261637427732062616c616e6360008201527f6500000000000000000000000000000000000000000000000000000000000000602082015250565b60006115d66021836111ec565b91506115e18261157a565b604082019050919050565b60006020820190508181036000830152611605816115c9565b9050919050565b7f4e487b7100000000000000000000000000000000000000000000000000000000600052601260045260246000fd5b7f4e487b7100000000000000000000000000000000000000000000000000000000600052601160045260246000fd5b6000611675826112f6565b9150611680836112f6565b9250826116905761168f61160c565b5b828204905092915050565b60006116a6826112f6565b91506116b1836112f6565b92508282026116bf816112f6565b915082820484148315176116d6576116d561163b565b5b5092915050565b7f5072697a65206973206e6f7420636f7272656374000000000000000000000000600082015250565b60006117136014836111ec565b915061171e826116dd565b602082019050919050565b6000602082019050818103600083015261174281611706565b9050919050565b600081905092915050565b50565b6000611764600083611749565b915061176f82611754565b600082019050919050565b600061178582611757565b9150819050919050565b7f5061796d656e74206e6f7420636f6d706c657465640000000000000000000000600082015250565b60006117c56015836111ec565b91506117d08261178f565b602082019050919050565b600060208201905081810360008301526117f4816117b8565b9050919050565b6000611806826112f6565b9150611811836112f6565b92508282019050808211156118295761182861163b565b5b92915050565b7f556e617574686f72697a65640000000000000000000000000000000000000000600082015250565b6000611865600c836111ec565b91506118708261182f565b602082019050919050565b6000602082019050818103600083015261189481611858565b9050919050565b7f45524332303a2064656372656173656420616c6c6f77616e63652062656c6f7760008201527f207a65726f000000000000000000000000000000000000000000000000000000602082015250565b60006118f76025836111ec565b91506119028261189b565b604082019050919050565b60006020820190508181036000830152611926816118ea565b9050919050565b7f416d6f756e7420657863656564732073656e64657227732062616c616e636500600082015250565b6000611963601f836111ec565b915061196e8261192d565b602082019050919050565b6000602082019050818103600083015261199281611956565b9050919050565b7f45524332303a20617070726f76652066726f6d20746865207a65726f2061646460008201527f7265737300000000000000000000000000000000000000000000000000000000602082015250565b60006119f56024836111ec565b9150611a0082611999565b604082019050919050565b60006020820190508181036000830152611a24816119e8565b9050919050565b7f45524332303a20617070726f766520746f20746865207a65726f20616464726560008201527f7373000000000000000000000000000000000000000000000000000000000000602082015250565b6000611a876022836111ec565b9150611a9282611a2b565b604082019050919050565b60006020820190508181036000830152611ab681611a7a565b9050919050565b7f45524332303a20696e73756666696369656e7420616c6c6f77616e6365000000600082015250565b6000611af3601d836111ec565b9150611afe82611abd565b602082019050919050565b60006020820190508181036000830152611b2281611ae6565b9050919050565b7f45524332303a207472616e736665722066726f6d20746865207a65726f20616460008201527f6472657373000000000000000000000000000000000000000000000000000000602082015250565b6000611b856025836111ec565b9150611b9082611b29565b604082019050919050565b60006020820190508181036000830152611bb481611b78565b9050919050565b7f45524332303a207472616e7366657220746f20746865207a65726f206164647260008201527f6573730000000000000000000000000000000000000000000000000000000000602082015250565b6000611c176023836111ec565b9150611c2282611bbb565b604082019050919050565b60006020820190508181036000830152611c4681611c0a565b9050919050565b7f45524332303a207472616e7366657220616d6f756e742065786365656473206260008201527f616c616e63650000000000000000000000000000000000000000000000000000602082015250565b6000611ca96026836111ec565b9150611cb482611c4d565b604082019050919050565b60006020820190508181036000830152611cd881611c9c565b9050919050565b7f45524332303a206d696e7420746f20746865207a65726f206164647265737300600082015250565b6000611d15601f836111ec565b9150611d2082611cdf565b602082019050919050565b60006020820190508181036000830152611d4481611d08565b905091905056fea2646970667358221220f4da33d297640f16c8c1e83ffa6c051ef08b3eed7b557bd74760ba06cc14caa664736f6c63430008110033",
  "immutableReferences": {},
  "source": "//SPDX-License-Identifier: UNLICENSED\r\n\r\npragma solidity  ^0.8.17;\r\n\r\nimport \"../../node_modules/@openzeppelin/contracts/token/ERC20/ERC20.sol\";\r\n\r\ncontract MyToken is ERC20 {\r\n\r\n    address private owner;\r\n    address private gladiatorAddress;\r\n    uint256 private tokenPrize = 0.01 ether;\r\n\r\n    modifier onlyAuthorizedAccounts()  {\r\n        require(msg.sender == owner || msg.sender == gladiatorAddress, \"Unauthorized\");\r\n        _;\r\n    }\r\n\r\n    constructor() ERC20(\"myToken\", \"MTK\"){\r\n        owner = msg.sender;\r\n        _mint(address(this), 1000000 * 10 ** 18);\r\n    }\r\n\r\n    function mint(address receiver, uint256 amount) external onlyAuthorizedAccounts{\r\n        _mint(receiver, amount);\r\n    }\r\n\r\n    //buy token\r\n    function buyTokens(uint256 amount) external payable { //Payable permite que una funcin o una address reciba ether en el propio contrato.\r\n                                                          //La funcin recibe ether del msg.sender para pagar los tokens, y el owner recibe dicho ether\r\n        require(balanceOf(address(this)) >= amount, \"Amount exceeds contract's balance\");\r\n        uint256 totalToPay = (amount / 1 ether) * tokenPrize;\r\n        require(msg.value == totalToPay, \"Prize is not correct\");\r\n        (bool sent, ) = payable(owner).call{value: msg.value}(\"\"); //call es una funcin de bajo nivel que se usa para interactuar con otros contratos. \r\n                                                                    //Puede ser insegura por lo que hay que hacer un uso muy controlado de ella.\r\n                                                                    //Existen otras formas de mandar ether a contratos que seran send y trnasfer, pero \r\n                                                                    //no se recomiendan.\r\n        require(sent, \"Payment not completed\");\r\n        _transfer(address(this), msg.sender, amount);\r\n    }\r\n\r\n    //Send token to other accounts (send totken to friends, reward when player wins a fight)\r\n    function sendTokens(address from, address receiver, uint256 amount) external {\r\n        require(balanceOf(from) >= amount, \"Amount exceeds sender's balance\");\r\n        _transfer(from, receiver, amount);\r\n    }\r\n\r\n    function setGladiatorAddress(address newAddress) external onlyAuthorizedAccounts returns(address) {\r\n        gladiatorAddress = newAddress;\r\n        //Event\r\n        return gladiatorAddress;\r\n    }\r\n\r\n    function getGladiatorAddress() external view returns(address){\r\n        return gladiatorAddress;\r\n    }\r\n\r\n}",
  "sourcePath": "D:\\Documentos\\END\\curso\\Tema_5\\ERC721\\src\\contracts\\myToken.sol",
  "compiler": {
    "name": "solc",
    "version": "0.8.17+commit.8df45f5f.Emscripten.clang"
  },
  "schemaVersion": "3.4.8",
  "updatedAt": "2023-04-11T14:41:58.259Z",
  "networkType": "ethereum",
  "devdoc": {
    "kind": "dev",
    "methods": {
      "allowance(address,address)": {
        "details": "See {IERC20-allowance}."
      },
      "approve(address,uint256)": {
        "details": "See {IERC20-approve}. NOTE: If `amount` is the maximum `uint256`, the allowance is not updated on `transferFrom`. This is semantically equivalent to an infinite approval. Requirements: - `spender` cannot be the zero address."
      },
      "balanceOf(address)": {
        "details": "See {IERC20-balanceOf}."
      },
      "decimals()": {
        "details": "Returns the number of decimals used to get its user representation. For example, if `decimals` equals `2`, a balance of `505` tokens should be displayed to a user as `5.05` (`505 / 10 ** 2`). Tokens usually opt for a value of 18, imitating the relationship between Ether and Wei. This is the value {ERC20} uses, unless this function is overridden; NOTE: This information is only used for _display_ purposes: it in no way affects any of the arithmetic of the contract, including {IERC20-balanceOf} and {IERC20-transfer}."
      },
      "decreaseAllowance(address,uint256)": {
        "details": "Atomically decreases the allowance granted to `spender` by the caller. This is an alternative to {approve} that can be used as a mitigation for problems described in {IERC20-approve}. Emits an {Approval} event indicating the updated allowance. Requirements: - `spender` cannot be the zero address. - `spender` must have allowance for the caller of at least `subtractedValue`."
      },
      "increaseAllowance(address,uint256)": {
        "details": "Atomically increases the allowance granted to `spender` by the caller. This is an alternative to {approve} that can be used as a mitigation for problems described in {IERC20-approve}. Emits an {Approval} event indicating the updated allowance. Requirements: - `spender` cannot be the zero address."
      },
      "name()": {
        "details": "Returns the name of the token."
      },
      "symbol()": {
        "details": "Returns the symbol of the token, usually a shorter version of the name."
      },
      "totalSupply()": {
        "details": "See {IERC20-totalSupply}."
      },
      "transfer(address,uint256)": {
        "details": "See {IERC20-transfer}. Requirements: - `to` cannot be the zero address. - the caller must have a balance of at least `amount`."
      },
      "transferFrom(address,address,uint256)": {
        "details": "See {IERC20-transferFrom}. Emits an {Approval} event indicating the updated allowance. This is not required by the EIP. See the note at the beginning of {ERC20}. NOTE: Does not update the allowance if the current allowance is the maximum `uint256`. Requirements: - `from` and `to` cannot be the zero address. - `from` must have a balance of at least `amount`. - the caller must have allowance for ``from``'s tokens of at least `amount`."
      }
    },
    "version": 1
  },
  "userdoc": {
    "kind": "user",
    "methods": {},
    "version": 1
  }
}