{
  "contractName": "GladiatorsGame",
  "abi": [
    {
      "inputs": [
        {
          "internalType": "address",
          "name": "mtkAddress",
          "type": "address"
        }
      ],
      "stateMutability": "nonpayable",
      "type": "constructor"
    },
    {
      "inputs": [],
      "name": "nonValidSkin",
      "type": "error"
    },
    {
      "inputs": [],
      "name": "nonValidWeapon",
      "type": "error"
    },
    {
      "inputs": [],
      "name": "startGame",
      "outputs": [],
      "stateMutability": "nonpayable",
      "type": "function"
    },
    {
      "inputs": [],
      "name": "registerPlayer",
      "outputs": [],
      "stateMutability": "nonpayable",
      "type": "function"
    },
    {
      "inputs": [
        {
          "internalType": "enum GladiatorsGame.Skin",
          "name": "newSkin",
          "type": "uint8"
        },
        {
          "internalType": "enum GladiatorsGame.Weapon",
          "name": "newWeapon",
          "type": "uint8"
        }
      ],
      "name": "createGladiator",
      "outputs": [],
      "stateMutability": "nonpayable",
      "type": "function"
    },
    {
      "inputs": [],
      "name": "fight",
      "outputs": [
        {
          "components": [
            {
              "internalType": "address",
              "name": "id",
              "type": "address"
            },
            {
              "internalType": "uint256",
              "name": "tokens",
              "type": "uint256"
            },
            {
              "internalType": "bool",
              "name": "active",
              "type": "bool"
            },
            {
              "components": [
                {
                  "internalType": "enum GladiatorsGame.Skin",
                  "name": "skin",
                  "type": "uint8"
                },
                {
                  "internalType": "enum GladiatorsGame.Weapon",
                  "name": "weapon",
                  "type": "uint8"
                },
                {
                  "internalType": "uint256",
                  "name": "strengthPoints",
                  "type": "uint256"
                },
                {
                  "internalType": "bool",
                  "name": "isActive",
                  "type": "bool"
                }
              ],
              "internalType": "struct GladiatorsGame.Gladiator",
              "name": "gladiator",
              "type": "tuple"
            }
          ],
          "internalType": "struct GladiatorsGame.Player",
          "name": "",
          "type": "tuple"
        }
      ],
      "stateMutability": "nonpayable",
      "type": "function"
    },
    {
      "inputs": [],
      "name": "getMyData",
      "outputs": [
        {
          "components": [
            {
              "internalType": "address",
              "name": "id",
              "type": "address"
            },
            {
              "internalType": "uint256",
              "name": "tokens",
              "type": "uint256"
            },
            {
              "internalType": "bool",
              "name": "active",
              "type": "bool"
            },
            {
              "components": [
                {
                  "internalType": "enum GladiatorsGame.Skin",
                  "name": "skin",
                  "type": "uint8"
                },
                {
                  "internalType": "enum GladiatorsGame.Weapon",
                  "name": "weapon",
                  "type": "uint8"
                },
                {
                  "internalType": "uint256",
                  "name": "strengthPoints",
                  "type": "uint256"
                },
                {
                  "internalType": "bool",
                  "name": "isActive",
                  "type": "bool"
                }
              ],
              "internalType": "struct GladiatorsGame.Gladiator",
              "name": "gladiator",
              "type": "tuple"
            }
          ],
          "internalType": "struct GladiatorsGame.Player",
          "name": "",
          "type": "tuple"
        }
      ],
      "stateMutability": "view",
      "type": "function",
      "constant": true
    }
  ],
  "bytecode": "0x608060405260006003553480156200001657600080fd5b50604051620025233803806200252383398181016040528101906200003c91906200012e565b336000806101000a81548173ffffffffffffffffffffffffffffffffffffffff021916908373ffffffffffffffffffffffffffffffffffffffff16021790555080600460016101000a81548173ffffffffffffffffffffffffffffffffffffffff021916908373ffffffffffffffffffffffffffffffffffffffff1602179055505062000160565b600080fd5b600073ffffffffffffffffffffffffffffffffffffffff82169050919050565b6000620000f682620000c9565b9050919050565b6200010881620000e9565b81146200011457600080fd5b50565b6000815190506200012881620000fd565b92915050565b600060208284031215620001475762000146620000c4565b5b6000620001578482850162000117565b91505092915050565b6123b380620001706000396000f3fe608060405234801561001057600080fd5b50600436106100575760003560e01c8063457df8de1461005c5780635c07a4b01461007a5780638f8f08d214610084578063d65ab5f2146100a0578063d9c8a38b146100aa575b600080fd5b6100646100c8565b6040516100719190611b45565b60405180910390f35b610082610afa565b005b61009e60048036038101906100999190611baf565b610e29565b005b6100a861133a565b005b6100b26114e3565b6040516100bf9190611b45565b60405180910390f35b6100d06118d3565b600560003373ffffffffffffffffffffffffffffffffffffffff1673ffffffffffffffffffffffffffffffffffffffff16815260200190815260200160002060020160009054906101000a900460ff1661015f576040517f08c379a000000000000000000000000000000000000000000000000000000000815260040161015690611c4c565b60405180910390fd5b600560003373ffffffffffffffffffffffffffffffffffffffff1673ffffffffffffffffffffffffffffffffffffffff16815260200190815260200160002060030160020160009054906101000a900460ff166101f1576040517f08c379a00000000000000000000000000000000000000000000000000000000081526004016101e890611cb8565b60405180910390fd5b600073ffffffffffffffffffffffffffffffffffffffff16600160009054906101000a900473ffffffffffffffffffffffffffffffffffffffff1673ffffffffffffffffffffffffffffffffffffffff16148061029c5750600073ffffffffffffffffffffffffffffffffffffffff16600260009054906101000a900473ffffffffffffffffffffffffffffffffffffffff1673ffffffffffffffffffffffffffffffffffffffff16145b6102db576040517f08c379a00000000000000000000000000000000000000000000000000000000081526004016102d290611d24565b60405180910390fd5b6000600560003373ffffffffffffffffffffffffffffffffffffffff1673ffffffffffffffffffffffffffffffffffffffff1681526020019081526020016000209050600581600101541015610366576040517f08c379a000000000000000000000000000000000000000000000000000000000815260040161035d90611db6565b60405180910390fd5b600460019054906101000a900473ffffffffffffffffffffffffffffffffffffffff1673ffffffffffffffffffffffffffffffffffffffff1663d05210d1333060056040518463ffffffff1660e01b81526004016103c693929190611e2a565b600060405180830381600087803b1580156103e057600080fd5b505af11580156103f4573d6000803e3d6000fd5b50505050600460019054906101000a900473ffffffffffffffffffffffffffffffffffffffff1673ffffffffffffffffffffffffffffffffffffffff166370a08231336040518263ffffffff1660e01b81526004016104539190611e61565b602060405180830381865afa158015610470573d6000803e3d6000fd5b505050506040513d601f19601f820116820180604052508101906104949190611ea8565b816001018190555060058160010160008282546104b19190611f04565b925050819055506005600360008282546104cb9190611f38565b92505081905550600073ffffffffffffffffffffffffffffffffffffffff16600160009054906101000a900473ffffffffffffffffffffffffffffffffffffffff1673ffffffffffffffffffffffffffffffffffffffff160361056e5733600160006101000a81548173ffffffffffffffffffffffffffffffffffffffff021916908373ffffffffffffffffffffffffffffffffffffffff16021790555061097f565b33600260006101000a81548173ffffffffffffffffffffffffffffffffffffffff021916908373ffffffffffffffffffffffffffffffffffffffff16021790555060006105ff600160009054906101000a900473ffffffffffffffffffffffffffffffffffffffff16600260009054906101000a900473ffffffffffffffffffffffffffffffffffffffff16611664565b9050600460019054906101000a900473ffffffffffffffffffffffffffffffffffffffff1673ffffffffffffffffffffffffffffffffffffffff1663d05210d130836003546040518463ffffffff1660e01b815260040161066293929190611f7b565b600060405180830381600087803b15801561067c57600080fd5b505af1158015610690573d6000803e3d6000fd5b50505050600460019054906101000a900473ffffffffffffffffffffffffffffffffffffffff1673ffffffffffffffffffffffffffffffffffffffff166370a08231826040518263ffffffff1660e01b81526004016106ef9190611e61565b602060405180830381865afa15801561070c573d6000803e3d6000fd5b505050506040513d601f19601f820116820180604052508101906107309190611ea8565b600560008373ffffffffffffffffffffffffffffffffffffffff1673ffffffffffffffffffffffffffffffffffffffff1681526020019081526020016000206001018190555060006003819055506000600160006101000a81548173ffffffffffffffffffffffffffffffffffffffff021916908373ffffffffffffffffffffffffffffffffffffffff1602179055506000600260006101000a81548173ffffffffffffffffffffffffffffffffffffffff021916908373ffffffffffffffffffffffffffffffffffffffff160217905550600560008273ffffffffffffffffffffffffffffffffffffffff1673ffffffffffffffffffffffffffffffffffffffff1681526020019081526020016000206040518060800160405290816000820160009054906101000a900473ffffffffffffffffffffffffffffffffffffffff1673ffffffffffffffffffffffffffffffffffffffff1673ffffffffffffffffffffffffffffffffffffffff168152602001600182015481526020016002820160009054906101000a900460ff16151515158152602001600382016040518060800160405290816000820160009054906101000a900460ff1660028111156108fc576108fb6119dc565b5b600281111561090e5761090d6119dc565b5b81526020016000820160019054906101000a900460ff166002811115610937576109366119dc565b5b6002811115610949576109486119dc565b5b8152602001600182015481526020016002820160009054906101000a900460ff1615151515815250508152505092505050610af7565b600560008073ffffffffffffffffffffffffffffffffffffffff1673ffffffffffffffffffffffffffffffffffffffff1681526020019081526020016000206040518060800160405290816000820160009054906101000a900473ffffffffffffffffffffffffffffffffffffffff1673ffffffffffffffffffffffffffffffffffffffff1673ffffffffffffffffffffffffffffffffffffffff168152602001600182015481526020016002820160009054906101000a900460ff16151515158152602001600382016040518060800160405290816000820160009054906101000a900460ff166002811115610a7957610a786119dc565b5b6002811115610a8b57610a8a6119dc565b5b81526020016000820160019054906101000a900460ff166002811115610ab457610ab36119dc565b5b6002811115610ac657610ac56119dc565b5b8152602001600182015481526020016002820160009054906101000a900460ff161515151581525050815250509150505b90565b600460009054906101000a900460ff16610b49576040517f08c379a0000000000000000000000000000000000000000000000000000000008152600401610b4090611ffe565b60405180910390fd5b600560003373ffffffffffffffffffffffffffffffffffffffff1673ffffffffffffffffffffffffffffffffffffffff16815260200190815260200160002060020160009054906101000a900460ff1615610bd9576040517f08c379a0000000000000000000000000000000000000000000000000000000008152600401610bd09061206a565b60405180910390fd5b33600560003373ffffffffffffffffffffffffffffffffffffffff1673ffffffffffffffffffffffffffffffffffffffff16815260200190815260200160002060000160006101000a81548173ffffffffffffffffffffffffffffffffffffffff021916908373ffffffffffffffffffffffffffffffffffffffff160217905550600460019054906101000a900473ffffffffffffffffffffffffffffffffffffffff1673ffffffffffffffffffffffffffffffffffffffff166340c10f193360326040518363ffffffff1660e01b8152600401610cb89291906120c5565b600060405180830381600087803b158015610cd257600080fd5b505af1158015610ce6573d6000803e3d6000fd5b50505050600460019054906101000a900473ffffffffffffffffffffffffffffffffffffffff1673ffffffffffffffffffffffffffffffffffffffff166370a08231336040518263ffffffff1660e01b8152600401610d459190611e61565b602060405180830381865afa158015610d62573d6000803e3d6000fd5b505050506040513d601f19601f82011682018060405250810190610d869190611ea8565b600560003373ffffffffffffffffffffffffffffffffffffffff1673ffffffffffffffffffffffffffffffffffffffff168152602001908152602001600020600101819055506001600560003373ffffffffffffffffffffffffffffffffffffffff1673ffffffffffffffffffffffffffffffffffffffff16815260200190815260200160002060020160006101000a81548160ff021916908315150217905550565b6000600560003373ffffffffffffffffffffffffffffffffffffffff1673ffffffffffffffffffffffffffffffffffffffff16815260200190815260200160002090508060020160009054906101000a900460ff16610ebd576040517f08c379a0000000000000000000000000000000000000000000000000000000008152600401610eb49061213a565b60405180910390fd5b60006002811115610ed157610ed06119dc565b5b836002811115610ee457610ee36119dc565b5b03610f4e576005600f8260010154610efc9190611f04565b1015610f3d576040517f08c379a0000000000000000000000000000000000000000000000000000000008152600401610f34906121cc565b60405180910390fd5b610f49600f6001611716565b6110a3565b60016002811115610f6257610f616119dc565b5b836002811115610f7557610f746119dc565b5b03610fdf57600560198260010154610f8d9190611f04565b1015610fce576040517f08c379a0000000000000000000000000000000000000000000000000000000008152600401610fc5906121cc565b60405180910390fd5b610fda60196002611716565b6110a2565b600280811115610ff257610ff16119dc565b5b836002811115611005576110046119dc565b5b0361106f576005601e826001015461101d9190611f04565b101561105e576040517f08c379a0000000000000000000000000000000000000000000000000000000008152600401611055906121cc565b60405180910390fd5b61106a601e6003611716565b6110a1565b6040517ffb560e8000000000000000000000000000000000000000000000000000000000815260040160405180910390fd5b5b5b600060028111156110b7576110b66119dc565b5b8260028111156110ca576110c96119dc565b5b03611134576005600f82600101546110e29190611f04565b1015611123576040517f08c379a000000000000000000000000000000000000000000000000000000000815260040161111a906121cc565b60405180910390fd5b61112f600f6001611716565b611289565b60016002811115611148576111476119dc565b5b82600281111561115b5761115a6119dc565b5b036111c5576005601982600101546111739190611f04565b10156111b4576040517f08c379a00000000000000000000000000000000000000000000000000000000081526004016111ab906121cc565b60405180910390fd5b6111c060196002611716565b611288565b6002808111156111d8576111d76119dc565b5b8260028111156111eb576111ea6119dc565b5b03611255576005601e82600101546112039190611f04565b1015611244576040517f08c379a000000000000000000000000000000000000000000000000000000000815260040161123b906121cc565b60405180910390fd5b611250601e6003611716565b611287565b6040517fea87c8b600000000000000000000000000000000000000000000000000000000815260040160405180910390fd5b5b5b6002816001015461129a919061221b565b8160030160010160008282546112b09190611f38565b92505081905550828160030160000160006101000a81548160ff021916908360028111156112e1576112e06119dc565b5b0217905550818160030160000160016101000a81548160ff021916908360028111156113105761130f6119dc565b5b021790555060018160030160020160006101000a81548160ff021916908315150217905550505050565b60008054906101000a900473ffffffffffffffffffffffffffffffffffffffff1673ffffffffffffffffffffffffffffffffffffffff163373ffffffffffffffffffffffffffffffffffffffff16146113c8576040517f08c379a00000000000000000000000000000000000000000000000000000000081526004016113bf90612298565b60405180910390fd5b3073ffffffffffffffffffffffffffffffffffffffff16600460019054906101000a900473ffffffffffffffffffffffffffffffffffffffff1673ffffffffffffffffffffffffffffffffffffffff1663273470e56040518163ffffffff1660e01b8152600401602060405180830381865afa15801561144c573d6000803e3d6000fd5b505050506040513d601f19601f8201168201806040525081019061147091906122e4565b73ffffffffffffffffffffffffffffffffffffffff16146114c6576040517f08c379a00000000000000000000000000000000000000000000000000000000081526004016114bd9061235d565b60405180910390fd5b6001600460006101000a81548160ff021916908315150217905550565b6114eb6118d3565b600560003373ffffffffffffffffffffffffffffffffffffffff1673ffffffffffffffffffffffffffffffffffffffff1681526020019081526020016000206040518060800160405290816000820160009054906101000a900473ffffffffffffffffffffffffffffffffffffffff1673ffffffffffffffffffffffffffffffffffffffff1673ffffffffffffffffffffffffffffffffffffffff168152602001600182015481526020016002820160009054906101000a900460ff16151515158152602001600382016040518060800160405290816000820160009054906101000a900460ff1660028111156115e5576115e46119dc565b5b60028111156115f7576115f66119dc565b5b81526020016000820160019054906101000a900460ff1660028111156116205761161f6119dc565b5b6002811115611632576116316119dc565b5b8152602001600182015481526020016002820160009054906101000a900460ff16151515158152505081525050905090565b600080600560008573ffffffffffffffffffffffffffffffffffffffff1673ffffffffffffffffffffffffffffffffffffffff1681526020019081526020016000206003016001015490506000600560008573ffffffffffffffffffffffffffffffffffffffff1673ffffffffffffffffffffffffffffffffffffffff16815260200190815260200160002060030160010154905080821061170a578492505050611710565b83925050505b92915050565b6000600560003373ffffffffffffffffffffffffffffffffffffffff1673ffffffffffffffffffffffffffffffffffffffff1681526020019081526020016000209050600460019054906101000a900473ffffffffffffffffffffffffffffffffffffffff1673ffffffffffffffffffffffffffffffffffffffff1663d05210d133600460019054906101000a900473ffffffffffffffffffffffffffffffffffffffff16866040518463ffffffff1660e01b81526004016117da93929190611f7b565b600060405180830381600087803b1580156117f457600080fd5b505af1158015611808573d6000803e3d6000fd5b50505050600460019054906101000a900473ffffffffffffffffffffffffffffffffffffffff1673ffffffffffffffffffffffffffffffffffffffff166370a08231336040518263ffffffff1660e01b81526004016118679190611e61565b602060405180830381865afa158015611884573d6000803e3d6000fd5b505050506040513d601f19601f820116820180604052508101906118a89190611ea8565b8160010181905550818160030160010160008282546118c79190611f38565b92505081905550505050565b6040518060800160405280600073ffffffffffffffffffffffffffffffffffffffff16815260200160008152602001600015158152602001611913611919565b81525090565b604051806080016040528060006002811115611938576119376119dc565b5b815260200160006002811115611951576119506119dc565b5b8152602001600081526020016000151581525090565b600073ffffffffffffffffffffffffffffffffffffffff82169050919050565b600061199282611967565b9050919050565b6119a281611987565b82525050565b6000819050919050565b6119bb816119a8565b82525050565b60008115159050919050565b6119d6816119c1565b82525050565b7f4e487b7100000000000000000000000000000000000000000000000000000000600052602160045260246000fd5b60038110611a1c57611a1b6119dc565b5b50565b6000819050611a2d82611a0b565b919050565b6000611a3d82611a1f565b9050919050565b611a4d81611a32565b82525050565b60038110611a6457611a636119dc565b5b50565b6000819050611a7582611a53565b919050565b6000611a8582611a67565b9050919050565b611a9581611a7a565b82525050565b608082016000820151611ab16000850182611a44565b506020820151611ac46020850182611a8c565b506040820151611ad760408501826119b2565b506060820151611aea60608501826119cd565b50505050565b60e082016000820151611b066000850182611999565b506020820151611b1960208501826119b2565b506040820151611b2c60408501826119cd565b506060820151611b3f6060850182611a9b565b50505050565b600060e082019050611b5a6000830184611af0565b92915050565b600080fd5b60038110611b7257600080fd5b50565b600081359050611b8481611b65565b92915050565b60038110611b9757600080fd5b50565b600081359050611ba981611b8a565b92915050565b60008060408385031215611bc657611bc5611b60565b5b6000611bd485828601611b75565b9250506020611be585828601611b9a565b9150509250929050565b600082825260208201905092915050565b7f506c61796572206e6f7420726567697374657265640000000000000000000000600082015250565b6000611c36601583611bef565b9150611c4182611c00565b602082019050919050565b60006020820190508181036000830152611c6581611c29565b9050919050565b7f476c61646961746f72206973206e6f7420616374697661746564207965740000600082015250565b6000611ca2601e83611bef565b9150611cad82611c6c565b602082019050919050565b60006020820190508181036000830152611cd181611c95565b9050919050565b7f546865726520617265206e6f20736c6f747320617661696c61626c6500000000600082015250565b6000611d0e601c83611bef565b9150611d1982611cd8565b602082019050919050565b60006020820190508181036000830152611d3d81611d01565b9050919050565b7f596f7520646f6e2774206861766520656e6f75676820706f696e747320746f2060008201527f706c617900000000000000000000000000000000000000000000000000000000602082015250565b6000611da0602483611bef565b9150611dab82611d44565b604082019050919050565b60006020820190508181036000830152611dcf81611d93565b9050919050565b611ddf81611987565b82525050565b6000819050919050565b6000819050919050565b6000611e14611e0f611e0a84611de5565b611def565b6119a8565b9050919050565b611e2481611df9565b82525050565b6000606082019050611e3f6000830186611dd6565b611e4c6020830185611dd6565b611e596040830184611e1b565b949350505050565b6000602082019050611e766000830184611dd6565b92915050565b611e85816119a8565b8114611e9057600080fd5b50565b600081519050611ea281611e7c565b92915050565b600060208284031215611ebe57611ebd611b60565b5b6000611ecc84828501611e93565b91505092915050565b7f4e487b7100000000000000000000000000000000000000000000000000000000600052601160045260246000fd5b6000611f0f826119a8565b9150611f1a836119a8565b9250828203905081811115611f3257611f31611ed5565b5b92915050565b6000611f43826119a8565b9150611f4e836119a8565b9250828201905080821115611f6657611f65611ed5565b5b92915050565b611f75816119a8565b82525050565b6000606082019050611f906000830186611dd6565b611f9d6020830185611dd6565b611faa6040830184611f6c565b949350505050565b7f47616d65206e6f74207374617274656420796574000000000000000000000000600082015250565b6000611fe8601483611bef565b9150611ff382611fb2565b602082019050919050565b6000602082019050818103600083015261201781611fdb565b9050919050565b7f506c6179657220616c7265616479207265676973746572640000000000000000600082015250565b6000612054601883611bef565b915061205f8261201e565b602082019050919050565b6000602082019050818103600083015261208381612047565b9050919050565b6000819050919050565b60006120af6120aa6120a58461208a565b611def565b6119a8565b9050919050565b6120bf81612094565b82525050565b60006040820190506120da6000830185611dd6565b6120e760208301846120b6565b9392505050565b7f506c61796572206973206e6f7420726567697374657265640000000000000000600082015250565b6000612124601883611bef565b915061212f826120ee565b602082019050919050565b6000602082019050818103600083015261215381612117565b9050919050565b7f506c6179657220646f65736e2774206861766520656e6f75676820746f6b656e60008201527f7300000000000000000000000000000000000000000000000000000000000000602082015250565b60006121b6602183611bef565b91506121c18261215a565b604082019050919050565b600060208201905081810360008301526121e5816121a9565b9050919050565b7f4e487b7100000000000000000000000000000000000000000000000000000000600052601260045260246000fd5b6000612226826119a8565b9150612231836119a8565b925082612241576122406121ec565b5b828204905092915050565b7f556e617574686f72697a65640000000000000000000000000000000000000000600082015250565b6000612282600c83611bef565b915061228d8261224c565b602082019050919050565b600060208201905081810360008301526122b181612275565b9050919050565b6122c181611987565b81146122cc57600080fd5b50565b6000815190506122de816122b8565b92915050565b6000602082840312156122fa576122f9611b60565b5b6000612308848285016122cf565b91505092915050565b7f47616d652063616e277420737461727420796574000000000000000000000000600082015250565b6000612347601483611bef565b915061235282612311565b602082019050919050565b600060208201905081810360008301526123768161233a565b905091905056fea26469706673582212200ffac62ac09a81d354e2ed1cd6e3d8a53365333a2b1c8867dc028e058d29301a64736f6c63430008120033",
  "immutableReferences": {},
  "source": "\r\n// SPDX-License-Identifier: MIT\r\npragma solidity ^0.8.18;\r\n\r\nimport \"./myToken.sol\";\r\n\r\ncontract GladiatorsGame {\r\n\r\n    address owner;\r\n    address playerOne;\r\n    address playerTwo;\r\n    uint256 tipJar = 0;\r\n    bool gameStarted;\r\n\r\n    MyToken myToken;\r\n\r\n    //Mappings\r\n    mapping(address => Player) registeredPlayers;\r\n\r\n    //Player\r\n    struct Player{\r\n        address id;\r\n        uint256 tokens;\r\n        bool active;\r\n        Gladiator gladiator;\r\n    }\r\n\r\n    //Gladiator\r\n    struct Gladiator {\r\n        Skin skin;\r\n        Weapon weapon;\r\n        uint256 strengthPoints;\r\n        bool isActive;\r\n    }\r\n\r\n    enum Skin {\r\n        helmet,\r\n        armor,\r\n        boots\r\n    }\r\n\r\n    enum Weapon {\r\n        sword,\r\n        trident,\r\n        spear\r\n    }\r\n\r\n    //Error\r\n    error nonValidSkin();\r\n    error nonValidWeapon();\r\n\r\n    //Modifier\r\n    modifier onlyOwner() {\r\n        require(msg.sender == owner, \"Unauthorized\");\r\n        _;\r\n    }\r\n\r\n    constructor(address mtkAddress){\r\n        owner = msg.sender;\r\n        myToken = MyToken(mtkAddress);\r\n    }\r\n\r\n    //initialize game\r\n    function startGame() external onlyOwner {\r\n        require(myToken.getGladiatorAddress() == address(this), \"Game can't start yet\");\r\n        gameStarted = true;\r\n    }\r\n\r\n    //register player\r\n    function registerPlayer() external {\r\n        require(gameStarted, \"Game not started yet\");\r\n        require(!registeredPlayers[msg.sender].active, \"Player already registerd\");\r\n\r\n        registeredPlayers[msg.sender].id = address(msg.sender);\r\n        myToken.mint(msg.sender, 50);\r\n        registeredPlayers[msg.sender].tokens = myToken.balanceOf(msg.sender);\r\n        registeredPlayers[msg.sender].active = true;\r\n    }\r\n\r\n    //Select items\r\n    function createGladiator(Skin newSkin, Weapon newWeapon) external {\r\n        Player storage currentPlayer = registeredPlayers[msg.sender];\r\n        require(currentPlayer.active, \"Player is not registered\");\r\n \r\n        if(newSkin == Skin.helmet) {\r\n            require(currentPlayer.tokens - 15 >= 5, \"Player doesn't have enough tokens\");\r\n            setNewElement(15, 1);\r\n        } else if(newSkin == Skin.armor){\r\n            require(currentPlayer.tokens - 25 >= 5, \"Player doesn't have enough tokens\");\r\n            setNewElement(25, 2);\r\n        } else if (newSkin == Skin.boots){\r\n            require(currentPlayer.tokens - 30 >= 5, \"Player doesn't have enough tokens\");\r\n            setNewElement(30, 3);\r\n        } else {\r\n            revert nonValidSkin();\r\n        }\r\n\r\n        if(newWeapon == Weapon.sword) {\r\n            require(currentPlayer.tokens - 15 >= 5, \"Player doesn't have enough tokens\");\r\n            setNewElement(15, 1);\r\n        } else if(newWeapon == Weapon.trident){\r\n            require(currentPlayer.tokens - 25 >= 5, \"Player doesn't have enough tokens\");\r\n            setNewElement(25, 2);\r\n        } else if (newWeapon == Weapon.spear){\r\n            require(currentPlayer.tokens - 30 >= 5, \"Player doesn't have enough tokens\");\r\n            setNewElement(30, 3);\r\n        } else {\r\n            revert nonValidWeapon();\r\n        }\r\n\r\n        currentPlayer.gladiator.strengthPoints += (currentPlayer.tokens/2);\r\n        currentPlayer.gladiator.skin = newSkin;\r\n        currentPlayer.gladiator.weapon = newWeapon;\r\n        currentPlayer.gladiator.isActive = true; \r\n    }\r\n\r\n    //Fight\r\n    function fight() external returns(Player memory){\r\n        require(registeredPlayers[msg.sender].active, \"Player not registered\");\r\n        require(registeredPlayers[msg.sender].gladiator.isActive, \"Gladiator is not activated yet\");\r\n        require(playerOne == address(0) || playerTwo == address(0), \"There are no slots available\");\r\n\r\n        Player storage currentPlayer = registeredPlayers[msg.sender];\r\n        require(currentPlayer.tokens >= 5, \"You don't have enough points to play\");\r\n\r\n\r\n        myToken.senTokens(msg.sender, address(this), 5);\r\n        currentPlayer.tokens = myToken.balanceOf(msg.sender);\r\n\r\n        currentPlayer.tokens -= 5;\r\n        tipJar += 5;\r\n\r\n        if(playerOne == address(0)){\r\n            playerOne = msg.sender;\r\n        } else {\r\n            playerTwo = msg.sender;\r\n\r\n            //Start fight\r\n            address winnerAddress = startFight(playerOne, playerTwo);\r\n\r\n            //Give points\r\n            myToken.senTokens(address(this), winnerAddress, tipJar);\r\n            registeredPlayers[winnerAddress].tokens = myToken.balanceOf(winnerAddress);\r\n            tipJar = 0;\r\n\r\n            //Reset variables\r\n            playerOne = address(0);\r\n            playerTwo = address(0);\r\n            \r\n            return registeredPlayers[winnerAddress];\r\n        }\r\n\r\n        return registeredPlayers[address(0)];\r\n    }\r\n\r\n    function startFight(address p1, address p2) private view returns(address){\r\n        uint p1Pts = registeredPlayers[p1].gladiator.strengthPoints;\r\n        uint p2Pts = registeredPlayers[p2].gladiator.strengthPoints;\r\n\r\n        if(p1Pts >= p2Pts){\r\n            return p1;\r\n        } else {\r\n            return p2;\r\n        }\r\n    }\r\n\r\n    function getMyData() external view returns(Player memory){\r\n        return registeredPlayers[msg.sender];\r\n    }\r\n\r\n    function setNewElement(uint256 amount, uint256 points) private {\r\n        Player storage currentPlayer = registeredPlayers[msg.sender];\r\n        myToken.senTokens(msg.sender, address(myToken), amount);\r\n        currentPlayer.tokens = myToken.balanceOf(msg.sender);\r\n        currentPlayer.gladiator.strengthPoints += points;\r\n    }\r\n}",
  "sourcePath": "D:\\Documentos\\END\\curso\\Tema_4\\erc20\\contracts\\gladiator.sol",
  "compiler": {
    "name": "solc",
    "version": "0.8.18+commit.87f61d96.Emscripten.clang"
  },
  "schemaVersion": "3.4.8",
  "updatedAt": "2023-04-07T09:53:19.584Z",
  "networkType": "ethereum",
  "devdoc": {
    "kind": "dev",
    "methods": {},
    "version": 1
  },
  "userdoc": {
    "kind": "user",
    "methods": {},
    "version": 1
  }
}