{
  "contractName": "MyToken",
  "abi": [
    {
      "inputs": [],
      "stateMutability": "nonpayable",
      "type": "constructor"
    },
    {
      "anonymous": false,
      "inputs": [
        {
          "indexed": true,
          "internalType": "address",
          "name": "owner",
          "type": "address"
        },
        {
          "indexed": true,
          "internalType": "address",
          "name": "spender",
          "type": "address"
        },
        {
          "indexed": false,
          "internalType": "uint256",
          "name": "value",
          "type": "uint256"
        }
      ],
      "name": "Approval",
      "type": "event"
    },
    {
      "anonymous": false,
      "inputs": [
        {
          "indexed": true,
          "internalType": "address",
          "name": "from",
          "type": "address"
        },
        {
          "indexed": true,
          "internalType": "address",
          "name": "to",
          "type": "address"
        },
        {
          "indexed": false,
          "internalType": "uint256",
          "name": "value",
          "type": "uint256"
        }
      ],
      "name": "Transfer",
      "type": "event"
    },
    {
      "inputs": [
        {
          "internalType": "address",
          "name": "owner",
          "type": "address"
        },
        {
          "internalType": "address",
          "name": "spender",
          "type": "address"
        }
      ],
      "name": "allowance",
      "outputs": [
        {
          "internalType": "uint256",
          "name": "",
          "type": "uint256"
        }
      ],
      "stateMutability": "view",
      "type": "function",
      "constant": true
    },
    {
      "inputs": [
        {
          "internalType": "address",
          "name": "spender",
          "type": "address"
        },
        {
          "internalType": "uint256",
          "name": "amount",
          "type": "uint256"
        }
      ],
      "name": "approve",
      "outputs": [
        {
          "internalType": "bool",
          "name": "",
          "type": "bool"
        }
      ],
      "stateMutability": "nonpayable",
      "type": "function"
    },
    {
      "inputs": [
        {
          "internalType": "address",
          "name": "account",
          "type": "address"
        }
      ],
      "name": "balanceOf",
      "outputs": [
        {
          "internalType": "uint256",
          "name": "",
          "type": "uint256"
        }
      ],
      "stateMutability": "view",
      "type": "function",
      "constant": true
    },
    {
      "inputs": [],
      "name": "decimals",
      "outputs": [
        {
          "internalType": "uint8",
          "name": "",
          "type": "uint8"
        }
      ],
      "stateMutability": "view",
      "type": "function",
      "constant": true
    },
    {
      "inputs": [
        {
          "internalType": "address",
          "name": "spender",
          "type": "address"
        },
        {
          "internalType": "uint256",
          "name": "subtractedValue",
          "type": "uint256"
        }
      ],
      "name": "decreaseAllowance",
      "outputs": [
        {
          "internalType": "bool",
          "name": "",
          "type": "bool"
        }
      ],
      "stateMutability": "nonpayable",
      "type": "function"
    },
    {
      "inputs": [
        {
          "internalType": "address",
          "name": "spender",
          "type": "address"
        },
        {
          "internalType": "uint256",
          "name": "addedValue",
          "type": "uint256"
        }
      ],
      "name": "increaseAllowance",
      "outputs": [
        {
          "internalType": "bool",
          "name": "",
          "type": "bool"
        }
      ],
      "stateMutability": "nonpayable",
      "type": "function"
    },
    {
      "inputs": [],
      "name": "name",
      "outputs": [
        {
          "internalType": "string",
          "name": "",
          "type": "string"
        }
      ],
      "stateMutability": "view",
      "type": "function",
      "constant": true
    },
    {
      "inputs": [],
      "name": "symbol",
      "outputs": [
        {
          "internalType": "string",
          "name": "",
          "type": "string"
        }
      ],
      "stateMutability": "view",
      "type": "function",
      "constant": true
    },
    {
      "inputs": [],
      "name": "totalSupply",
      "outputs": [
        {
          "internalType": "uint256",
          "name": "",
          "type": "uint256"
        }
      ],
      "stateMutability": "view",
      "type": "function",
      "constant": true
    },
    {
      "inputs": [
        {
          "internalType": "address",
          "name": "to",
          "type": "address"
        },
        {
          "internalType": "uint256",
          "name": "amount",
          "type": "uint256"
        }
      ],
      "name": "transfer",
      "outputs": [
        {
          "internalType": "bool",
          "name": "",
          "type": "bool"
        }
      ],
      "stateMutability": "nonpayable",
      "type": "function"
    },
    {
      "inputs": [
        {
          "internalType": "address",
          "name": "from",
          "type": "address"
        },
        {
          "internalType": "address",
          "name": "to",
          "type": "address"
        },
        {
          "internalType": "uint256",
          "name": "amount",
          "type": "uint256"
        }
      ],
      "name": "transferFrom",
      "outputs": [
        {
          "internalType": "bool",
          "name": "",
          "type": "bool"
        }
      ],
      "stateMutability": "nonpayable",
      "type": "function"
    },
    {
      "inputs": [
        {
          "internalType": "address",
          "name": "to",
          "type": "address"
        },
        {
          "internalType": "uint256",
          "name": "amount",
          "type": "uint256"
        }
      ],
      "name": "mint",
      "outputs": [],
      "stateMutability": "nonpayable",
      "type": "function"
    },
    {
      "inputs": [
        {
          "internalType": "uint256",
          "name": "amount",
          "type": "uint256"
        }
      ],
      "name": "buyTokens",
      "outputs": [],
      "stateMutability": "payable",
      "type": "function",
      "payable": true
    },
    {
      "inputs": [
        {
          "internalType": "address",
          "name": "from",
          "type": "address"
        },
        {
          "internalType": "address",
          "name": "to",
          "type": "address"
        },
        {
          "internalType": "uint256",
          "name": "amount",
          "type": "uint256"
        }
      ],
      "name": "senTokens",
      "outputs": [],
      "stateMutability": "nonpayable",
      "type": "function"
    },
    {
      "inputs": [
        {
          "internalType": "address",
          "name": "newAddress",
          "type": "address"
        }
      ],
      "name": "setGladiatorAddress",
      "outputs": [
        {
          "internalType": "address",
          "name": "",
          "type": "address"
        }
      ],
      "stateMutability": "nonpayable",
      "type": "function"
    },
    {
      "inputs": [],
      "name": "getGladiatorAddress",
      "outputs": [
        {
          "internalType": "address",
          "name": "",
          "type": "address"
        }
      ],
      "stateMutability": "view",
      "type": "function",
      "constant": true
    }
  ],
  "bytecode": "0x6080604052662386f26fc100006007553480156200001c57600080fd5b506040518060400160405280600781526020017f6d79546f6b656e000000000000000000000000000000000000000000000000008152506040518060400160405280600381526020017f4d544b000000000000000000000000000000000000000000000000000000000081525081600390816200009a919062000503565b508060049081620000ac919062000503565b50505033600560006101000a81548173ffffffffffffffffffffffffffffffffffffffff021916908373ffffffffffffffffffffffffffffffffffffffff1602179055506200010c3069d3c21bcecceda10000006200011260201b60201c565b62000705565b600073ffffffffffffffffffffffffffffffffffffffff168273ffffffffffffffffffffffffffffffffffffffff160362000184576040517f08c379a00000000000000000000000000000000000000000000000000000000081526004016200017b906200064b565b60405180910390fd5b62000198600083836200027f60201b60201c565b8060026000828254620001ac91906200069c565b92505081905550806000808473ffffffffffffffffffffffffffffffffffffffff1673ffffffffffffffffffffffffffffffffffffffff168152602001908152602001600020600082825401925050819055508173ffffffffffffffffffffffffffffffffffffffff16600073ffffffffffffffffffffffffffffffffffffffff167fddf252ad1be2c89b69c2b068fc378daa952ba7f163c4a11628f55a4df523b3ef836040516200025f9190620006e8565b60405180910390a36200027b600083836200028460201b60201c565b5050565b505050565b505050565b600081519050919050565b7f4e487b7100000000000000000000000000000000000000000000000000000000600052604160045260246000fd5b7f4e487b7100000000000000000000000000000000000000000000000000000000600052602260045260246000fd5b600060028204905060018216806200030b57607f821691505b602082108103620003215762000320620002c3565b5b50919050565b60008190508160005260206000209050919050565b60006020601f8301049050919050565b600082821b905092915050565b6000600883026200038b7fffffffffffffffffffffffffffffffffffffffffffffffffffffffffffffffff826200034c565b6200039786836200034c565b95508019841693508086168417925050509392505050565b6000819050919050565b6000819050919050565b6000620003e4620003de620003d884620003af565b620003b9565b620003af565b9050919050565b6000819050919050565b6200040083620003c3565b620004186200040f82620003eb565b84845462000359565b825550505050565b600090565b6200042f62000420565b6200043c818484620003f5565b505050565b5b8181101562000464576200045860008262000425565b60018101905062000442565b5050565b601f821115620004b3576200047d8162000327565b62000488846200033c565b8101602085101562000498578190505b620004b0620004a7856200033c565b83018262000441565b50505b505050565b600082821c905092915050565b6000620004d860001984600802620004b8565b1980831691505092915050565b6000620004f38383620004c5565b9150826002028217905092915050565b6200050e8262000289565b67ffffffffffffffff8111156200052a576200052962000294565b5b620005368254620002f2565b6200054382828562000468565b600060209050601f8311600181146200057b576000841562000566578287015190505b620005728582620004e5565b865550620005e2565b601f1984166200058b8662000327565b60005b82811015620005b5578489015182556001820191506020850194506020810190506200058e565b86831015620005d55784890151620005d1601f891682620004c5565b8355505b6001600288020188555050505b505050505050565b600082825260208201905092915050565b7f45524332303a206d696e7420746f20746865207a65726f206164647265737300600082015250565b600062000633601f83620005ea565b91506200064082620005fb565b602082019050919050565b60006020820190508181036000830152620006668162000624565b9050919050565b7f4e487b7100000000000000000000000000000000000000000000000000000000600052601160045260246000fd5b6000620006a982620003af565b9150620006b683620003af565b9250828201905080821115620006d157620006d06200066d565b5b92915050565b620006e281620003af565b82525050565b6000602082019050620006ff6000830184620006d7565b92915050565b611ce880620007156000396000f3fe6080604052600436106100f35760003560e01c806340c10f191161008a578063a9059cbb11610059578063a9059cbb14610345578063ce50b84714610382578063d05210d1146103bf578063dd62ed3e146103e8576100f3565b806340c10f191461027757806370a08231146102a057806395d89b41146102dd578063a457c2d714610308576100f3565b8063273470e5116100c6578063273470e5146101c8578063313ce567146101f35780633610724e1461021e578063395093511461023a576100f3565b806306fdde03146100f8578063095ea7b31461012357806318160ddd1461016057806323b872dd1461018b575b600080fd5b34801561010457600080fd5b5061010d610425565b60405161011a919061125e565b60405180910390f35b34801561012f57600080fd5b5061014a60048036038101906101459190611319565b6104b7565b6040516101579190611374565b60405180910390f35b34801561016c57600080fd5b506101756104da565b604051610182919061139e565b60405180910390f35b34801561019757600080fd5b506101b260048036038101906101ad91906113b9565b6104e4565b6040516101bf9190611374565b60405180910390f35b3480156101d457600080fd5b506101dd610513565b6040516101ea919061141b565b60405180910390f35b3480156101ff57600080fd5b5061020861053d565b6040516102159190611452565b60405180910390f35b6102386004803603810190610233919061146d565b610546565b005b34801561024657600080fd5b50610261600480360381019061025c9190611319565b6106c3565b60405161026e9190611374565b60405180910390f35b34801561028357600080fd5b5061029e60048036038101906102999190611319565b6106fa565b005b3480156102ac57600080fd5b506102c760048036038101906102c2919061149a565b6107f0565b6040516102d4919061139e565b60405180910390f35b3480156102e957600080fd5b506102f2610838565b6040516102ff919061125e565b60405180910390f35b34801561031457600080fd5b5061032f600480360381019061032a9190611319565b6108ca565b60405161033c9190611374565b60405180910390f35b34801561035157600080fd5b5061036c60048036038101906103679190611319565b610941565b6040516103799190611374565b60405180910390f35b34801561038e57600080fd5b506103a960048036038101906103a4919061149a565b610964565b6040516103b6919061141b565b60405180910390f35b3480156103cb57600080fd5b506103e660048036038101906103e191906113b9565b610ab9565b005b3480156103f457600080fd5b5061040f600480360381019061040a91906114c7565b610b14565b60405161041c919061139e565b60405180910390f35b60606003805461043490611536565b80601f016020809104026020016040519081016040528092919081815260200182805461046090611536565b80156104ad5780601f10610482576101008083540402835291602001916104ad565b820191906000526020600020905b81548152906001019060200180831161049057829003601f168201915b5050505050905090565b6000806104c2610b9b565b90506104cf818585610ba3565b600191505092915050565b6000600254905090565b6000806104ef610b9b565b90506104fc858285610d6c565b610507858585610df8565b60019150509392505050565b6000600660009054906101000a900473ffffffffffffffffffffffffffffffffffffffff16905090565b60006012905090565b80610550306107f0565b1015610591576040517f08c379a0000000000000000000000000000000000000000000000000000000008152600401610588906115b3565b60405180910390fd5b6000600754826105a19190611602565b90503481146105e5576040517f08c379a00000000000000000000000000000000000000000000000000000000081526004016105dc90611690565b60405180910390fd5b6000600560009054906101000a900473ffffffffffffffffffffffffffffffffffffffff1673ffffffffffffffffffffffffffffffffffffffff163460405161062d906116e1565b60006040518083038185875af1925050503d806000811461066a576040519150601f19603f3d011682016040523d82523d6000602084013e61066f565b606091505b50509050806106b3576040517f08c379a00000000000000000000000000000000000000000000000000000000081526004016106aa90611742565b60405180910390fd5b6106be303385610df8565b505050565b6000806106ce610b9b565b90506106ef8185856106e08589610b14565b6106ea9190611762565b610ba3565b600191505092915050565b600560009054906101000a900473ffffffffffffffffffffffffffffffffffffffff1673ffffffffffffffffffffffffffffffffffffffff163373ffffffffffffffffffffffffffffffffffffffff1614806107a35750600660009054906101000a900473ffffffffffffffffffffffffffffffffffffffff1673ffffffffffffffffffffffffffffffffffffffff163373ffffffffffffffffffffffffffffffffffffffff16145b6107e2576040517f08c379a00000000000000000000000000000000000000000000000000000000081526004016107d9906117e2565b60405180910390fd5b6107ec828261106e565b5050565b60008060008373ffffffffffffffffffffffffffffffffffffffff1673ffffffffffffffffffffffffffffffffffffffff168152602001908152602001600020549050919050565b60606004805461084790611536565b80601f016020809104026020016040519081016040528092919081815260200182805461087390611536565b80156108c05780601f10610895576101008083540402835291602001916108c0565b820191906000526020600020905b8154815290600101906020018083116108a357829003601f168201915b5050505050905090565b6000806108d5610b9b565b905060006108e38286610b14565b905083811015610928576040517f08c379a000000000000000000000000000000000000000000000000000000000815260040161091f90611874565b60405180910390fd5b6109358286868403610ba3565b60019250505092915050565b60008061094c610b9b565b9050610959818585610df8565b600191505092915050565b6000600560009054906101000a900473ffffffffffffffffffffffffffffffffffffffff1673ffffffffffffffffffffffffffffffffffffffff163373ffffffffffffffffffffffffffffffffffffffff161480610a0f5750600660009054906101000a900473ffffffffffffffffffffffffffffffffffffffff1673ffffffffffffffffffffffffffffffffffffffff163373ffffffffffffffffffffffffffffffffffffffff16145b610a4e576040517f08c379a0000000000000000000000000000000000000000000000000000000008152600401610a45906117e2565b60405180910390fd5b81600660006101000a81548173ffffffffffffffffffffffffffffffffffffffff021916908373ffffffffffffffffffffffffffffffffffffffff160217905550600660009054906101000a900473ffffffffffffffffffffffffffffffffffffffff169050919050565b80610ac3846107f0565b1015610b04576040517f08c379a0000000000000000000000000000000000000000000000000000000008152600401610afb906118e0565b60405180910390fd5b610b0f838383610df8565b505050565b6000600160008473ffffffffffffffffffffffffffffffffffffffff1673ffffffffffffffffffffffffffffffffffffffff16815260200190815260200160002060008373ffffffffffffffffffffffffffffffffffffffff1673ffffffffffffffffffffffffffffffffffffffff16815260200190815260200160002054905092915050565b600033905090565b600073ffffffffffffffffffffffffffffffffffffffff168373ffffffffffffffffffffffffffffffffffffffff1603610c12576040517f08c379a0000000000000000000000000000000000000000000000000000000008152600401610c0990611972565b60405180910390fd5b600073ffffffffffffffffffffffffffffffffffffffff168273ffffffffffffffffffffffffffffffffffffffff1603610c81576040517f08c379a0000000000000000000000000000000000000000000000000000000008152600401610c7890611a04565b60405180910390fd5b80600160008573ffffffffffffffffffffffffffffffffffffffff1673ffffffffffffffffffffffffffffffffffffffff16815260200190815260200160002060008473ffffffffffffffffffffffffffffffffffffffff1673ffffffffffffffffffffffffffffffffffffffff168152602001908152602001600020819055508173ffffffffffffffffffffffffffffffffffffffff168373ffffffffffffffffffffffffffffffffffffffff167f8c5be1e5ebec7d5bd14f71427d1e84f3dd0314c0f7b2291e5b200ac8c7c3b92583604051610d5f919061139e565b60405180910390a3505050565b6000610d788484610b14565b90507fffffffffffffffffffffffffffffffffffffffffffffffffffffffffffffffff8114610df25781811015610de4576040517f08c379a0000000000000000000000000000000000000000000000000000000008152600401610ddb90611a70565b60405180910390fd5b610df18484848403610ba3565b5b50505050565b600073ffffffffffffffffffffffffffffffffffffffff168373ffffffffffffffffffffffffffffffffffffffff1603610e67576040517f08c379a0000000000000000000000000000000000000000000000000000000008152600401610e5e90611b02565b60405180910390fd5b600073ffffffffffffffffffffffffffffffffffffffff168273ffffffffffffffffffffffffffffffffffffffff1603610ed6576040517f08c379a0000000000000000000000000000000000000000000000000000000008152600401610ecd90611b94565b60405180910390fd5b610ee18383836111c4565b60008060008573ffffffffffffffffffffffffffffffffffffffff1673ffffffffffffffffffffffffffffffffffffffff16815260200190815260200160002054905081811015610f67576040517f08c379a0000000000000000000000000000000000000000000000000000000008152600401610f5e90611c26565b60405180910390fd5b8181036000808673ffffffffffffffffffffffffffffffffffffffff1673ffffffffffffffffffffffffffffffffffffffff16815260200190815260200160002081905550816000808573ffffffffffffffffffffffffffffffffffffffff1673ffffffffffffffffffffffffffffffffffffffff168152602001908152602001600020600082825401925050819055508273ffffffffffffffffffffffffffffffffffffffff168473ffffffffffffffffffffffffffffffffffffffff167fddf252ad1be2c89b69c2b068fc378daa952ba7f163c4a11628f55a4df523b3ef84604051611055919061139e565b60405180910390a36110688484846111c9565b50505050565b600073ffffffffffffffffffffffffffffffffffffffff168273ffffffffffffffffffffffffffffffffffffffff16036110dd576040517f08c379a00000000000000000000000000000000000000000000000000000000081526004016110d490611c92565b60405180910390fd5b6110e9600083836111c4565b80600260008282546110fb9190611762565b92505081905550806000808473ffffffffffffffffffffffffffffffffffffffff1673ffffffffffffffffffffffffffffffffffffffff168152602001908152602001600020600082825401925050819055508173ffffffffffffffffffffffffffffffffffffffff16600073ffffffffffffffffffffffffffffffffffffffff167fddf252ad1be2c89b69c2b068fc378daa952ba7f163c4a11628f55a4df523b3ef836040516111ac919061139e565b60405180910390a36111c0600083836111c9565b5050565b505050565b505050565b600081519050919050565b600082825260208201905092915050565b60005b838110156112085780820151818401526020810190506111ed565b60008484015250505050565b6000601f19601f8301169050919050565b6000611230826111ce565b61123a81856111d9565b935061124a8185602086016111ea565b61125381611214565b840191505092915050565b600060208201905081810360008301526112788184611225565b905092915050565b600080fd5b600073ffffffffffffffffffffffffffffffffffffffff82169050919050565b60006112b082611285565b9050919050565b6112c0816112a5565b81146112cb57600080fd5b50565b6000813590506112dd816112b7565b92915050565b6000819050919050565b6112f6816112e3565b811461130157600080fd5b50565b600081359050611313816112ed565b92915050565b600080604083850312156113305761132f611280565b5b600061133e858286016112ce565b925050602061134f85828601611304565b9150509250929050565b60008115159050919050565b61136e81611359565b82525050565b60006020820190506113896000830184611365565b92915050565b611398816112e3565b82525050565b60006020820190506113b3600083018461138f565b92915050565b6000806000606084860312156113d2576113d1611280565b5b60006113e0868287016112ce565b93505060206113f1868287016112ce565b925050604061140286828701611304565b9150509250925092565b611415816112a5565b82525050565b6000602082019050611430600083018461140c565b92915050565b600060ff82169050919050565b61144c81611436565b82525050565b60006020820190506114676000830184611443565b92915050565b60006020828403121561148357611482611280565b5b600061149184828501611304565b91505092915050565b6000602082840312156114b0576114af611280565b5b60006114be848285016112ce565b91505092915050565b600080604083850312156114de576114dd611280565b5b60006114ec858286016112ce565b92505060206114fd858286016112ce565b9150509250929050565b7f4e487b7100000000000000000000000000000000000000000000000000000000600052602260045260246000fd5b6000600282049050600182168061154e57607f821691505b60208210810361156157611560611507565b5b50919050565b7f416d6f756e74206578636565647320636f6e74726163742062616c616e636500600082015250565b600061159d601f836111d9565b91506115a882611567565b602082019050919050565b600060208201905081810360008301526115cc81611590565b9050919050565b7f4e487b7100000000000000000000000000000000000000000000000000000000600052601160045260246000fd5b600061160d826112e3565b9150611618836112e3565b9250828202611626816112e3565b9150828204841483151761163d5761163c6115d3565b5b5092915050565b7f5072697a65206973206e6f7420636f7272656374000000000000000000000000600082015250565b600061167a6014836111d9565b915061168582611644565b602082019050919050565b600060208201905081810360008301526116a98161166d565b9050919050565b600081905092915050565b50565b60006116cb6000836116b0565b91506116d6826116bb565b600082019050919050565b60006116ec826116be565b9150819050919050565b7f5061796d656e74206e6f7420636f6d706c657465640000000000000000000000600082015250565b600061172c6015836111d9565b9150611737826116f6565b602082019050919050565b6000602082019050818103600083015261175b8161171f565b9050919050565b600061176d826112e3565b9150611778836112e3565b92508282019050808211156117905761178f6115d3565b5b92915050565b7f556e617574686f72697a65640000000000000000000000000000000000000000600082015250565b60006117cc600c836111d9565b91506117d782611796565b602082019050919050565b600060208201905081810360008301526117fb816117bf565b9050919050565b7f45524332303a2064656372656173656420616c6c6f77616e63652062656c6f7760008201527f207a65726f000000000000000000000000000000000000000000000000000000602082015250565b600061185e6025836111d9565b915061186982611802565b604082019050919050565b6000602082019050818103600083015261188d81611851565b9050919050565b7f416d6f756e7420657863656564732073656e64657227732062616c616e636500600082015250565b60006118ca601f836111d9565b91506118d582611894565b602082019050919050565b600060208201905081810360008301526118f9816118bd565b9050919050565b7f45524332303a20617070726f76652066726f6d20746865207a65726f2061646460008201527f7265737300000000000000000000000000000000000000000000000000000000602082015250565b600061195c6024836111d9565b915061196782611900565b604082019050919050565b6000602082019050818103600083015261198b8161194f565b9050919050565b7f45524332303a20617070726f766520746f20746865207a65726f20616464726560008201527f7373000000000000000000000000000000000000000000000000000000000000602082015250565b60006119ee6022836111d9565b91506119f982611992565b604082019050919050565b60006020820190508181036000830152611a1d816119e1565b9050919050565b7f45524332303a20696e73756666696369656e7420616c6c6f77616e6365000000600082015250565b6000611a5a601d836111d9565b9150611a6582611a24565b602082019050919050565b60006020820190508181036000830152611a8981611a4d565b9050919050565b7f45524332303a207472616e736665722066726f6d20746865207a65726f20616460008201527f6472657373000000000000000000000000000000000000000000000000000000602082015250565b6000611aec6025836111d9565b9150611af782611a90565b604082019050919050565b60006020820190508181036000830152611b1b81611adf565b9050919050565b7f45524332303a207472616e7366657220746f20746865207a65726f206164647260008201527f6573730000000000000000000000000000000000000000000000000000000000602082015250565b6000611b7e6023836111d9565b9150611b8982611b22565b604082019050919050565b60006020820190508181036000830152611bad81611b71565b9050919050565b7f45524332303a207472616e7366657220616d6f756e742065786365656473206260008201527f616c616e63650000000000000000000000000000000000000000000000000000602082015250565b6000611c106026836111d9565b9150611c1b82611bb4565b604082019050919050565b60006020820190508181036000830152611c3f81611c03565b9050919050565b7f45524332303a206d696e7420746f20746865207a65726f206164647265737300600082015250565b6000611c7c601f836111d9565b9150611c8782611c46565b602082019050919050565b60006020820190508181036000830152611cab81611c6f565b905091905056fea26469706673582212200c3e639c80085b9f47bc8f2641c2738810042cd31d628c21a67a18fa0890fe6464736f6c63430008120033",
  "immutableReferences": {},
  "source": "//SPDX-License-Identifier: UNLICENSED\r\n\r\npragma solidity ^0.8.18;\r\n\r\nimport \"@openzeppelin/contracts/token/ERC20/ERC20.sol\";\r\n\r\ncontract MyToken is ERC20 {\r\n\r\n    address private owner;\r\n    address private gladiatorAddress;\r\n    uint256 private tokenPrize = 0.01 ether;\r\n\r\n    modifier onlyAuthorizedAccounts() {\r\n        require(msg.sender == owner || msg.sender == gladiatorAddress, \"Unauthorized\");\r\n        _;\r\n    }\r\n\r\n    constructor() ERC20(\"myToken\", \"MTK\"){\r\n        owner = msg.sender;\r\n        _mint(address(this), 1_000_000 *10**18);\r\n    }\r\n\r\n    function mint(address to, uint256 amount) external onlyAuthorizedAccounts{\r\n        _mint(to, amount);\r\n    }\r\n\r\n    function buyTokens(uint256 amount) external payable {\r\n        require(balanceOf(address(this)) >= amount, \"Amount exceeds contract balance\");\r\n        uint256 totalToPay = amount * tokenPrize;\r\n        require(totalToPay == msg.value, \"Prize is not correct\");\r\n\r\n        (bool success, ) = payable(owner).call{value: msg.value}(\"\");\r\n        require(success, \"Payment not completed\");\r\n        _transfer(address(this), msg.sender, amount);        \r\n    }\r\n\r\n    function senTokens(address from, address to, uint256 amount) external {\r\n        require(balanceOf(from) >= amount, \"Amount exceeds sender's balance\");\r\n        _transfer(from, to, amount);\r\n    }\r\n\r\n    function setGladiatorAddress(address newAddress) external onlyAuthorizedAccounts returns(address){\r\n        gladiatorAddress = newAddress;\r\n        return gladiatorAddress;\r\n    }\r\n\r\n    function getGladiatorAddress() external view returns(address){\r\n        return gladiatorAddress;\r\n    }\r\n\r\n}",
  "sourcePath": "D:\\Documentos\\END\\curso\\Tema_4\\erc20\\contracts\\myToken.sol",
  "compiler": {
    "name": "solc",
    "version": "0.8.18+commit.87f61d96.Emscripten.clang"
  },
  "schemaVersion": "3.4.8",
  "updatedAt": "2023-04-07T09:53:19.568Z",
  "networkType": "ethereum",
  "devdoc": {
    "events": {
      "Approval(address,address,uint256)": {
        "details": "Emitted when the allowance of a `spender` for an `owner` is set by a call to {approve}. `value` is the new allowance."
      },
      "Transfer(address,address,uint256)": {
        "details": "Emitted when `value` tokens are moved from one account (`from`) to another (`to`). Note that `value` may be zero."
      }
    },
    "kind": "dev",
    "methods": {
      "allowance(address,address)": {
        "details": "See {IERC20-allowance}."
      },
      "approve(address,uint256)": {
        "details": "See {IERC20-approve}. NOTE: If `amount` is the maximum `uint256`, the allowance is not updated on `transferFrom`. This is semantically equivalent to an infinite approval. Requirements: - `spender` cannot be the zero address."
      },
      "balanceOf(address)": {
        "details": "See {IERC20-balanceOf}."
      },
      "decimals()": {
        "details": "Returns the number of decimals used to get its user representation. For example, if `decimals` equals `2`, a balance of `505` tokens should be displayed to a user as `5.05` (`505 / 10 ** 2`). Tokens usually opt for a value of 18, imitating the relationship between Ether and Wei. This is the value {ERC20} uses, unless this function is overridden; NOTE: This information is only used for _display_ purposes: it in no way affects any of the arithmetic of the contract, including {IERC20-balanceOf} and {IERC20-transfer}."
      },
      "decreaseAllowance(address,uint256)": {
        "details": "Atomically decreases the allowance granted to `spender` by the caller. This is an alternative to {approve} that can be used as a mitigation for problems described in {IERC20-approve}. Emits an {Approval} event indicating the updated allowance. Requirements: - `spender` cannot be the zero address. - `spender` must have allowance for the caller of at least `subtractedValue`."
      },
      "increaseAllowance(address,uint256)": {
        "details": "Atomically increases the allowance granted to `spender` by the caller. This is an alternative to {approve} that can be used as a mitigation for problems described in {IERC20-approve}. Emits an {Approval} event indicating the updated allowance. Requirements: - `spender` cannot be the zero address."
      },
      "name()": {
        "details": "Returns the name of the token."
      },
      "symbol()": {
        "details": "Returns the symbol of the token, usually a shorter version of the name."
      },
      "totalSupply()": {
        "details": "See {IERC20-totalSupply}."
      },
      "transfer(address,uint256)": {
        "details": "See {IERC20-transfer}. Requirements: - `to` cannot be the zero address. - the caller must have a balance of at least `amount`."
      },
      "transferFrom(address,address,uint256)": {
        "details": "See {IERC20-transferFrom}. Emits an {Approval} event indicating the updated allowance. This is not required by the EIP. See the note at the beginning of {ERC20}. NOTE: Does not update the allowance if the current allowance is the maximum `uint256`. Requirements: - `from` and `to` cannot be the zero address. - `from` must have a balance of at least `amount`. - the caller must have allowance for ``from``'s tokens of at least `amount`."
      }
    },
    "version": 1
  },
  "userdoc": {
    "kind": "user",
    "methods": {},
    "version": 1
  }
}