{
  "contractName": "GladiatorsGame",
  "abi": [
    {
      "inputs": [
        {
          "internalType": "address",
          "name": "mtkAddress",
          "type": "address"
        },
        {
          "internalType": "address",
          "name": "nftAddress",
          "type": "address"
        }
      ],
      "stateMutability": "nonpayable",
      "type": "constructor"
    },
    {
      "inputs": [],
      "name": "nonValidSkin",
      "type": "error"
    },
    {
      "inputs": [],
      "name": "nonValidWeapon",
      "type": "error"
    },
    {
      "anonymous": false,
      "inputs": [
        {
          "indexed": true,
          "internalType": "address",
          "name": "previousOwner",
          "type": "address"
        },
        {
          "indexed": true,
          "internalType": "address",
          "name": "newOwner",
          "type": "address"
        }
      ],
      "name": "OwnershipTransferred",
      "type": "event"
    },
    {
      "anonymous": false,
      "inputs": [
        {
          "indexed": true,
          "internalType": "address",
          "name": "",
          "type": "address"
        }
      ],
      "name": "playerRegistered",
      "type": "event"
    },
    {
      "anonymous": false,
      "inputs": [],
      "name": "startedGame",
      "type": "event"
    },
    {
      "inputs": [],
      "name": "owner",
      "outputs": [
        {
          "internalType": "address",
          "name": "",
          "type": "address"
        }
      ],
      "stateMutability": "view",
      "type": "function",
      "constant": true
    },
    {
      "inputs": [],
      "name": "renounceOwnership",
      "outputs": [],
      "stateMutability": "nonpayable",
      "type": "function"
    },
    {
      "inputs": [
        {
          "internalType": "address",
          "name": "newOwner",
          "type": "address"
        }
      ],
      "name": "transferOwnership",
      "outputs": [],
      "stateMutability": "nonpayable",
      "type": "function"
    },
    {
      "inputs": [],
      "name": "startGame",
      "outputs": [],
      "stateMutability": "nonpayable",
      "type": "function"
    },
    {
      "inputs": [],
      "name": "registerPlayer",
      "outputs": [],
      "stateMutability": "nonpayable",
      "type": "function"
    },
    {
      "inputs": [
        {
          "internalType": "enum GladiatorsGame.Skin",
          "name": "newSkin",
          "type": "uint8"
        },
        {
          "internalType": "enum GladiatorsGame.Weapon",
          "name": "newWeapon",
          "type": "uint8"
        }
      ],
      "name": "createGladiator",
      "outputs": [],
      "stateMutability": "nonpayable",
      "type": "function"
    },
    {
      "inputs": [],
      "name": "fight",
      "outputs": [
        {
          "components": [
            {
              "internalType": "address",
              "name": "id",
              "type": "address"
            },
            {
              "internalType": "uint256",
              "name": "tokens",
              "type": "uint256"
            },
            {
              "internalType": "bool",
              "name": "active",
              "type": "bool"
            },
            {
              "components": [
                {
                  "internalType": "enum GladiatorsGame.Skin",
                  "name": "skin",
                  "type": "uint8"
                },
                {
                  "internalType": "enum GladiatorsGame.Weapon",
                  "name": "weapon",
                  "type": "uint8"
                },
                {
                  "internalType": "uint256",
                  "name": "strengthPoints",
                  "type": "uint256"
                },
                {
                  "internalType": "bool",
                  "name": "isActive",
                  "type": "bool"
                }
              ],
              "internalType": "struct GladiatorsGame.Gladiator",
              "name": "gladiator",
              "type": "tuple"
            }
          ],
          "internalType": "struct GladiatorsGame.Player",
          "name": "",
          "type": "tuple"
        }
      ],
      "stateMutability": "nonpayable",
      "type": "function"
    },
    {
      "inputs": [],
      "name": "getMyData",
      "outputs": [
        {
          "components": [
            {
              "internalType": "address",
              "name": "id",
              "type": "address"
            },
            {
              "internalType": "uint256",
              "name": "tokens",
              "type": "uint256"
            },
            {
              "internalType": "bool",
              "name": "active",
              "type": "bool"
            },
            {
              "components": [
                {
                  "internalType": "enum GladiatorsGame.Skin",
                  "name": "skin",
                  "type": "uint8"
                },
                {
                  "internalType": "enum GladiatorsGame.Weapon",
                  "name": "weapon",
                  "type": "uint8"
                },
                {
                  "internalType": "uint256",
                  "name": "strengthPoints",
                  "type": "uint256"
                },
                {
                  "internalType": "bool",
                  "name": "isActive",
                  "type": "bool"
                }
              ],
              "internalType": "struct GladiatorsGame.Gladiator",
              "name": "gladiator",
              "type": "tuple"
            }
          ],
          "internalType": "struct GladiatorsGame.Player",
          "name": "",
          "type": "tuple"
        }
      ],
      "stateMutability": "view",
      "type": "function",
      "constant": true
    }
  ],
  "bytecode": "0x608060405260006003553480156200001657600080fd5b5060405162001710380380620017108339810160408190526200003991620000ed565b620000443362000080565b60048054610100600160a81b0319166101006001600160a01b0394851602179055600580546001600160a01b0319169190921617905562000125565b600080546001600160a01b038381166001600160a01b0319831681178455604051919092169283917f8be0079c531659141344cd1fd0a4f28419497f9722a3daafe3b4186f6b6457e09190a35050565b80516001600160a01b0381168114620000e857600080fd5b919050565b600080604083850312156200010157600080fd5b6200010c83620000d0565b91506200011c60208401620000d0565b90509250929050565b6115db80620001356000396000f3fe608060405234801561001057600080fd5b50600436106100885760003560e01c80638f8f08d21161005b5780638f8f08d2146100d8578063d65ab5f2146100eb578063d9c8a38b146100f3578063f2fde38b146100fb57600080fd5b8063457df8de1461008d5780635c07a4b0146100ab578063715018a6146100b55780638da5cb5b146100bd575b600080fd5b61009561010e565b6040516100a291906113e2565b60405180910390f35b6100b361077f565b005b6100b361097f565b6000546040516001600160a01b0390911681526020016100a2565b6100b36100e636600461145e565b610993565b6100b3610e1b565b610095610fe3565b6100b36101093660046114ac565b6110cb565b610116611352565b3360009081526006602052604090206002015460ff166101755760405162461bcd60e51b8152602060048201526015602482015274141b185e595c881b9bdd081c9959da5cdd195c9959605a1b60448201526064015b60405180910390fd5b3360009081526006602052604090206005015460ff166101d75760405162461bcd60e51b815260206004820152601e60248201527f476c61646961746f72206973206e6f7420616374697661746564207965740000604482015260640161016c565b6001546001600160a01b031615806101f857506002546001600160a01b0316155b6102445760405162461bcd60e51b815260206004820152601c60248201527f546865726520617265206e6f20736c6f747320617661696c61626c6500000000604482015260640161016c565b3360009081526006602052604090206001810154674563918244f4000011156102bb5760405162461bcd60e51b8152602060048201526024808201527f596f7520646f6e2774206861766520656e6f75676820706f696e747320746f20604482015263706c617960e01b606482015260840161016c565b60048054604051631cdacd5960e31b81523392810192909252306024830152674563918244f40000604483015261010090046001600160a01b03169063e6d66ac890606401600060405180830381600087803b15801561031a57600080fd5b505af115801561032e573d6000803e3d6000fd5b5050600480546040516370a0823160e01b8152339281019290925261010090046001600160a01b031692506370a082319150602401602060405180830381865afa158015610380573d6000803e3d6000fd5b505050506040513d601f19601f820116820180604052508101906103a491906114d0565b60018201818155674563918244f40000916000906103c39084906114ff565b92505081905550674563918244f40000600360008282546103e49190611512565b90915550506001546001600160a01b031661041057600180546001600160a01b03191633179055610633565b600280546001600160a01b0319163390811790915560015460009161043e916001600160a01b031690611144565b60048054600354604051631cdacd5960e31b815230938101939093526001600160a01b038085166024850152604484019190915292935061010090049091169063e6d66ac890606401600060405180830381600087803b1580156104a157600080fd5b505af11580156104b5573d6000803e3d6000fd5b5050600480546040516370a0823160e01b81526001600160a01b038681169382019390935261010090910490911692506370a082319150602401602060405180830381865afa15801561050c573d6000803e3d6000fd5b505050506040513d601f19601f8201168201806040525081019061053091906114d0565b6001600160a01b0380831660009081526006602090815260408083206001808201968755600394855580546001600160a01b0319908116909155600280549091168155825160808082018552835490971681529654938701939093528281015460ff90811615158784015282519586019092529283018054939460608701949093919284929116908111156105c7576105c76113ae565b60028111156105d8576105d86113ae565b81528154602090910190610100900460ff1660028111156105fb576105fb6113ae565b600281111561060c5761060c6113ae565b81526001820154602082015260029091015460ff1615156040909101529052509392505050565b600080526006602090815260408051608080820183527f54cdd369e4e8a8515e52ca72ec816c2101831ad1f18bf44102ed171459c9b4f880546001600160a01b031683527f54cdd369e4e8a8515e52ca72ec816c2101831ad1f18bf44102ed171459c9b4f954948301949094527f54cdd369e4e8a8515e52ca72ec816c2101831ad1f18bf44102ed171459c9b4fa5460ff90811615158385015283519182019093527f54cdd369e4e8a8515e52ca72ec816c2101831ad1f18bf44102ed171459c9b4fb805492949360608601938391166002811115610714576107146113ae565b6002811115610725576107256113ae565b81528154602090910190610100900460ff166002811115610748576107486113ae565b6002811115610759576107596113ae565b81526001820154602082015260029091015460ff16151560409091015290525092915050565b60045460ff166107c85760405162461bcd60e51b815260206004820152601460248201527311d85b59481b9bdd081cdd185c9d1959081e595d60621b604482015260640161016c565b3360009081526006602052604090206002015460ff161561082b5760405162461bcd60e51b815260206004820152601860248201527f506c6179657220616c7265616479207265676973746572640000000000000000604482015260640161016c565b336000818152600660205260409081902080546001600160a01b031916831790556004805491516340c10f1960e01b8152908101929092526802b5e3af16b1880000602483015261010090046001600160a01b0316906340c10f1990604401600060405180830381600087803b1580156108a457600080fd5b505af11580156108b8573d6000803e3d6000fd5b5050600480546040516370a0823160e01b8152339281019290925261010090046001600160a01b031692506370a082319150602401602060405180830381865afa15801561090a573d6000803e3d6000fd5b505050506040513d601f19601f8201168201806040525081019061092e91906114d0565b33600081815260066020526040808220600180820195909555600201805460ff1916909417909355915190917f9b66d49082843aa418cd502edc3b870cda1cef5aa3c1e289ca61475532afd35691a2565b61098761118e565b61099160006111e8565b565b336000908152600660205260409020600281015460ff166109f65760405162461bcd60e51b815260206004820152601860248201527f506c61796572206973206e6f7420726567697374657265640000000000000000604482015260640161016c565b6000836002811115610a0a57610a0a6113ae565b03610c9757674563918244f4000067d02ab486cedc00008260010154610a3091906114ff565b1015610a4e5760405162461bcd60e51b815260040161016c90611525565b610a6167d02ab486cedc00006001611238565b6000826002811115610a7557610a756113ae565b03610b3657674563918244f4000067d02ab486cedc00008260010154610a9b91906114ff565b1015610ab95760405162461bcd60e51b815260040161016c90611525565b610acc67d02ab486cedc00006001611238565b6005546040516340c10f1960e01b8152336004820152600160248201526001600160a01b03909116906340c10f19906044015b600060405180830381600087803b158015610b1957600080fd5b505af1158015610b2d573d6000803e3d6000fd5b50505050610d8a565b6001826002811115610b4a57610b4a6113ae565b03610bda57674563918244f4000068015af1d78b58c400008260010154610b7191906114ff565b1015610b8f5760405162461bcd60e51b815260040161016c90611525565b610ba368015af1d78b58c400006002611238565b6005546040516340c10f1960e01b8152336004820152600260248201526001600160a01b03909116906340c10f1990604401610aff565b6002826002811115610bee57610bee6113ae565b03610c7e57674563918244f400006801a055690d9db800008260010154610c1591906114ff565b1015610c335760405162461bcd60e51b815260040161016c90611525565b610c476801a055690d9db800006003611238565b6005546040516340c10f1960e01b8152336004820152600360248201526001600160a01b03909116906340c10f1990604401610aff565b604051637543e45b60e11b815260040160405180910390fd5b6001836002811115610cab57610cab6113ae565b03610d0457674563918244f4000068015af1d78b58c400008260010154610cd291906114ff565b1015610cf05760405162461bcd60e51b815260040161016c90611525565b610a6168015af1d78b58c400006002611238565b6002836002811115610d1857610d186113ae565b03610d7157674563918244f400006801a055690d9db800008260010154610d3f91906114ff565b1015610d5d5760405162461bcd60e51b815260040161016c90611525565b610a616801a055690d9db800006003611238565b6040516301f6ac1d60e71b815260040160405180910390fd5b671bc16d674ec800008160010154610da29190611566565b600482018054600090610db6908490611512565b909155505060038101805484919060ff19166001836002811115610ddc57610ddc6113ae565b021790555060038101805483919061ff001916610100836002811115610e0457610e046113ae565b0217905550600501805460ff191660011790555050565b610e2361118e565b306001600160a01b0316600460019054906101000a90046001600160a01b03166001600160a01b031663273470e56040518163ffffffff1660e01b8152600401602060405180830381865afa158015610e80573d6000803e3d6000fd5b505050506040513d601f19601f82011682018060405250810190610ea49190611588565b6001600160a01b031614610ef15760405162461bcd60e51b815260206004820152601460248201527311d85b594818d85b89dd081cdd185c9d081e595d60621b604482015260640161016c565b6005546040805163273470e560e01b8152905130926001600160a01b03169163273470e59160048083019260209291908290030181865afa158015610f3a573d6000803e3d6000fd5b505050506040513d601f19601f82011682018060405250810190610f5e9190611588565b6001600160a01b031614610fab5760405162461bcd60e51b815260206004820152601460248201527311d85b594818d85b89dd081cdd185c9d081e595d60621b604482015260640161016c565b6004805460ff191660011790556040517fa256766d903fb548a6aa83a1b97999683fd1aa2f8a909b8ffab16fa4b38e4a4f90600090a1565b610feb611352565b3360009081526006602090815260409182902082516080808201855282546001600160a01b0316825260018301549382019390935260028083015460ff908116151583870152855194850190955260038301805492959394606087019490939192849290911690811115611061576110616113ae565b6002811115611072576110726113ae565b81528154602090910190610100900460ff166002811115611095576110956113ae565b60028111156110a6576110a66113ae565b81526001820154602082015260029091015460ff161515604090910152905250919050565b6110d361118e565b6001600160a01b0381166111385760405162461bcd60e51b815260206004820152602660248201527f4f776e61626c653a206e6577206f776e657220697320746865207a65726f206160448201526564647265737360d01b606482015260840161016c565b611141816111e8565b50565b6001600160a01b0380831660009081526006602052604080822060049081015493851683529082200154909190808210611182578492505050611188565b83925050505b92915050565b6000546001600160a01b031633146109915760405162461bcd60e51b815260206004820181905260248201527f4f776e61626c653a2063616c6c6572206973206e6f7420746865206f776e6572604482015260640161016c565b600080546001600160a01b038381166001600160a01b0319831681178455604051919092169283917f8be0079c531659141344cd1fd0a4f28419497f9722a3daafe3b4186f6b6457e09190a35050565b3360008181526006602052604090819020600480549251631cdacd5960e31b8152908101939093526101009091046001600160a01b03166024830181905260448301859052909163e6d66ac890606401600060405180830381600087803b1580156112a257600080fd5b505af11580156112b6573d6000803e3d6000fd5b5050600480546040516370a0823160e01b8152339281019290925261010090046001600160a01b031692506370a082319150602401602060405180830381865afa158015611308573d6000803e3d6000fd5b505050506040513d601f19601f8201168201806040525081019061132c91906114d0565b6001820155600481018054839190600090611348908490611512565b9091555050505050565b604051806080016040528060006001600160a01b03168152602001600081526020016000151581526020016113a9604080516080810190915280600081526020016000815260006020820181905260409091015290565b905290565b634e487b7160e01b600052602160045260246000fd5b6003811061114157634e487b7160e01b600052602160045260246000fd5b81516001600160a01b03168152602080830151908201526040808301511515908201526060820151805160e08301919061141b816113c4565b6060840152602081015161142e816113c4565b6080840152604081015160a084015260600151151560c090920191909152919050565b6003811061114157600080fd5b6000806040838503121561147157600080fd5b823561147c81611451565b9150602083013561148c81611451565b809150509250929050565b6001600160a01b038116811461114157600080fd5b6000602082840312156114be57600080fd5b81356114c981611497565b9392505050565b6000602082840312156114e257600080fd5b5051919050565b634e487b7160e01b600052601160045260246000fd5b81810381811115611188576111886114e9565b80820180821115611188576111886114e9565b60208082526021908201527f506c6179657220646f65736e2774206861766520656e6f75676820746f6b656e6040820152607360f81b606082015260800190565b60008261158357634e487b7160e01b600052601260045260246000fd5b500490565b60006020828403121561159a57600080fd5b81516114c98161149756fea2646970667358221220358c96a6009d42376e25610025ba12c0c88d87559736b8ae46181bcdff53027064736f6c63430008130033",
  "immutableReferences": {},
  "source": "\r\n// SPDX-License-Identifier: UNLICENSED\r\npragma solidity ^0.8.18;\r\n\r\nimport \"../node_modules/@openzeppelin/contracts/access/Ownable.sol\";\r\n\r\nimport \"./myToken.sol\";\r\nimport \"./myNFT.sol\";\r\n\r\n\r\ncontract GladiatorsGame is Ownable {\r\n\r\n    // address owner;\r\n    address playerOne;\r\n    address playerTwo;\r\n    uint256 tipJar = 0;\r\n    bool gameStarted;\r\n\r\n    MyToken myToken;\r\n    GladiatorNFT myNFT;\r\n\r\n    //Mappings\r\n    mapping(address => Player) registeredPlayers;\r\n\r\n    //Player\r\n    struct Player{\r\n        address id;\r\n        uint256 tokens;\r\n        bool active;\r\n        Gladiator gladiator;\r\n    }\r\n\r\n    //Gladiator\r\n    struct Gladiator {\r\n        Skin skin;\r\n        Weapon weapon;\r\n        uint256 strengthPoints;\r\n        bool isActive;\r\n    }\r\n\r\n    enum Skin {\r\n        boots,\r\n        helmet,\r\n        armor\r\n    }\r\n\r\n    enum Weapon {\r\n        sword,\r\n        spear,\r\n        trident\r\n    }\r\n\r\n    //Error\r\n    error nonValidSkin();\r\n    error nonValidWeapon();\r\n\r\n    //Events\r\n    event startedGame();\r\n    event playerRegistered(address indexed);\r\n\r\n    //Modifier\r\n    // modifier onlyOwner() {\r\n    //     require(msg.sender == owner, \"Unauthorized\");\r\n    //     _;\r\n    // }\r\n\r\n    constructor(address mtkAddress, address nftAddress){\r\n        // owner = msg.sender;\r\n        myToken = MyToken(mtkAddress);\r\n        myNFT = GladiatorNFT(nftAddress);\r\n    }\r\n\r\n    //initialize game\r\n    function startGame() external onlyOwner {\r\n        require(myToken.getGladiatorAddress() == address(this), \"Game can't start yet\");\r\n        require(myNFT.getGladiatorAddress() == address(this), \"Game can't start yet\");\r\n        gameStarted = true;\r\n\r\n        emit startedGame();\r\n    }\r\n\r\n    //register player\r\n    function registerPlayer() external {\r\n        require(gameStarted, \"Game not started yet\");\r\n        require(!registeredPlayers[msg.sender].active, \"Player already registerd\");\r\n\r\n        registeredPlayers[msg.sender].id = address(msg.sender);\r\n        myToken.mint(msg.sender,  50 ether);\r\n        registeredPlayers[msg.sender].tokens = myToken.balanceOf(msg.sender);\r\n        registeredPlayers[msg.sender].active = true;\r\n\r\n        emit playerRegistered(msg.sender);\r\n    }\r\n\r\n    //Select items\r\n    function createGladiator(Skin newSkin, Weapon newWeapon) external {\r\n        Player storage currentPlayer = registeredPlayers[msg.sender];\r\n        require(currentPlayer.active, \"Player is not registered\");\r\n        \r\n\r\n        if(newSkin == Skin.boots){\r\n            require(currentPlayer.tokens - 15 ether >= 5 ether, \"Player doesn't have enough tokens\");\r\n            setNewElement(15 ether, 1);\r\n\r\n            if(newWeapon == Weapon.sword){\r\n                require(currentPlayer.tokens - 15 ether >= 5 ether, \"Player doesn't have enough tokens\");\r\n                setNewElement(15 ether, 1);\r\n                myNFT.mint(msg.sender, 1);\r\n\r\n            } else if (newWeapon == Weapon.spear){\r\n                require(currentPlayer.tokens - 25 ether >= 5 ether, \"Player doesn't have enough tokens\");\r\n                setNewElement(25 ether, 2);\r\n                myNFT.mint(msg.sender, 2);\r\n\r\n            } else if (newWeapon == Weapon.trident){\r\n                require(currentPlayer.tokens - 30 ether >= 5 ether, \"Player doesn't have enough tokens\");\r\n                setNewElement(30 ether, 3);\r\n                myNFT.mint(msg.sender, 3);\r\n\r\n            } else {\r\n                revert nonValidWeapon();\r\n            }\r\n\r\n        } else if (newSkin == Skin.helmet){\r\n\r\n            require(currentPlayer.tokens - 25 ether >= 5 ether, \"Player doesn't have enough tokens\");\r\n            setNewElement(25 ether, 2);\r\n\r\n            if(newWeapon == Weapon.sword){\r\n                require(currentPlayer.tokens - 15 ether >= 5 ether, \"Player doesn't have enough tokens\");\r\n                setNewElement(15 ether, 1);\r\n                myNFT.mint(msg.sender, 1);\r\n\r\n            } else if (newWeapon == Weapon.spear){\r\n                require(currentPlayer.tokens - 25 ether >= 5 ether, \"Player doesn't have enough tokens\");\r\n                setNewElement(25 ether, 2);\r\n                myNFT.mint(msg.sender, 2);\r\n\r\n            } else if (newWeapon == Weapon.trident){\r\n                require(currentPlayer.tokens - 30 ether >= 5 ether, \"Player doesn't have enough tokens\");\r\n                setNewElement(30 ether, 3);\r\n                myNFT.mint(msg.sender, 3);\r\n\r\n            } else {\r\n                revert nonValidWeapon();\r\n            }\r\n\r\n        } else if (newSkin == Skin.armor){\r\n\r\n            require(currentPlayer.tokens - 30 ether >= 5 ether, \"Player doesn't have enough tokens\");\r\n            setNewElement(30 ether, 3);\r\n\r\n            if(newWeapon == Weapon.sword){\r\n                require(currentPlayer.tokens - 15 ether >= 5 ether, \"Player doesn't have enough tokens\");\r\n                setNewElement(15 ether, 1);\r\n                myNFT.mint(msg.sender, 1);\r\n\r\n            } else if (newWeapon == Weapon.spear){\r\n                require(currentPlayer.tokens - 25 ether >= 5 ether, \"Player doesn't have enough tokens\");\r\n                setNewElement(25 ether, 2);\r\n                myNFT.mint(msg.sender, 2);\r\n\r\n            } else if (newWeapon == Weapon.trident){\r\n                require(currentPlayer.tokens - 30 ether >= 5 ether, \"Player doesn't have enough tokens\");\r\n                setNewElement(30 ether, 3);\r\n                myNFT.mint(msg.sender, 3);\r\n\r\n            } else {\r\n                revert nonValidWeapon();\r\n            }\r\n\r\n        } else {\r\n            revert nonValidSkin();\r\n        }\r\n\r\n        currentPlayer.gladiator.strengthPoints += (currentPlayer.tokens/2 ether);\r\n        currentPlayer.gladiator.skin = newSkin;\r\n        currentPlayer.gladiator.weapon = newWeapon;\r\n        currentPlayer.gladiator.isActive = true; \r\n    }\r\n\r\n    //Fight\r\n    function fight() external returns(Player memory){\r\n        require(registeredPlayers[msg.sender].active, \"Player not registered\");\r\n        require(registeredPlayers[msg.sender].gladiator.isActive, \"Gladiator is not activated yet\");\r\n        require(playerOne == address(0) || playerTwo == address(0), \"There are no slots available\");\r\n\r\n        Player storage currentPlayer = registeredPlayers[msg.sender];\r\n        require(currentPlayer.tokens >= 5 ether, \"You don't have enough points to play\");\r\n\r\n\r\n        myToken.sendTokens(msg.sender, address(this), 5 ether);\r\n        currentPlayer.tokens = myToken.balanceOf(msg.sender);\r\n\r\n        currentPlayer.tokens -= 5 ether;\r\n        tipJar += 5 ether;\r\n\r\n        if(playerOne == address(0)){\r\n            playerOne = msg.sender;\r\n        } else {\r\n            playerTwo = msg.sender;\r\n\r\n            //Start fight\r\n            address winnerAddress = startFight(playerOne, playerTwo);\r\n\r\n            //Give points\r\n            myToken.sendTokens(address(this), winnerAddress, tipJar);\r\n            registeredPlayers[winnerAddress].tokens = myToken.balanceOf(winnerAddress);\r\n            tipJar = 0;\r\n\r\n            //Reset variables\r\n            playerOne = address(0);\r\n            playerTwo = address(0);\r\n            \r\n            return registeredPlayers[winnerAddress];\r\n        }\r\n\r\n        return registeredPlayers[address(0)];\r\n    }\r\n\r\n    function startFight(address p1, address p2) private view returns(address){\r\n        uint p1Pts = registeredPlayers[p1].gladiator.strengthPoints;\r\n        uint p2Pts = registeredPlayers[p2].gladiator.strengthPoints;\r\n\r\n        if(p1Pts >= p2Pts){\r\n            return p1;\r\n        } else {\r\n            return p2;\r\n        }\r\n    }\r\n\r\n    function getMyData() external view returns(Player memory){\r\n        return registeredPlayers[msg.sender];\r\n    }\r\n\r\n    function setNewElement(uint256 amount, uint256 points) private {\r\n        Player storage currentPlayer = registeredPlayers[msg.sender];\r\n        myToken.sendTokens(msg.sender, address(myToken), amount);\r\n        currentPlayer.tokens = myToken.balanceOf(msg.sender);\r\n        currentPlayer.gladiator.strengthPoints += points;\r\n    }\r\n}",
  "sourcePath": "D:\\Documentos\\END\\curso\\Tema_6\\DAO\\contracts\\gladiator.sol",
  "compiler": {
    "name": "solc",
    "version": "0.8.19+commit.7dd6d404.Emscripten.clang"
  },
  "schemaVersion": "3.4.8",
  "updatedAt": "2023-04-12T11:00:24.884Z",
  "networkType": "ethereum",
  "devdoc": {
    "kind": "dev",
    "methods": {
      "owner()": {
        "details": "Returns the address of the current owner."
      },
      "renounceOwnership()": {
        "details": "Leaves the contract without owner. It will not be possible to call `onlyOwner` functions anymore. Can only be called by the current owner. NOTE: Renouncing ownership will leave the contract without an owner, thereby removing any functionality that is only available to the owner."
      },
      "transferOwnership(address)": {
        "details": "Transfers ownership of the contract to a new account (`newOwner`). Can only be called by the current owner."
      }
    },
    "version": 1
  },
  "userdoc": {
    "kind": "user",
    "methods": {},
    "version": 1
  }
}