{
  "contractName": "GladiatorNFT",
  "abi": [
    {
      "inputs": [
        {
          "internalType": "string",
          "name": "newBaseURI",
          "type": "string"
        }
      ],
      "stateMutability": "nonpayable",
      "type": "constructor"
    },
    {
      "anonymous": false,
      "inputs": [
        {
          "indexed": true,
          "internalType": "address",
          "name": "account",
          "type": "address"
        },
        {
          "indexed": true,
          "internalType": "address",
          "name": "operator",
          "type": "address"
        },
        {
          "indexed": false,
          "internalType": "bool",
          "name": "approved",
          "type": "bool"
        }
      ],
      "name": "ApprovalForAll",
      "type": "event"
    },
    {
      "anonymous": false,
      "inputs": [
        {
          "indexed": true,
          "internalType": "address",
          "name": "operator",
          "type": "address"
        },
        {
          "indexed": true,
          "internalType": "address",
          "name": "from",
          "type": "address"
        },
        {
          "indexed": true,
          "internalType": "address",
          "name": "to",
          "type": "address"
        },
        {
          "indexed": false,
          "internalType": "uint256[]",
          "name": "ids",
          "type": "uint256[]"
        },
        {
          "indexed": false,
          "internalType": "uint256[]",
          "name": "values",
          "type": "uint256[]"
        }
      ],
      "name": "TransferBatch",
      "type": "event"
    },
    {
      "anonymous": false,
      "inputs": [
        {
          "indexed": true,
          "internalType": "address",
          "name": "operator",
          "type": "address"
        },
        {
          "indexed": true,
          "internalType": "address",
          "name": "from",
          "type": "address"
        },
        {
          "indexed": true,
          "internalType": "address",
          "name": "to",
          "type": "address"
        },
        {
          "indexed": false,
          "internalType": "uint256",
          "name": "id",
          "type": "uint256"
        },
        {
          "indexed": false,
          "internalType": "uint256",
          "name": "value",
          "type": "uint256"
        }
      ],
      "name": "TransferSingle",
      "type": "event"
    },
    {
      "anonymous": false,
      "inputs": [
        {
          "indexed": false,
          "internalType": "string",
          "name": "value",
          "type": "string"
        },
        {
          "indexed": true,
          "internalType": "uint256",
          "name": "id",
          "type": "uint256"
        }
      ],
      "name": "URI",
      "type": "event"
    },
    {
      "inputs": [
        {
          "internalType": "address",
          "name": "account",
          "type": "address"
        },
        {
          "internalType": "uint256",
          "name": "id",
          "type": "uint256"
        }
      ],
      "name": "balanceOf",
      "outputs": [
        {
          "internalType": "uint256",
          "name": "",
          "type": "uint256"
        }
      ],
      "stateMutability": "view",
      "type": "function",
      "constant": true
    },
    {
      "inputs": [
        {
          "internalType": "address[]",
          "name": "accounts",
          "type": "address[]"
        },
        {
          "internalType": "uint256[]",
          "name": "ids",
          "type": "uint256[]"
        }
      ],
      "name": "balanceOfBatch",
      "outputs": [
        {
          "internalType": "uint256[]",
          "name": "",
          "type": "uint256[]"
        }
      ],
      "stateMutability": "view",
      "type": "function",
      "constant": true
    },
    {
      "inputs": [
        {
          "internalType": "address",
          "name": "account",
          "type": "address"
        },
        {
          "internalType": "address",
          "name": "operator",
          "type": "address"
        }
      ],
      "name": "isApprovedForAll",
      "outputs": [
        {
          "internalType": "bool",
          "name": "",
          "type": "bool"
        }
      ],
      "stateMutability": "view",
      "type": "function",
      "constant": true
    },
    {
      "inputs": [
        {
          "internalType": "address",
          "name": "from",
          "type": "address"
        },
        {
          "internalType": "address",
          "name": "to",
          "type": "address"
        },
        {
          "internalType": "uint256[]",
          "name": "ids",
          "type": "uint256[]"
        },
        {
          "internalType": "uint256[]",
          "name": "amounts",
          "type": "uint256[]"
        },
        {
          "internalType": "bytes",
          "name": "data",
          "type": "bytes"
        }
      ],
      "name": "safeBatchTransferFrom",
      "outputs": [],
      "stateMutability": "nonpayable",
      "type": "function"
    },
    {
      "inputs": [
        {
          "internalType": "address",
          "name": "from",
          "type": "address"
        },
        {
          "internalType": "address",
          "name": "to",
          "type": "address"
        },
        {
          "internalType": "uint256",
          "name": "id",
          "type": "uint256"
        },
        {
          "internalType": "uint256",
          "name": "amount",
          "type": "uint256"
        },
        {
          "internalType": "bytes",
          "name": "data",
          "type": "bytes"
        }
      ],
      "name": "safeTransferFrom",
      "outputs": [],
      "stateMutability": "nonpayable",
      "type": "function"
    },
    {
      "inputs": [
        {
          "internalType": "address",
          "name": "operator",
          "type": "address"
        },
        {
          "internalType": "bool",
          "name": "approved",
          "type": "bool"
        }
      ],
      "name": "setApprovalForAll",
      "outputs": [],
      "stateMutability": "nonpayable",
      "type": "function"
    },
    {
      "inputs": [
        {
          "internalType": "bytes4",
          "name": "interfaceId",
          "type": "bytes4"
        }
      ],
      "name": "supportsInterface",
      "outputs": [
        {
          "internalType": "bool",
          "name": "",
          "type": "bool"
        }
      ],
      "stateMutability": "view",
      "type": "function",
      "constant": true
    },
    {
      "inputs": [
        {
          "internalType": "uint256",
          "name": "",
          "type": "uint256"
        }
      ],
      "name": "uri",
      "outputs": [
        {
          "internalType": "string",
          "name": "",
          "type": "string"
        }
      ],
      "stateMutability": "view",
      "type": "function",
      "constant": true
    },
    {
      "inputs": [
        {
          "internalType": "address",
          "name": "receiver",
          "type": "address"
        },
        {
          "internalType": "uint256",
          "name": "tokenId",
          "type": "uint256"
        }
      ],
      "name": "mint",
      "outputs": [],
      "stateMutability": "nonpayable",
      "type": "function"
    },
    {
      "inputs": [
        {
          "internalType": "uint256",
          "name": "tokenId",
          "type": "uint256"
        }
      ],
      "name": "tokenURI",
      "outputs": [
        {
          "internalType": "string",
          "name": "",
          "type": "string"
        }
      ],
      "stateMutability": "view",
      "type": "function",
      "constant": true
    },
    {
      "inputs": [],
      "name": "getGladiatorAddress",
      "outputs": [
        {
          "internalType": "address",
          "name": "",
          "type": "address"
        }
      ],
      "stateMutability": "view",
      "type": "function",
      "constant": true
    },
    {
      "inputs": [],
      "name": "getMyNFT",
      "outputs": [
        {
          "internalType": "uint256",
          "name": "",
          "type": "uint256"
        }
      ],
      "stateMutability": "view",
      "type": "function",
      "constant": true
    },
    {
      "inputs": [
        {
          "internalType": "address",
          "name": "newAddress",
          "type": "address"
        }
      ],
      "name": "setGladiatorAddress",
      "outputs": [
        {
          "internalType": "address",
          "name": "",
          "type": "address"
        }
      ],
      "stateMutability": "nonpayable",
      "type": "function"
    }
  ],
  "bytecode": "0x60806040523480156200001157600080fd5b5060405162001c8b38038062001c8b833981016040819052620000349162000129565b600580546200004390620001fe565b80601f01602080910402602001604051908101604052809291908181526020018280546200007190620001fe565b8015620000c25780601f106200009657610100808354040283529160200191620000c2565b820191906000526020600020905b815481529060010190602001808311620000a457829003601f168201915b5050505050620000d8816200010160201b60201c565b50600480546001600160a01b031916331790556005620000f982826200028d565b505062000359565b60026200010f82826200028d565b5050565b634e487b7160e01b600052604160045260246000fd5b600060208083850312156200013d57600080fd5b82516001600160401b03808211156200015557600080fd5b818501915085601f8301126200016a57600080fd5b8151818111156200017f576200017f62000113565b604051601f8201601f19908116603f01168101908382118183101715620001aa57620001aa62000113565b816040528281528886848701011115620001c357600080fd5b600093505b82841015620001e75784840186015181850187015292850192620001c8565b600086848301015280965050505050505092915050565b600181811c908216806200021357607f821691505b6020821081036200023457634e487b7160e01b600052602260045260246000fd5b50919050565b601f8211156200028857600081815260208120601f850160051c81016020861015620002635750805b601f850160051c820191505b8181101562000284578281556001016200026f565b5050505b505050565b81516001600160401b03811115620002a957620002a962000113565b620002c181620002ba8454620001fe565b846200023a565b602080601f831160018114620002f95760008415620002e05750858301515b600019600386901b1c1916600185901b17855562000284565b600085815260208120601f198616915b828110156200032a5788860151825594840194600190910190840162000309565b5085821015620003495787850151600019600388901b60f8161c191681555b5050505050600190811b01905550565b61192280620003696000396000f3fe608060405234801561001057600080fd5b50600436106100ce5760003560e01c80634e1273f41161008c578063cad7d03311610066578063cad7d033146101cf578063ce50b847146101e4578063e985e9c5146101f7578063f242432a1461023357600080fd5b80634e1273f414610189578063a22cb465146101a9578063c87b56dd146101bc57600080fd5b8062fdd58e146100d357806301ffc9a7146100f95780630e89341c1461011c578063273470e51461013c5780632eb2c2d61461016157806340c10f1914610176575b600080fd5b6100e66100e1366004610fef565b610246565b6040519081526020015b60405180910390f35b61010c610107366004611032565b6102df565b60405190151581526020016100f0565b61012f61012a366004611056565b61032f565b6040516100f091906110bf565b6003546001600160a01b03165b6040516001600160a01b0390911681526020016100f0565b61017461016f36600461121e565b6103c3565b005b610174610184366004610fef565b61040f565b61019c6101973660046112c8565b6104af565b6040516100f091906113ce565b6101746101b73660046113e1565b6105d9565b61012f6101ca366004611056565b6105e8565b336000908152600660205260409020546100e6565b6101496101f236600461141d565b610646565b61010c610205366004611438565b6001600160a01b03918216600090815260016020908152604080832093909416825291909152205460ff1690565b61017461024136600461146b565b6106cc565b60006001600160a01b0383166102b65760405162461bcd60e51b815260206004820152602a60248201527f455243313135353a2061646472657373207a65726f206973206e6f742061207660448201526930b634b21037bbb732b960b11b60648201526084015b60405180910390fd5b506000818152602081815260408083206001600160a01b03861684529091529020545b92915050565b60006001600160e01b03198216636cdb3d1360e11b148061031057506001600160e01b031982166303a24d0760e21b145b806102d957506301ffc9a760e01b6001600160e01b03198316146102d9565b60606002805461033e906114d0565b80601f016020809104026020016040519081016040528092919081815260200182805461036a906114d0565b80156103b75780601f1061038c576101008083540402835291602001916103b7565b820191906000526020600020905b81548152906001019060200180831161039a57829003601f168201915b50505050509050919050565b6001600160a01b0385163314806103df57506103df8533610205565b6103fb5760405162461bcd60e51b81526004016102ad9061150a565b6104088585858585610711565b5050505050565b6004546001600160a01b031633148061043257506003546001600160a01b031633145b61046d5760405162461bcd60e51b815260206004820152600c60248201526b155b985d5d1a1bdc9a5e995960a21b60448201526064016102ad565b61048982826001604051806020016040528060008152506108ee565b610492816105e8565b506001600160a01b03909116600090815260066020526040902055565b606081518351146105145760405162461bcd60e51b815260206004820152602960248201527f455243313135353a206163636f756e747320616e6420696473206c656e677468604482015268040dad2e6dac2e8c6d60bb1b60648201526084016102ad565b6000835167ffffffffffffffff811115610530576105306110d2565b604051908082528060200260200182016040528015610559578160200160208202803683370190505b50905060005b84518110156105d1576105a485828151811061057d5761057d611558565b602002602001015185838151811061059757610597611558565b6020026020010151610246565b8282815181106105b6576105b6611558565b60209081029190910101526105ca81611584565b905061055f565b509392505050565b6105e4338383610a02565b5050565b60606000600580546105f9906114d0565b90501161061557604051806020016040528060008152506102d9565b600561062083610ae2565b6040516020016106319291906115b9565b60405160208183030381529060405292915050565b6004546000906001600160a01b031633148061066c57506003546001600160a01b031633145b6106a75760405162461bcd60e51b815260206004820152600c60248201526b155b985d5d1a1bdc9a5e995960a21b60448201526064016102ad565b50600380546001600160a01b0319166001600160a01b0383169081179091555b919050565b6001600160a01b0385163314806106e857506106e88533610205565b6107045760405162461bcd60e51b81526004016102ad9061150a565b6104088585858585610b75565b81518351146107735760405162461bcd60e51b815260206004820152602860248201527f455243313135353a2069647320616e6420616d6f756e7473206c656e677468206044820152670dad2e6dac2e8c6d60c31b60648201526084016102ad565b6001600160a01b0384166107995760405162461bcd60e51b81526004016102ad90611677565b3360005b84518110156108805760008582815181106107ba576107ba611558565b6020026020010151905060008583815181106107d8576107d8611558565b602090810291909101810151600084815280835260408082206001600160a01b038e1683529093529190912054909150818110156108285760405162461bcd60e51b81526004016102ad906116bc565b6000838152602081815260408083206001600160a01b038e8116855292528083208585039055908b16825281208054849290610865908490611706565b925050819055505050508061087990611584565b905061079d565b50846001600160a01b0316866001600160a01b0316826001600160a01b03167f4a39dc06d4c0dbc64b70af90fd698a233a518aa5d07e595d983b8c0526c8f7fb87876040516108d0929190611719565b60405180910390a46108e6818787878787610c9f565b505050505050565b6001600160a01b03841661094e5760405162461bcd60e51b815260206004820152602160248201527f455243313135353a206d696e7420746f20746865207a65726f206164647265736044820152607360f81b60648201526084016102ad565b33600061095a85610dfa565b9050600061096785610dfa565b90506000868152602081815260408083206001600160a01b038b16845290915281208054879290610999908490611706565b909155505060408051878152602081018790526001600160a01b03808a1692600092918716917fc3d58168c5ae7397731d063d5bbf3d657854427343f4c083240f7aacaa2d0f62910160405180910390a46109f983600089898989610e45565b50505050505050565b816001600160a01b0316836001600160a01b031603610a755760405162461bcd60e51b815260206004820152602960248201527f455243313135353a2073657474696e6720617070726f76616c20737461747573604482015268103337b91039b2b63360b91b60648201526084016102ad565b6001600160a01b03838116600081815260016020908152604080832094871680845294825291829020805460ff191686151590811790915591519182527f17307eab39ab6107e8899845ad3d59bd9653f200f220920489ca2b5937696c31910160405180910390a3505050565b60606000610aef83610f00565b600101905060008167ffffffffffffffff811115610b0f57610b0f6110d2565b6040519080825280601f01601f191660200182016040528015610b39576020820181803683370190505b5090508181016020015b600019016f181899199a1a9b1b9c1cb0b131b232b360811b600a86061a8153600a8504945084610b4357509392505050565b6001600160a01b038416610b9b5760405162461bcd60e51b81526004016102ad90611677565b336000610ba785610dfa565b90506000610bb485610dfa565b90506000868152602081815260408083206001600160a01b038c16845290915290205485811015610bf75760405162461bcd60e51b81526004016102ad906116bc565b6000878152602081815260408083206001600160a01b038d8116855292528083208985039055908a16825281208054889290610c34908490611706565b909155505060408051888152602081018890526001600160a01b03808b16928c821692918816917fc3d58168c5ae7397731d063d5bbf3d657854427343f4c083240f7aacaa2d0f62910160405180910390a4610c94848a8a8a8a8a610e45565b505050505050505050565b6001600160a01b0384163b156108e65760405163bc197c8160e01b81526001600160a01b0385169063bc197c8190610ce3908990899088908890889060040161173e565b6020604051808303816000875af1925050508015610d1e575060408051601f3d908101601f19168201909252610d1b9181019061179c565b60015b610dca57610d2a6117b9565b806308c379a003610d635750610d3e6117d5565b80610d495750610d65565b8060405162461bcd60e51b81526004016102ad91906110bf565b505b60405162461bcd60e51b815260206004820152603460248201527f455243313135353a207472616e7366657220746f206e6f6e2d455243313135356044820152732932b1b2b4bb32b91034b6b83632b6b2b73a32b960611b60648201526084016102ad565b6001600160e01b0319811663bc197c8160e01b146109f95760405162461bcd60e51b81526004016102ad9061185f565b60408051600180825281830190925260609160009190602080830190803683370190505090508281600081518110610e3457610e34611558565b602090810291909101015292915050565b6001600160a01b0384163b156108e65760405163f23a6e6160e01b81526001600160a01b0385169063f23a6e6190610e8990899089908890889088906004016118a7565b6020604051808303816000875af1925050508015610ec4575060408051601f3d908101601f19168201909252610ec19181019061179c565b60015b610ed057610d2a6117b9565b6001600160e01b0319811663f23a6e6160e01b146109f95760405162461bcd60e51b81526004016102ad9061185f565b60008072184f03e93ff9f4daa797ed6e38ed64bf6a1f0160401b8310610f3f5772184f03e93ff9f4daa797ed6e38ed64bf6a1f0160401b830492506040015b6d04ee2d6d415b85acef81000000008310610f6b576d04ee2d6d415b85acef8100000000830492506020015b662386f26fc100008310610f8957662386f26fc10000830492506010015b6305f5e1008310610fa1576305f5e100830492506008015b6127108310610fb557612710830492506004015b60648310610fc7576064830492506002015b600a83106102d95760010192915050565b80356001600160a01b03811681146106c757600080fd5b6000806040838503121561100257600080fd5b61100b83610fd8565b946020939093013593505050565b6001600160e01b03198116811461102f57600080fd5b50565b60006020828403121561104457600080fd5b813561104f81611019565b9392505050565b60006020828403121561106857600080fd5b5035919050565b60005b8381101561108a578181015183820152602001611072565b50506000910152565b600081518084526110ab81602086016020860161106f565b601f01601f19169290920160200192915050565b60208152600061104f6020830184611093565b634e487b7160e01b600052604160045260246000fd5b601f8201601f1916810167ffffffffffffffff8111828210171561110e5761110e6110d2565b6040525050565b600067ffffffffffffffff82111561112f5761112f6110d2565b5060051b60200190565b600082601f83011261114a57600080fd5b8135602061115782611115565b60405161116482826110e8565b83815260059390931b850182019282810191508684111561118457600080fd5b8286015b8481101561119f5780358352918301918301611188565b509695505050505050565b600082601f8301126111bb57600080fd5b813567ffffffffffffffff8111156111d5576111d56110d2565b6040516111ec601f8301601f1916602001826110e8565b81815284602083860101111561120157600080fd5b816020850160208301376000918101602001919091529392505050565b600080600080600060a0868803121561123657600080fd5b61123f86610fd8565b945061124d60208701610fd8565b9350604086013567ffffffffffffffff8082111561126a57600080fd5b61127689838a01611139565b9450606088013591508082111561128c57600080fd5b61129889838a01611139565b935060808801359150808211156112ae57600080fd5b506112bb888289016111aa565b9150509295509295909350565b600080604083850312156112db57600080fd5b823567ffffffffffffffff808211156112f357600080fd5b818501915085601f83011261130757600080fd5b8135602061131482611115565b60405161132182826110e8565b83815260059390931b850182019282810191508984111561134157600080fd5b948201945b838610156113665761135786610fd8565b82529482019490820190611346565b9650508601359250508082111561137c57600080fd5b5061138985828601611139565b9150509250929050565b600081518084526020808501945080840160005b838110156113c3578151875295820195908201906001016113a7565b509495945050505050565b60208152600061104f6020830184611393565b600080604083850312156113f457600080fd5b6113fd83610fd8565b91506020830135801515811461141257600080fd5b809150509250929050565b60006020828403121561142f57600080fd5b61104f82610fd8565b6000806040838503121561144b57600080fd5b61145483610fd8565b915061146260208401610fd8565b90509250929050565b600080600080600060a0868803121561148357600080fd5b61148c86610fd8565b945061149a60208701610fd8565b93506040860135925060608601359150608086013567ffffffffffffffff8111156114c457600080fd5b6112bb888289016111aa565b600181811c908216806114e457607f821691505b60208210810361150457634e487b7160e01b600052602260045260246000fd5b50919050565b6020808252602e908201527f455243313135353a2063616c6c6572206973206e6f7420746f6b656e206f776e60408201526d195c881bdc88185c1c1c9bdd995960921b606082015260800190565b634e487b7160e01b600052603260045260246000fd5b634e487b7160e01b600052601160045260246000fd5b6000600182016115965761159661156e565b5060010190565b600081516115af81856020860161106f565b9290920192915050565b600080845481600182811c9150808316806115d557607f831692505b602080841082036115f457634e487b7160e01b86526022600452602486fd5b818015611608576001811461161d5761164a565b60ff198616895284151585028901965061164a565b60008b81526020902060005b868110156116425781548b820152908501908301611629565b505084890196505b50505050505061166e61165d828661159d565b64173539b7b760d91b815260050190565b95945050505050565b60208082526025908201527f455243313135353a207472616e7366657220746f20746865207a65726f206164604082015264647265737360d81b606082015260800190565b6020808252602a908201527f455243313135353a20696e73756666696369656e742062616c616e636520666f60408201526939103a3930b739b332b960b11b606082015260800190565b808201808211156102d9576102d961156e565b60408152600061172c6040830185611393565b828103602084015261166e8185611393565b6001600160a01b0386811682528516602082015260a06040820181905260009061176a90830186611393565b828103606084015261177c8186611393565b905082810360808401526117908185611093565b98975050505050505050565b6000602082840312156117ae57600080fd5b815161104f81611019565b600060033d11156117d25760046000803e5060005160e01c5b90565b600060443d10156117e35790565b6040516003193d81016004833e81513d67ffffffffffffffff816024840111818411171561181357505050505090565b828501915081518181111561182b5750505050505090565b843d87010160208285010111156118455750505050505090565b611854602082860101876110e8565b509095945050505050565b60208082526028908201527f455243313135353a204552433131353552656365697665722072656a656374656040820152676420746f6b656e7360c01b606082015260800190565b6001600160a01b03868116825285166020820152604081018490526060810183905260a0608082018190526000906118e190830184611093565b97965050505050505056fea26469706673582212208af9c0ca56250b0718a84d17ea1e8b9ab3d1cc67fb260b950305f16e2e34302864736f6c63430008130033",
  "immutableReferences": {},
  "source": "//SPDX-License-Identifier: MIT\r\n\r\npragma solidity ^0.8.0;\r\n\r\nimport '../node_modules/@openzeppelin/contracts/token/ERC1155/ERC1155.sol';\r\nimport '../node_modules/@openzeppelin/contracts/utils/Strings.sol';\r\n\r\n//Elegimos tokens ERC1155 para poder crear varios gladiadores de una misma\r\n//clase. ERC1155 nos permite esto y adems podemos establecer un URI para cada\r\n//gladiador\r\n\r\ncontract GladiatorNFT is ERC1155{\r\n\r\n    using Strings for uint256;\r\n    \r\n    address private gladiatorAddress;\r\n    address private owner;\r\n    string private baseURI;\r\n\r\n    mapping(address => uint256) ownerOf;\r\n\r\n    modifier onlyAuthorizedAccounts()  {\r\n        require(msg.sender == owner || msg.sender == gladiatorAddress, \"Unauthorized\");\r\n        _;\r\n    }\r\n\r\n    constructor(string memory newBaseURI) ERC1155(baseURI){\r\n        owner = msg.sender;\r\n        baseURI = newBaseURI;\r\n    }\r\n\r\n    //mint just from gameAddress\r\n    function mint(address receiver, uint256 tokenId) external onlyAuthorizedAccounts {\r\n        _mint(receiver, tokenId, 1, \"\");\r\n        tokenURI(tokenId);\r\n        ownerOf[receiver] = tokenId;\r\n    }\r\n\r\n    //URI\r\n    function tokenURI(uint256 tokenId) public view returns (string memory) {\r\n        return bytes(baseURI).length > 0 ? string(abi.encodePacked(baseURI, tokenId.toString(), \".json\")) : \"\";\r\n    }\r\n\r\n    function getGladiatorAddress() external view returns(address){\r\n        return gladiatorAddress;\r\n    }\r\n\r\n    //Getter\r\n    function getMyNFT() external view returns(uint256){\r\n        return ownerOf[msg.sender];\r\n    }\r\n\r\n    \r\n    function setGladiatorAddress(address newAddress) external onlyAuthorizedAccounts returns(address) {\r\n        gladiatorAddress = newAddress;\r\n        //Event\r\n        return gladiatorAddress;\r\n    }\r\n}",
  "sourcePath": "D:\\Documentos\\END\\curso\\Tema_6\\DAO\\contracts\\myNFT.sol",
  "compiler": {
    "name": "solc",
    "version": "0.8.19+commit.7dd6d404.Emscripten.clang"
  },
  "schemaVersion": "3.4.8",
  "updatedAt": "2023-04-12T11:00:24.871Z",
  "networkType": "ethereum",
  "devdoc": {
    "events": {
      "ApprovalForAll(address,address,bool)": {
        "details": "Emitted when `account` grants or revokes permission to `operator` to transfer their tokens, according to `approved`."
      },
      "TransferBatch(address,address,address,uint256[],uint256[])": {
        "details": "Equivalent to multiple {TransferSingle} events, where `operator`, `from` and `to` are the same for all transfers."
      },
      "TransferSingle(address,address,address,uint256,uint256)": {
        "details": "Emitted when `value` tokens of token type `id` are transferred from `from` to `to` by `operator`."
      },
      "URI(string,uint256)": {
        "details": "Emitted when the URI for token type `id` changes to `value`, if it is a non-programmatic URI. If an {URI} event was emitted for `id`, the standard https://eips.ethereum.org/EIPS/eip-1155#metadata-extensions[guarantees] that `value` will equal the value returned by {IERC1155MetadataURI-uri}."
      }
    },
    "kind": "dev",
    "methods": {
      "balanceOf(address,uint256)": {
        "details": "See {IERC1155-balanceOf}. Requirements: - `account` cannot be the zero address."
      },
      "balanceOfBatch(address[],uint256[])": {
        "details": "See {IERC1155-balanceOfBatch}. Requirements: - `accounts` and `ids` must have the same length."
      },
      "isApprovedForAll(address,address)": {
        "details": "See {IERC1155-isApprovedForAll}."
      },
      "safeBatchTransferFrom(address,address,uint256[],uint256[],bytes)": {
        "details": "See {IERC1155-safeBatchTransferFrom}."
      },
      "safeTransferFrom(address,address,uint256,uint256,bytes)": {
        "details": "See {IERC1155-safeTransferFrom}."
      },
      "setApprovalForAll(address,bool)": {
        "details": "See {IERC1155-setApprovalForAll}."
      },
      "supportsInterface(bytes4)": {
        "details": "See {IERC165-supportsInterface}."
      },
      "uri(uint256)": {
        "details": "See {IERC1155MetadataURI-uri}. This implementation returns the same URI for *all* token types. It relies on the token type ID substitution mechanism https://eips.ethereum.org/EIPS/eip-1155#metadata[defined in the EIP]. Clients calling this function must replace the `\\{id\\}` substring with the actual token type ID."
      }
    },
    "version": 1
  },
  "userdoc": {
    "kind": "user",
    "methods": {},
    "version": 1
  }
}