{
  "contractName": "GovernanceToken",
  "abi": [
    {
      "inputs": [],
      "stateMutability": "nonpayable",
      "type": "constructor"
    },
    {
      "anonymous": false,
      "inputs": [
        {
          "indexed": true,
          "internalType": "address",
          "name": "owner",
          "type": "address"
        },
        {
          "indexed": true,
          "internalType": "address",
          "name": "spender",
          "type": "address"
        },
        {
          "indexed": false,
          "internalType": "uint256",
          "name": "value",
          "type": "uint256"
        }
      ],
      "name": "Approval",
      "type": "event"
    },
    {
      "anonymous": false,
      "inputs": [
        {
          "indexed": true,
          "internalType": "address",
          "name": "delegator",
          "type": "address"
        },
        {
          "indexed": true,
          "internalType": "address",
          "name": "fromDelegate",
          "type": "address"
        },
        {
          "indexed": true,
          "internalType": "address",
          "name": "toDelegate",
          "type": "address"
        }
      ],
      "name": "DelegateChanged",
      "type": "event"
    },
    {
      "anonymous": false,
      "inputs": [
        {
          "indexed": true,
          "internalType": "address",
          "name": "delegate",
          "type": "address"
        },
        {
          "indexed": false,
          "internalType": "uint256",
          "name": "previousBalance",
          "type": "uint256"
        },
        {
          "indexed": false,
          "internalType": "uint256",
          "name": "newBalance",
          "type": "uint256"
        }
      ],
      "name": "DelegateVotesChanged",
      "type": "event"
    },
    {
      "anonymous": false,
      "inputs": [
        {
          "indexed": true,
          "internalType": "address",
          "name": "previousOwner",
          "type": "address"
        },
        {
          "indexed": true,
          "internalType": "address",
          "name": "newOwner",
          "type": "address"
        }
      ],
      "name": "OwnershipTransferred",
      "type": "event"
    },
    {
      "anonymous": false,
      "inputs": [
        {
          "indexed": true,
          "internalType": "address",
          "name": "from",
          "type": "address"
        },
        {
          "indexed": true,
          "internalType": "address",
          "name": "to",
          "type": "address"
        },
        {
          "indexed": false,
          "internalType": "uint256",
          "name": "value",
          "type": "uint256"
        }
      ],
      "name": "Transfer",
      "type": "event"
    },
    {
      "inputs": [],
      "name": "DOMAIN_SEPARATOR",
      "outputs": [
        {
          "internalType": "bytes32",
          "name": "",
          "type": "bytes32"
        }
      ],
      "stateMutability": "view",
      "type": "function",
      "constant": true
    },
    {
      "inputs": [
        {
          "internalType": "address",
          "name": "owner",
          "type": "address"
        },
        {
          "internalType": "address",
          "name": "spender",
          "type": "address"
        }
      ],
      "name": "allowance",
      "outputs": [
        {
          "internalType": "uint256",
          "name": "",
          "type": "uint256"
        }
      ],
      "stateMutability": "view",
      "type": "function",
      "constant": true
    },
    {
      "inputs": [
        {
          "internalType": "address",
          "name": "spender",
          "type": "address"
        },
        {
          "internalType": "uint256",
          "name": "amount",
          "type": "uint256"
        }
      ],
      "name": "approve",
      "outputs": [
        {
          "internalType": "bool",
          "name": "",
          "type": "bool"
        }
      ],
      "stateMutability": "nonpayable",
      "type": "function"
    },
    {
      "inputs": [
        {
          "internalType": "address",
          "name": "account",
          "type": "address"
        }
      ],
      "name": "balanceOf",
      "outputs": [
        {
          "internalType": "uint256",
          "name": "",
          "type": "uint256"
        }
      ],
      "stateMutability": "view",
      "type": "function",
      "constant": true
    },
    {
      "inputs": [
        {
          "internalType": "address",
          "name": "account",
          "type": "address"
        },
        {
          "internalType": "uint32",
          "name": "pos",
          "type": "uint32"
        }
      ],
      "name": "checkpoints",
      "outputs": [
        {
          "components": [
            {
              "internalType": "uint32",
              "name": "fromBlock",
              "type": "uint32"
            },
            {
              "internalType": "uint224",
              "name": "votes",
              "type": "uint224"
            }
          ],
          "internalType": "struct ERC20Votes.Checkpoint",
          "name": "",
          "type": "tuple"
        }
      ],
      "stateMutability": "view",
      "type": "function",
      "constant": true
    },
    {
      "inputs": [],
      "name": "decimals",
      "outputs": [
        {
          "internalType": "uint8",
          "name": "",
          "type": "uint8"
        }
      ],
      "stateMutability": "view",
      "type": "function",
      "constant": true
    },
    {
      "inputs": [
        {
          "internalType": "address",
          "name": "spender",
          "type": "address"
        },
        {
          "internalType": "uint256",
          "name": "subtractedValue",
          "type": "uint256"
        }
      ],
      "name": "decreaseAllowance",
      "outputs": [
        {
          "internalType": "bool",
          "name": "",
          "type": "bool"
        }
      ],
      "stateMutability": "nonpayable",
      "type": "function"
    },
    {
      "inputs": [
        {
          "internalType": "address",
          "name": "delegatee",
          "type": "address"
        }
      ],
      "name": "delegate",
      "outputs": [],
      "stateMutability": "nonpayable",
      "type": "function"
    },
    {
      "inputs": [
        {
          "internalType": "address",
          "name": "delegatee",
          "type": "address"
        },
        {
          "internalType": "uint256",
          "name": "nonce",
          "type": "uint256"
        },
        {
          "internalType": "uint256",
          "name": "expiry",
          "type": "uint256"
        },
        {
          "internalType": "uint8",
          "name": "v",
          "type": "uint8"
        },
        {
          "internalType": "bytes32",
          "name": "r",
          "type": "bytes32"
        },
        {
          "internalType": "bytes32",
          "name": "s",
          "type": "bytes32"
        }
      ],
      "name": "delegateBySig",
      "outputs": [],
      "stateMutability": "nonpayable",
      "type": "function"
    },
    {
      "inputs": [
        {
          "internalType": "address",
          "name": "account",
          "type": "address"
        }
      ],
      "name": "delegates",
      "outputs": [
        {
          "internalType": "address",
          "name": "",
          "type": "address"
        }
      ],
      "stateMutability": "view",
      "type": "function",
      "constant": true
    },
    {
      "inputs": [
        {
          "internalType": "uint256",
          "name": "blockNumber",
          "type": "uint256"
        }
      ],
      "name": "getPastTotalSupply",
      "outputs": [
        {
          "internalType": "uint256",
          "name": "",
          "type": "uint256"
        }
      ],
      "stateMutability": "view",
      "type": "function",
      "constant": true
    },
    {
      "inputs": [
        {
          "internalType": "address",
          "name": "account",
          "type": "address"
        },
        {
          "internalType": "uint256",
          "name": "blockNumber",
          "type": "uint256"
        }
      ],
      "name": "getPastVotes",
      "outputs": [
        {
          "internalType": "uint256",
          "name": "",
          "type": "uint256"
        }
      ],
      "stateMutability": "view",
      "type": "function",
      "constant": true
    },
    {
      "inputs": [
        {
          "internalType": "address",
          "name": "account",
          "type": "address"
        }
      ],
      "name": "getVotes",
      "outputs": [
        {
          "internalType": "uint256",
          "name": "",
          "type": "uint256"
        }
      ],
      "stateMutability": "view",
      "type": "function",
      "constant": true
    },
    {
      "inputs": [
        {
          "internalType": "address",
          "name": "spender",
          "type": "address"
        },
        {
          "internalType": "uint256",
          "name": "addedValue",
          "type": "uint256"
        }
      ],
      "name": "increaseAllowance",
      "outputs": [
        {
          "internalType": "bool",
          "name": "",
          "type": "bool"
        }
      ],
      "stateMutability": "nonpayable",
      "type": "function"
    },
    {
      "inputs": [],
      "name": "name",
      "outputs": [
        {
          "internalType": "string",
          "name": "",
          "type": "string"
        }
      ],
      "stateMutability": "view",
      "type": "function",
      "constant": true
    },
    {
      "inputs": [
        {
          "internalType": "address",
          "name": "owner",
          "type": "address"
        }
      ],
      "name": "nonces",
      "outputs": [
        {
          "internalType": "uint256",
          "name": "",
          "type": "uint256"
        }
      ],
      "stateMutability": "view",
      "type": "function",
      "constant": true
    },
    {
      "inputs": [
        {
          "internalType": "address",
          "name": "account",
          "type": "address"
        }
      ],
      "name": "numCheckpoints",
      "outputs": [
        {
          "internalType": "uint32",
          "name": "",
          "type": "uint32"
        }
      ],
      "stateMutability": "view",
      "type": "function",
      "constant": true
    },
    {
      "inputs": [],
      "name": "owner",
      "outputs": [
        {
          "internalType": "address",
          "name": "",
          "type": "address"
        }
      ],
      "stateMutability": "view",
      "type": "function",
      "constant": true
    },
    {
      "inputs": [
        {
          "internalType": "address",
          "name": "owner",
          "type": "address"
        },
        {
          "internalType": "address",
          "name": "spender",
          "type": "address"
        },
        {
          "internalType": "uint256",
          "name": "value",
          "type": "uint256"
        },
        {
          "internalType": "uint256",
          "name": "deadline",
          "type": "uint256"
        },
        {
          "internalType": "uint8",
          "name": "v",
          "type": "uint8"
        },
        {
          "internalType": "bytes32",
          "name": "r",
          "type": "bytes32"
        },
        {
          "internalType": "bytes32",
          "name": "s",
          "type": "bytes32"
        }
      ],
      "name": "permit",
      "outputs": [],
      "stateMutability": "nonpayable",
      "type": "function"
    },
    {
      "inputs": [],
      "name": "renounceOwnership",
      "outputs": [],
      "stateMutability": "nonpayable",
      "type": "function"
    },
    {
      "inputs": [],
      "name": "supply",
      "outputs": [
        {
          "internalType": "uint256",
          "name": "",
          "type": "uint256"
        }
      ],
      "stateMutability": "view",
      "type": "function",
      "constant": true
    },
    {
      "inputs": [],
      "name": "symbol",
      "outputs": [
        {
          "internalType": "string",
          "name": "",
          "type": "string"
        }
      ],
      "stateMutability": "view",
      "type": "function",
      "constant": true
    },
    {
      "inputs": [],
      "name": "totalSupply",
      "outputs": [
        {
          "internalType": "uint256",
          "name": "",
          "type": "uint256"
        }
      ],
      "stateMutability": "view",
      "type": "function",
      "constant": true
    },
    {
      "inputs": [
        {
          "internalType": "address",
          "name": "to",
          "type": "address"
        },
        {
          "internalType": "uint256",
          "name": "amount",
          "type": "uint256"
        }
      ],
      "name": "transfer",
      "outputs": [
        {
          "internalType": "bool",
          "name": "",
          "type": "bool"
        }
      ],
      "stateMutability": "nonpayable",
      "type": "function"
    },
    {
      "inputs": [
        {
          "internalType": "address",
          "name": "from",
          "type": "address"
        },
        {
          "internalType": "address",
          "name": "to",
          "type": "address"
        },
        {
          "internalType": "uint256",
          "name": "amount",
          "type": "uint256"
        }
      ],
      "name": "transferFrom",
      "outputs": [
        {
          "internalType": "bool",
          "name": "",
          "type": "bool"
        }
      ],
      "stateMutability": "nonpayable",
      "type": "function"
    },
    {
      "inputs": [
        {
          "internalType": "address",
          "name": "newOwner",
          "type": "address"
        }
      ],
      "name": "transferOwnership",
      "outputs": [],
      "stateMutability": "nonpayable",
      "type": "function"
    },
    {
      "inputs": [
        {
          "internalType": "uint256",
          "name": "numTokens",
          "type": "uint256"
        }
      ],
      "name": "mint",
      "outputs": [],
      "stateMutability": "nonpayable",
      "type": "function"
    }
  ],
  "bytecode": "0x61014060405268056bc75e2d63100000600b553480156200001f57600080fd5b506040518060400160405280600981526020016822a7222faa37b5b2b760b91b81525080604051806040016040528060018152602001603160f81b8152506040518060400160405280600981526020016822a7222faa37b5b2b760b91b8152506040518060400160405280600381526020016211539160ea1b8152508160039081620000ac9190620007d3565b506004620000bb8282620007d3565b5050825160209384012082519284019290922060e08390526101008190524660a0818152604080517f8b73c3c69bb8fe3d512ecc4cf759cc79239f7b179b0ffacaa9a75d522b39400f818901819052818301979097526060810194909452608080850193909352308483018190528151808603909301835260c09485019091528151919096012090529290925261012052506200015a90503362000174565b6200016e33600b54620001c660201b60201c565b620008e1565b600a80546001600160a01b038381166001600160a01b0319831681179093556040519116919082907f8be0079c531659141344cd1fd0a4f28419497f9722a3daafe3b4186f6b6457e090600090a35050565b620001d2828262000272565b6001600160e01b03620001e6620003438216565b1115620002535760405162461bcd60e51b815260206004820152603060248201527f4552433230566f7465733a20746f74616c20737570706c79207269736b73206f60448201526f766572666c6f77696e6720766f74657360801b60648201526084015b60405180910390fd5b6200026c600962000b4d6200034960201b178362000360565b50505050565b6001600160a01b038216620002ca5760405162461bcd60e51b815260206004820152601f60248201527f45524332303a206d696e7420746f20746865207a65726f20616464726573730060448201526064016200024a565b8060026000828254620002de9190620008b5565b90915550506001600160a01b038216600081815260208181526040808320805486019055518481527fddf252ad1be2c89b69c2b068fc378daa952ba7f163c4a11628f55a4df523b3ef910160405180910390a36200033f60008383620004dc565b5050565b60025490565b6000620003578284620008b5565b90505b92915050565b82546000908190818115620003c0576200038f8762000381600185620008cb565b600091825260209091200190565b60408051808201909152905463ffffffff8116825264010000000090046001600160e01b03166020820152620003d5565b60408051808201909152600080825260208201525b905080602001516001600160e01b03169350620003f384868860201c565b92506000821180156200040c5750805163ffffffff1643145b1562000458576200041d8362000510565b6200042f8862000381600186620008cb565b80546001600160e01b03929092166401000000000263ffffffff909216919091179055620004cd565b86604051806040016040528062000475436200057f60201b60201c565b63ffffffff1681526020016200048b8662000510565b6001600160e01b0390811690915282546001810184556000938452602093849020835194909301519091166401000000000263ffffffff909316929092179101555b5050935093915050565b505050565b6001600160a01b03838116600090815260076020526040808220548584168352912054620004d792918216911683620005e6565b60006001600160e01b038211156200057b5760405162461bcd60e51b815260206004820152602760248201527f53616665436173743a2076616c756520646f65736e27742066697420696e20326044820152663234206269747360c81b60648201526084016200024a565b5090565b600063ffffffff8211156200057b5760405162461bcd60e51b815260206004820152602660248201527f53616665436173743a2076616c756520646f65736e27742066697420696e203360448201526532206269747360d01b60648201526084016200024a565b816001600160a01b0316836001600160a01b031614158015620006095750600081115b15620004d7576001600160a01b0383161562000696576001600160a01b03831660009081526008602090815260408220829162000653919062000721901b62000b59178562000360565b91509150846001600160a01b0316600080516020620027bd83398151915283836040516200068b929190918252602082015260400190565b60405180910390a250505b6001600160a01b03821615620004d7576001600160a01b038216600090815260086020908152604082208291620006da919062000349901b62000b4d178562000360565b91509150836001600160a01b0316600080516020620027bd833981519152838360405162000712929190918252602082015260400190565b60405180910390a25050505050565b6000620003578284620008cb565b634e487b7160e01b600052604160045260246000fd5b600181811c908216806200075a57607f821691505b6020821081036200077b57634e487b7160e01b600052602260045260246000fd5b50919050565b601f821115620004d757600081815260208120601f850160051c81016020861015620007aa5750805b601f850160051c820191505b81811015620007cb57828155600101620007b6565b505050505050565b81516001600160401b03811115620007ef57620007ef6200072f565b620008078162000800845462000745565b8462000781565b602080601f8311600181146200083f5760008415620008265750858301515b600019600386901b1c1916600185901b178555620007cb565b600085815260208120601f198616915b8281101562000870578886015182559484019460019091019084016200084f565b50858210156200088f5787850151600019600388901b60f8161c191681555b5050505050600190811b01905550565b634e487b7160e01b600052601160045260246000fd5b808201808211156200035a576200035a6200089f565b818103818111156200035a576200035a6200089f565b60805160a05160c05160e0516101005161012051611e8c620009316000396000610f3701526000610f8601526000610f6101526000610eba01526000610ee401526000610f0e0152611e8c6000f3fe608060405234801561001057600080fd5b50600436106101a95760003560e01c8063715018a6116100f9578063a457c2d711610097578063d505accf11610071578063d505accf146103aa578063dd62ed3e146103bd578063f1127ed8146103d0578063f2fde38b1461040d57600080fd5b8063a457c2d714610371578063a9059cbb14610384578063c3cda5201461039757600080fd5b80638e539e8c116100d35780638e539e8c1461033057806395d89b41146103435780639ab24eb01461034b578063a0712d681461035e57600080fd5b8063715018a6146103045780637ecebe001461030c5780638da5cb5b1461031f57600080fd5b80633644e51511610166578063587cde1e11610140578063587cde1e1461025a5780635c19a95c1461029e5780636fcfff45146102b357806370a08231146102db57600080fd5b80633644e5151461022c57806339509351146102345780633a46b1a81461024757600080fd5b8063047fc9aa146101ae57806306fdde03146101ca578063095ea7b3146101df57806318160ddd1461020257806323b872dd1461020a578063313ce5671461021d575b600080fd5b6101b7600b5481565b6040519081526020015b60405180910390f35b6101d2610420565b6040516101c19190611b38565b6101f26101ed366004611ba2565b6104b2565b60405190151581526020016101c1565b6002546101b7565b6101f2610218366004611bcc565b6104cc565b604051601281526020016101c1565b6101b76104f0565b6101f2610242366004611ba2565b6104ff565b6101b7610255366004611ba2565b610521565b610286610268366004611c08565b6001600160a01b039081166000908152600760205260409020541690565b6040516001600160a01b0390911681526020016101c1565b6102b16102ac366004611c08565b6105a0565b005b6102c66102c1366004611c08565b6105ad565b60405163ffffffff90911681526020016101c1565b6101b76102e9366004611c08565b6001600160a01b031660009081526020819052604090205490565b6102b16105cf565b6101b761031a366004611c08565b6105e3565b600a546001600160a01b0316610286565b6101b761033e366004611c23565b610601565b6101d261065d565b6101b7610359366004611c08565b61066c565b6102b161036c366004611c23565b6106f3565b6101f261037f366004611ba2565b610705565b6101f2610392366004611ba2565b610780565b6102b16103a5366004611c4d565b61078e565b6102b16103b8366004611ca5565b6108c4565b6101b76103cb366004611d0f565b610a28565b6103e36103de366004611d42565b610a53565b60408051825163ffffffff1681526020928301516001600160e01b031692810192909252016101c1565b6102b161041b366004611c08565b610ad7565b60606003805461042f90611d82565b80601f016020809104026020016040519081016040528092919081815260200182805461045b90611d82565b80156104a85780601f1061047d576101008083540402835291602001916104a8565b820191906000526020600020905b81548152906001019060200180831161048b57829003601f168201915b5050505050905090565b6000336104c0818585610b65565b60019150505b92915050565b6000336104da858285610c89565b6104e5858585610d03565b506001949350505050565b60006104fa610ead565b905090565b6000336104c08185856105128383610a28565b61051c9190611dcc565b610b65565b60004382106105775760405162461bcd60e51b815260206004820152601f60248201527f4552433230566f7465733a20626c6f636b206e6f7420796574206d696e65640060448201526064015b60405180910390fd5b6001600160a01b03831660009081526008602052604090206105999083610fd4565b9392505050565b6105aa33826110cb565b50565b6001600160a01b0381166000908152600860205260408120546104c690611144565b6105d76111ad565b6105e16000611207565b565b6001600160a01b0381166000908152600560205260408120546104c6565b60004382106106525760405162461bcd60e51b815260206004820152601f60248201527f4552433230566f7465733a20626c6f636b206e6f7420796574206d696e656400604482015260640161056e565b6104c6600983610fd4565b60606004805461042f90611d82565b6001600160a01b03811660009081526008602052604081205480156106e0576001600160a01b03831660009081526008602052604090206106ae600183611ddf565b815481106106be576106be611df2565b60009182526020909120015464010000000090046001600160e01b03166106e3565b60005b6001600160e01b03169392505050565b6106fb6111ad565b6105aa3382611259565b600033816107138286610a28565b9050838110156107735760405162461bcd60e51b815260206004820152602560248201527f45524332303a2064656372656173656420616c6c6f77616e63652062656c6f77604482015264207a65726f60d81b606482015260840161056e565b6104e58286868403610b65565b6000336104c0818585610d03565b834211156107de5760405162461bcd60e51b815260206004820152601d60248201527f4552433230566f7465733a207369676e61747572652065787069726564000000604482015260640161056e565b604080517fe48329057bfd03d55e49b547132e39cffd9c1820ad7b9d4c5307691425d15adf60208201526001600160a01b038816918101919091526060810186905260808101859052600090610858906108509060a001604051602081830303815290604052805190602001206112e3565b858585611331565b905061086381611359565b86146108b15760405162461bcd60e51b815260206004820152601960248201527f4552433230566f7465733a20696e76616c6964206e6f6e636500000000000000604482015260640161056e565b6108bb81886110cb565b50505050505050565b834211156109145760405162461bcd60e51b815260206004820152601d60248201527f45524332305065726d69743a206578706972656420646561646c696e65000000604482015260640161056e565b60007f6e71edae12b1b97f4d1f60370fef10105fa2faae0126114a169c64845d6126c98888886109438c611359565b6040805160208101969096526001600160a01b0394851690860152929091166060840152608083015260a082015260c0810186905260e001604051602081830303815290604052805190602001209050600061099e826112e3565b905060006109ae82878787611331565b9050896001600160a01b0316816001600160a01b031614610a115760405162461bcd60e51b815260206004820152601e60248201527f45524332305065726d69743a20696e76616c6964207369676e61747572650000604482015260640161056e565b610a1c8a8a8a610b65565b50505050505050505050565b6001600160a01b03918216600090815260016020908152604080832093909416825291909152205490565b60408051808201909152600080825260208201526001600160a01b0383166000908152600860205260409020805463ffffffff8416908110610a9757610a97611df2565b60009182526020918290206040805180820190915291015463ffffffff8116825264010000000090046001600160e01b0316918101919091529392505050565b610adf6111ad565b6001600160a01b038116610b445760405162461bcd60e51b815260206004820152602660248201527f4f776e61626c653a206e6577206f776e657220697320746865207a65726f206160448201526564647265737360d01b606482015260840161056e565b6105aa81611207565b60006105998284611dcc565b60006105998284611ddf565b6001600160a01b038316610bc75760405162461bcd60e51b8152602060048201526024808201527f45524332303a20617070726f76652066726f6d20746865207a65726f206164646044820152637265737360e01b606482015260840161056e565b6001600160a01b038216610c285760405162461bcd60e51b815260206004820152602260248201527f45524332303a20617070726f766520746f20746865207a65726f206164647265604482015261737360f01b606482015260840161056e565b6001600160a01b0383811660008181526001602090815260408083209487168084529482529182902085905590518481527f8c5be1e5ebec7d5bd14f71427d1e84f3dd0314c0f7b2291e5b200ac8c7c3b925910160405180910390a3505050565b6000610c958484610a28565b90506000198114610cfd5781811015610cf05760405162461bcd60e51b815260206004820152601d60248201527f45524332303a20696e73756666696369656e7420616c6c6f77616e6365000000604482015260640161056e565b610cfd8484848403610b65565b50505050565b6001600160a01b038316610d675760405162461bcd60e51b815260206004820152602560248201527f45524332303a207472616e736665722066726f6d20746865207a65726f206164604482015264647265737360d81b606482015260840161056e565b6001600160a01b038216610dc95760405162461bcd60e51b815260206004820152602360248201527f45524332303a207472616e7366657220746f20746865207a65726f206164647260448201526265737360e81b606482015260840161056e565b6001600160a01b03831660009081526020819052604090205481811015610e415760405162461bcd60e51b815260206004820152602660248201527f45524332303a207472616e7366657220616d6f756e7420657863656564732062604482015265616c616e636560d01b606482015260840161056e565b6001600160a01b03848116600081815260208181526040808320878703905593871680835291849020805487019055925185815290927fddf252ad1be2c89b69c2b068fc378daa952ba7f163c4a11628f55a4df523b3ef910160405180910390a3610cfd848484611386565b6000306001600160a01b037f000000000000000000000000000000000000000000000000000000000000000016148015610f0657507f000000000000000000000000000000000000000000000000000000000000000046145b15610f3057507f000000000000000000000000000000000000000000000000000000000000000090565b50604080517f00000000000000000000000000000000000000000000000000000000000000006020808301919091527f0000000000000000000000000000000000000000000000000000000000000000828401527f000000000000000000000000000000000000000000000000000000000000000060608301524660808301523060a0808401919091528351808403909101815260c0909201909252805191012090565b81546000908181600581111561102e576000610fef846113b8565b610ff99085611ddf565b600088815260209020909150869082015463ffffffff16111561101e5780915061102c565b611029816001611dcc565b92505b505b8082101561107b57600061104283836114a0565b600088815260209020909150869082015463ffffffff16111561106757809150611075565b611072816001611dcc565b92505b5061102e565b80156110b55761109e86611090600184611ddf565b600091825260209091200190565b5464010000000090046001600160e01b03166110b8565b60005b6001600160e01b03169695505050505050565b6001600160a01b038281166000818152600760208181526040808420805485845282862054949093528787166001600160a01b03198416811790915590519190951694919391928592917f3134e8a2e6d97e929a7e54011ea5485d7d196dd5f0ba4d4ef95803e8e3fc257f9190a4610cfd8284836114bb565b600063ffffffff8211156111a95760405162461bcd60e51b815260206004820152602660248201527f53616665436173743a2076616c756520646f65736e27742066697420696e203360448201526532206269747360d01b606482015260840161056e565b5090565b600a546001600160a01b031633146105e15760405162461bcd60e51b815260206004820181905260248201527f4f776e61626c653a2063616c6c6572206973206e6f7420746865206f776e6572604482015260640161056e565b600a80546001600160a01b038381166001600160a01b0319831681179093556040519116919082907f8be0079c531659141344cd1fd0a4f28419497f9722a3daafe3b4186f6b6457e090600090a35050565b61126382826115f8565b6002546001600160e01b0310156112d55760405162461bcd60e51b815260206004820152603060248201527f4552433230566f7465733a20746f74616c20737570706c79207269736b73206f60448201526f766572666c6f77696e6720766f74657360801b606482015260840161056e565b610cfd6009610b4d836116c3565b60006104c66112f0610ead565b8360405161190160f01b6020820152602281018390526042810182905260009060620160405160208183030381529060405280519060200120905092915050565b600080600061134287878787611817565b9150915061134f816118db565b5095945050505050565b6001600160a01b03811660009081526005602052604090208054600181018255905b50919050565b505050565b6001600160a01b03838116600090815260076020526040808220548584168352912054611381929182169116836114bb565b6000816000036113ca57506000919050565b600060016113d784611a25565b901c6001901b905060018184816113f0576113f0611e08565b048201901c9050600181848161140857611408611e08565b048201901c9050600181848161142057611420611e08565b048201901c9050600181848161143857611438611e08565b048201901c9050600181848161145057611450611e08565b048201901c9050600181848161146857611468611e08565b048201901c9050600181848161148057611480611e08565b048201901c90506105998182858161149a5761149a611e08565b04611ab9565b60006114af6002848418611e1e565b61059990848416611dcc565b816001600160a01b0316836001600160a01b0316141580156114dd5750600081115b15611381576001600160a01b0383161561156b576001600160a01b0383166000908152600860205260408120819061151890610b59856116c3565b91509150846001600160a01b03167fdec2bacdd2f05b59de34da9b523dff8be42e5e38e818c82fdb0bae774387a7248383604051611560929190918252602082015260400190565b60405180910390a250505b6001600160a01b03821615611381576001600160a01b038216600090815260086020526040812081906115a190610b4d856116c3565b91509150836001600160a01b03167fdec2bacdd2f05b59de34da9b523dff8be42e5e38e818c82fdb0bae774387a72483836040516115e9929190918252602082015260400190565b60405180910390a25050505050565b6001600160a01b03821661164e5760405162461bcd60e51b815260206004820152601f60248201527f45524332303a206d696e7420746f20746865207a65726f206164647265737300604482015260640161056e565b80600260008282546116609190611dcc565b90915550506001600160a01b038216600081815260208181526040808320805486019055518481527fddf252ad1be2c89b69c2b068fc378daa952ba7f163c4a11628f55a4df523b3ef910160405180910390a36116bf60008383611386565b5050565b82546000908190818115611710576116e087611090600185611ddf565b60408051808201909152905463ffffffff8116825264010000000090046001600160e01b03166020820152611725565b60408051808201909152600080825260208201525b905080602001516001600160e01b0316935061174584868863ffffffff16565b925060008211801561175d5750805163ffffffff1643145b156117a25761176b83611acf565b61177a88611090600186611ddf565b80546001600160e01b03929092166401000000000263ffffffff90921691909117905561180d565b8660405180604001604052806117b743611144565b63ffffffff1681526020016117cb86611acf565b6001600160e01b0390811690915282546001810184556000938452602093849020835194909301519091166401000000000263ffffffff909316929092179101555b5050935093915050565b6000807f7fffffffffffffffffffffffffffffff5d576e7357a4501ddfe92f46681b20a083111561184e57506000905060036118d2565b6040805160008082526020820180845289905260ff881692820192909252606081018690526080810185905260019060a0016020604051602081039080840390855afa1580156118a2573d6000803e3d6000fd5b5050604051601f1901519150506001600160a01b0381166118cb576000600192509250506118d2565b9150600090505b94509492505050565b60008160048111156118ef576118ef611e40565b036118f75750565b600181600481111561190b5761190b611e40565b036119585760405162461bcd60e51b815260206004820152601860248201527f45434453413a20696e76616c6964207369676e61747572650000000000000000604482015260640161056e565b600281600481111561196c5761196c611e40565b036119b95760405162461bcd60e51b815260206004820152601f60248201527f45434453413a20696e76616c6964207369676e6174757265206c656e67746800604482015260640161056e565b60038160048111156119cd576119cd611e40565b036105aa5760405162461bcd60e51b815260206004820152602260248201527f45434453413a20696e76616c6964207369676e6174757265202773272076616c604482015261756560f01b606482015260840161056e565b600080608083901c15611a3a57608092831c92015b604083901c15611a4c57604092831c92015b602083901c15611a5e57602092831c92015b601083901c15611a7057601092831c92015b600883901c15611a8257600892831c92015b600483901c15611a9457600492831c92015b600283901c15611aa657600292831c92015b600183901c156104c65760010192915050565b6000818310611ac85781610599565b5090919050565b60006001600160e01b038211156111a95760405162461bcd60e51b815260206004820152602760248201527f53616665436173743a2076616c756520646f65736e27742066697420696e20326044820152663234206269747360c81b606482015260840161056e565b600060208083528351808285015260005b81811015611b6557858101830151858201604001528201611b49565b506000604082860101526040601f19601f8301168501019250505092915050565b80356001600160a01b0381168114611b9d57600080fd5b919050565b60008060408385031215611bb557600080fd5b611bbe83611b86565b946020939093013593505050565b600080600060608486031215611be157600080fd5b611bea84611b86565b9250611bf860208501611b86565b9150604084013590509250925092565b600060208284031215611c1a57600080fd5b61059982611b86565b600060208284031215611c3557600080fd5b5035919050565b803560ff81168114611b9d57600080fd5b60008060008060008060c08789031215611c6657600080fd5b611c6f87611b86565b95506020870135945060408701359350611c8b60608801611c3c565b92506080870135915060a087013590509295509295509295565b600080600080600080600060e0888a031215611cc057600080fd5b611cc988611b86565b9650611cd760208901611b86565b95506040880135945060608801359350611cf360808901611c3c565b925060a0880135915060c0880135905092959891949750929550565b60008060408385031215611d2257600080fd5b611d2b83611b86565b9150611d3960208401611b86565b90509250929050565b60008060408385031215611d5557600080fd5b611d5e83611b86565b9150602083013563ffffffff81168114611d7757600080fd5b809150509250929050565b600181811c90821680611d9657607f821691505b60208210810361137b57634e487b7160e01b600052602260045260246000fd5b634e487b7160e01b600052601160045260246000fd5b808201808211156104c6576104c6611db6565b818103818111156104c6576104c6611db6565b634e487b7160e01b600052603260045260246000fd5b634e487b7160e01b600052601260045260246000fd5b600082611e3b57634e487b7160e01b600052601260045260246000fd5b500490565b634e487b7160e01b600052602160045260246000fdfea26469706673582212208cf45018972b3cf54819427c520f6e0c27fa34edc6560902eceeceb5f885d8f164736f6c63430008130033dec2bacdd2f05b59de34da9b523dff8be42e5e38e818c82fdb0bae774387a724",
  "immutableReferences": {
    "8373": [
      {
        "length": 32,
        "start": 3854
      }
    ],
    "8375": [
      {
        "length": 32,
        "start": 3812
      }
    ],
    "8377": [
      {
        "length": 32,
        "start": 3770
      }
    ],
    "8379": [
      {
        "length": 32,
        "start": 3937
      }
    ],
    "8381": [
      {
        "length": 32,
        "start": 3974
      }
    ],
    "8383": [
      {
        "length": 32,
        "start": 3895
      }
    ]
  },
  "source": "//SPDX-License-Identifier: UNLICENSED\r\n\r\npragma solidity ^0.8.19;\r\n\r\nimport \"@openzeppelin/contracts/token/ERC20/extensions/ERC20Votes.sol\";\r\nimport \"@openzeppelin/contracts/access/Ownable.sol\";\r\n\r\ncontract GovernanceToken is ERC20Votes, Ownable {\r\n    uint256 public supply = 100 ether;\r\n\r\n    constructor()\r\n        ERC20(\"END_Token\", \"END\")\r\n        ERC20Permit(\"END_Token\"){\r\n            _mint(msg.sender, supply);\r\n        }\r\n\r\n    function mint(uint256 numTokens) public onlyOwner {\r\n        _mint(msg.sender, numTokens);\r\n    }\r\n\r\n    //Required overrides by solidity\r\n\r\n    // actualiza los checkpoints necesarios tras realizar una transferencia de tokens\r\n    // function _afterTokenTransfer(address from, address to, uint256 amount) internal override(ERC20Votes){\r\n    //     super._afterTokenTransfer(from, to, amount);\r\n    // }\r\n\r\n    // function _mint(address account, uint256 amount) internal override(ERC20Votes){\r\n    //     super._mint(account, amount);\r\n    // }\r\n\r\n    // function _burn(address account, uint256 amount) internal override(ERC20Votes){\r\n    //     super._burn(account, amount);\r\n    // }\r\n}",
  "sourcePath": "D:\\Documentos\\END\\curso\\Tema_6\\DAO\\contracts\\GovernanceToken.sol",
  "compiler": {
    "name": "solc",
    "version": "0.8.19+commit.7dd6d404.Emscripten.clang"
  },
  "schemaVersion": "3.4.8",
  "updatedAt": "2023-04-12T11:00:18.488Z",
  "networkType": "ethereum",
  "devdoc": {
    "events": {
      "Approval(address,address,uint256)": {
        "details": "Emitted when the allowance of a `spender` for an `owner` is set by a call to {approve}. `value` is the new allowance."
      },
      "DelegateChanged(address,address,address)": {
        "details": "Emitted when an account changes their delegate."
      },
      "DelegateVotesChanged(address,uint256,uint256)": {
        "details": "Emitted when a token transfer or delegate change results in changes to a delegate's number of votes."
      },
      "Transfer(address,address,uint256)": {
        "details": "Emitted when `value` tokens are moved from one account (`from`) to another (`to`). Note that `value` may be zero."
      }
    },
    "kind": "dev",
    "methods": {
      "DOMAIN_SEPARATOR()": {
        "details": "See {IERC20Permit-DOMAIN_SEPARATOR}."
      },
      "allowance(address,address)": {
        "details": "See {IERC20-allowance}."
      },
      "approve(address,uint256)": {
        "details": "See {IERC20-approve}. NOTE: If `amount` is the maximum `uint256`, the allowance is not updated on `transferFrom`. This is semantically equivalent to an infinite approval. Requirements: - `spender` cannot be the zero address."
      },
      "balanceOf(address)": {
        "details": "See {IERC20-balanceOf}."
      },
      "checkpoints(address,uint32)": {
        "details": "Get the `pos`-th checkpoint for `account`."
      },
      "decimals()": {
        "details": "Returns the number of decimals used to get its user representation. For example, if `decimals` equals `2`, a balance of `505` tokens should be displayed to a user as `5.05` (`505 / 10 ** 2`). Tokens usually opt for a value of 18, imitating the relationship between Ether and Wei. This is the value {ERC20} uses, unless this function is overridden; NOTE: This information is only used for _display_ purposes: it in no way affects any of the arithmetic of the contract, including {IERC20-balanceOf} and {IERC20-transfer}."
      },
      "decreaseAllowance(address,uint256)": {
        "details": "Atomically decreases the allowance granted to `spender` by the caller. This is an alternative to {approve} that can be used as a mitigation for problems described in {IERC20-approve}. Emits an {Approval} event indicating the updated allowance. Requirements: - `spender` cannot be the zero address. - `spender` must have allowance for the caller of at least `subtractedValue`."
      },
      "delegate(address)": {
        "details": "Delegate votes from the sender to `delegatee`."
      },
      "delegateBySig(address,uint256,uint256,uint8,bytes32,bytes32)": {
        "details": "Delegates votes from signer to `delegatee`"
      },
      "delegates(address)": {
        "details": "Get the address `account` is currently delegating to."
      },
      "getPastTotalSupply(uint256)": {
        "details": "Retrieve the `totalSupply` at the end of `blockNumber`. Note, this value is the sum of all balances. It is but NOT the sum of all the delegated votes! Requirements: - `blockNumber` must have been already mined"
      },
      "getPastVotes(address,uint256)": {
        "details": "Retrieve the number of votes for `account` at the end of `blockNumber`. Requirements: - `blockNumber` must have been already mined"
      },
      "getVotes(address)": {
        "details": "Gets the current votes balance for `account`"
      },
      "increaseAllowance(address,uint256)": {
        "details": "Atomically increases the allowance granted to `spender` by the caller. This is an alternative to {approve} that can be used as a mitigation for problems described in {IERC20-approve}. Emits an {Approval} event indicating the updated allowance. Requirements: - `spender` cannot be the zero address."
      },
      "name()": {
        "details": "Returns the name of the token."
      },
      "nonces(address)": {
        "details": "See {IERC20Permit-nonces}."
      },
      "numCheckpoints(address)": {
        "details": "Get number of checkpoints for `account`."
      },
      "owner()": {
        "details": "Returns the address of the current owner."
      },
      "permit(address,address,uint256,uint256,uint8,bytes32,bytes32)": {
        "details": "See {IERC20Permit-permit}."
      },
      "renounceOwnership()": {
        "details": "Leaves the contract without owner. It will not be possible to call `onlyOwner` functions anymore. Can only be called by the current owner. NOTE: Renouncing ownership will leave the contract without an owner, thereby removing any functionality that is only available to the owner."
      },
      "symbol()": {
        "details": "Returns the symbol of the token, usually a shorter version of the name."
      },
      "totalSupply()": {
        "details": "See {IERC20-totalSupply}."
      },
      "transfer(address,uint256)": {
        "details": "See {IERC20-transfer}. Requirements: - `to` cannot be the zero address. - the caller must have a balance of at least `amount`."
      },
      "transferFrom(address,address,uint256)": {
        "details": "See {IERC20-transferFrom}. Emits an {Approval} event indicating the updated allowance. This is not required by the EIP. See the note at the beginning of {ERC20}. NOTE: Does not update the allowance if the current allowance is the maximum `uint256`. Requirements: - `from` and `to` cannot be the zero address. - `from` must have a balance of at least `amount`. - the caller must have allowance for ``from``'s tokens of at least `amount`."
      },
      "transferOwnership(address)": {
        "details": "Transfers ownership of the contract to a new account (`newOwner`). Can only be called by the current owner."
      }
    },
    "version": 1
  },
  "userdoc": {
    "kind": "user",
    "methods": {},
    "version": 1
  }
}