{
  "contractName": "MyGovernor",
  "abi": [
    {
      "inputs": [
        {
          "internalType": "contract IVotes",
          "name": "_token",
          "type": "address"
        },
        {
          "internalType": "contract TimelockController",
          "name": "_timelock",
          "type": "address"
        },
        {
          "internalType": "address",
          "name": "myTokenAddress",
          "type": "address"
        }
      ],
      "stateMutability": "nonpayable",
      "type": "constructor"
    },
    {
      "inputs": [],
      "name": "Empty",
      "type": "error"
    },
    {
      "anonymous": false,
      "inputs": [
        {
          "indexed": false,
          "internalType": "uint256",
          "name": "proposalId",
          "type": "uint256"
        }
      ],
      "name": "ProposalCanceled",
      "type": "event"
    },
    {
      "anonymous": false,
      "inputs": [
        {
          "indexed": false,
          "internalType": "uint256",
          "name": "proposalId",
          "type": "uint256"
        },
        {
          "indexed": false,
          "internalType": "address",
          "name": "proposer",
          "type": "address"
        },
        {
          "indexed": false,
          "internalType": "address[]",
          "name": "targets",
          "type": "address[]"
        },
        {
          "indexed": false,
          "internalType": "uint256[]",
          "name": "values",
          "type": "uint256[]"
        },
        {
          "indexed": false,
          "internalType": "string[]",
          "name": "signatures",
          "type": "string[]"
        },
        {
          "indexed": false,
          "internalType": "bytes[]",
          "name": "calldatas",
          "type": "bytes[]"
        },
        {
          "indexed": false,
          "internalType": "uint256",
          "name": "startBlock",
          "type": "uint256"
        },
        {
          "indexed": false,
          "internalType": "uint256",
          "name": "endBlock",
          "type": "uint256"
        },
        {
          "indexed": false,
          "internalType": "string",
          "name": "description",
          "type": "string"
        }
      ],
      "name": "ProposalCreated",
      "type": "event"
    },
    {
      "anonymous": false,
      "inputs": [
        {
          "indexed": false,
          "internalType": "uint256",
          "name": "proposalId",
          "type": "uint256"
        }
      ],
      "name": "ProposalExecuted",
      "type": "event"
    },
    {
      "anonymous": false,
      "inputs": [
        {
          "indexed": false,
          "internalType": "uint256",
          "name": "proposalId",
          "type": "uint256"
        },
        {
          "indexed": false,
          "internalType": "uint256",
          "name": "eta",
          "type": "uint256"
        }
      ],
      "name": "ProposalQueued",
      "type": "event"
    },
    {
      "anonymous": false,
      "inputs": [
        {
          "indexed": false,
          "internalType": "uint256",
          "name": "oldProposalThreshold",
          "type": "uint256"
        },
        {
          "indexed": false,
          "internalType": "uint256",
          "name": "newProposalThreshold",
          "type": "uint256"
        }
      ],
      "name": "ProposalThresholdSet",
      "type": "event"
    },
    {
      "anonymous": false,
      "inputs": [
        {
          "indexed": false,
          "internalType": "uint256",
          "name": "oldQuorumNumerator",
          "type": "uint256"
        },
        {
          "indexed": false,
          "internalType": "uint256",
          "name": "newQuorumNumerator",
          "type": "uint256"
        }
      ],
      "name": "QuorumNumeratorUpdated",
      "type": "event"
    },
    {
      "anonymous": false,
      "inputs": [
        {
          "indexed": false,
          "internalType": "address",
          "name": "oldTimelock",
          "type": "address"
        },
        {
          "indexed": false,
          "internalType": "address",
          "name": "newTimelock",
          "type": "address"
        }
      ],
      "name": "TimelockChange",
      "type": "event"
    },
    {
      "anonymous": false,
      "inputs": [
        {
          "indexed": true,
          "internalType": "address",
          "name": "voter",
          "type": "address"
        },
        {
          "indexed": false,
          "internalType": "uint256",
          "name": "proposalId",
          "type": "uint256"
        },
        {
          "indexed": false,
          "internalType": "uint8",
          "name": "support",
          "type": "uint8"
        },
        {
          "indexed": false,
          "internalType": "uint256",
          "name": "weight",
          "type": "uint256"
        },
        {
          "indexed": false,
          "internalType": "string",
          "name": "reason",
          "type": "string"
        }
      ],
      "name": "VoteCast",
      "type": "event"
    },
    {
      "anonymous": false,
      "inputs": [
        {
          "indexed": true,
          "internalType": "address",
          "name": "voter",
          "type": "address"
        },
        {
          "indexed": false,
          "internalType": "uint256",
          "name": "proposalId",
          "type": "uint256"
        },
        {
          "indexed": false,
          "internalType": "uint8",
          "name": "support",
          "type": "uint8"
        },
        {
          "indexed": false,
          "internalType": "uint256",
          "name": "weight",
          "type": "uint256"
        },
        {
          "indexed": false,
          "internalType": "string",
          "name": "reason",
          "type": "string"
        },
        {
          "indexed": false,
          "internalType": "bytes",
          "name": "params",
          "type": "bytes"
        }
      ],
      "name": "VoteCastWithParams",
      "type": "event"
    },
    {
      "anonymous": false,
      "inputs": [
        {
          "indexed": false,
          "internalType": "uint256",
          "name": "oldVotingDelay",
          "type": "uint256"
        },
        {
          "indexed": false,
          "internalType": "uint256",
          "name": "newVotingDelay",
          "type": "uint256"
        }
      ],
      "name": "VotingDelaySet",
      "type": "event"
    },
    {
      "anonymous": false,
      "inputs": [
        {
          "indexed": false,
          "internalType": "uint256",
          "name": "oldVotingPeriod",
          "type": "uint256"
        },
        {
          "indexed": false,
          "internalType": "uint256",
          "name": "newVotingPeriod",
          "type": "uint256"
        }
      ],
      "name": "VotingPeriodSet",
      "type": "event"
    },
    {
      "inputs": [],
      "name": "BALLOT_TYPEHASH",
      "outputs": [
        {
          "internalType": "bytes32",
          "name": "",
          "type": "bytes32"
        }
      ],
      "stateMutability": "view",
      "type": "function",
      "constant": true
    },
    {
      "inputs": [],
      "name": "COUNTING_MODE",
      "outputs": [
        {
          "internalType": "string",
          "name": "",
          "type": "string"
        }
      ],
      "stateMutability": "pure",
      "type": "function",
      "constant": true
    },
    {
      "inputs": [],
      "name": "EXTENDED_BALLOT_TYPEHASH",
      "outputs": [
        {
          "internalType": "bytes32",
          "name": "",
          "type": "bytes32"
        }
      ],
      "stateMutability": "view",
      "type": "function",
      "constant": true
    },
    {
      "inputs": [
        {
          "internalType": "uint256",
          "name": "proposalId",
          "type": "uint256"
        },
        {
          "internalType": "uint8",
          "name": "support",
          "type": "uint8"
        }
      ],
      "name": "castVote",
      "outputs": [
        {
          "internalType": "uint256",
          "name": "",
          "type": "uint256"
        }
      ],
      "stateMutability": "nonpayable",
      "type": "function"
    },
    {
      "inputs": [
        {
          "internalType": "uint256",
          "name": "proposalId",
          "type": "uint256"
        },
        {
          "internalType": "uint8",
          "name": "support",
          "type": "uint8"
        },
        {
          "internalType": "uint8",
          "name": "v",
          "type": "uint8"
        },
        {
          "internalType": "bytes32",
          "name": "r",
          "type": "bytes32"
        },
        {
          "internalType": "bytes32",
          "name": "s",
          "type": "bytes32"
        }
      ],
      "name": "castVoteBySig",
      "outputs": [
        {
          "internalType": "uint256",
          "name": "",
          "type": "uint256"
        }
      ],
      "stateMutability": "nonpayable",
      "type": "function"
    },
    {
      "inputs": [
        {
          "internalType": "uint256",
          "name": "proposalId",
          "type": "uint256"
        },
        {
          "internalType": "uint8",
          "name": "support",
          "type": "uint8"
        },
        {
          "internalType": "string",
          "name": "reason",
          "type": "string"
        }
      ],
      "name": "castVoteWithReason",
      "outputs": [
        {
          "internalType": "uint256",
          "name": "",
          "type": "uint256"
        }
      ],
      "stateMutability": "nonpayable",
      "type": "function"
    },
    {
      "inputs": [
        {
          "internalType": "uint256",
          "name": "proposalId",
          "type": "uint256"
        },
        {
          "internalType": "uint8",
          "name": "support",
          "type": "uint8"
        },
        {
          "internalType": "string",
          "name": "reason",
          "type": "string"
        },
        {
          "internalType": "bytes",
          "name": "params",
          "type": "bytes"
        }
      ],
      "name": "castVoteWithReasonAndParams",
      "outputs": [
        {
          "internalType": "uint256",
          "name": "",
          "type": "uint256"
        }
      ],
      "stateMutability": "nonpayable",
      "type": "function"
    },
    {
      "inputs": [
        {
          "internalType": "uint256",
          "name": "proposalId",
          "type": "uint256"
        },
        {
          "internalType": "uint8",
          "name": "support",
          "type": "uint8"
        },
        {
          "internalType": "string",
          "name": "reason",
          "type": "string"
        },
        {
          "internalType": "bytes",
          "name": "params",
          "type": "bytes"
        },
        {
          "internalType": "uint8",
          "name": "v",
          "type": "uint8"
        },
        {
          "internalType": "bytes32",
          "name": "r",
          "type": "bytes32"
        },
        {
          "internalType": "bytes32",
          "name": "s",
          "type": "bytes32"
        }
      ],
      "name": "castVoteWithReasonAndParamsBySig",
      "outputs": [
        {
          "internalType": "uint256",
          "name": "",
          "type": "uint256"
        }
      ],
      "stateMutability": "nonpayable",
      "type": "function"
    },
    {
      "inputs": [
        {
          "internalType": "address[]",
          "name": "targets",
          "type": "address[]"
        },
        {
          "internalType": "uint256[]",
          "name": "values",
          "type": "uint256[]"
        },
        {
          "internalType": "bytes[]",
          "name": "calldatas",
          "type": "bytes[]"
        },
        {
          "internalType": "bytes32",
          "name": "descriptionHash",
          "type": "bytes32"
        }
      ],
      "name": "execute",
      "outputs": [
        {
          "internalType": "uint256",
          "name": "",
          "type": "uint256"
        }
      ],
      "stateMutability": "payable",
      "type": "function",
      "payable": true
    },
    {
      "inputs": [
        {
          "internalType": "address",
          "name": "account",
          "type": "address"
        },
        {
          "internalType": "uint256",
          "name": "blockNumber",
          "type": "uint256"
        }
      ],
      "name": "getVotes",
      "outputs": [
        {
          "internalType": "uint256",
          "name": "",
          "type": "uint256"
        }
      ],
      "stateMutability": "view",
      "type": "function",
      "constant": true
    },
    {
      "inputs": [
        {
          "internalType": "address",
          "name": "account",
          "type": "address"
        },
        {
          "internalType": "uint256",
          "name": "blockNumber",
          "type": "uint256"
        },
        {
          "internalType": "bytes",
          "name": "params",
          "type": "bytes"
        }
      ],
      "name": "getVotesWithParams",
      "outputs": [
        {
          "internalType": "uint256",
          "name": "",
          "type": "uint256"
        }
      ],
      "stateMutability": "view",
      "type": "function",
      "constant": true
    },
    {
      "inputs": [
        {
          "internalType": "uint256",
          "name": "proposalId",
          "type": "uint256"
        },
        {
          "internalType": "address",
          "name": "account",
          "type": "address"
        }
      ],
      "name": "hasVoted",
      "outputs": [
        {
          "internalType": "bool",
          "name": "",
          "type": "bool"
        }
      ],
      "stateMutability": "view",
      "type": "function",
      "constant": true
    },
    {
      "inputs": [
        {
          "internalType": "address[]",
          "name": "targets",
          "type": "address[]"
        },
        {
          "internalType": "uint256[]",
          "name": "values",
          "type": "uint256[]"
        },
        {
          "internalType": "bytes[]",
          "name": "calldatas",
          "type": "bytes[]"
        },
        {
          "internalType": "bytes32",
          "name": "descriptionHash",
          "type": "bytes32"
        }
      ],
      "name": "hashProposal",
      "outputs": [
        {
          "internalType": "uint256",
          "name": "",
          "type": "uint256"
        }
      ],
      "stateMutability": "pure",
      "type": "function",
      "constant": true
    },
    {
      "inputs": [],
      "name": "myToken",
      "outputs": [
        {
          "internalType": "contract GovernanceToken",
          "name": "",
          "type": "address"
        }
      ],
      "stateMutability": "view",
      "type": "function",
      "constant": true
    },
    {
      "inputs": [],
      "name": "name",
      "outputs": [
        {
          "internalType": "string",
          "name": "",
          "type": "string"
        }
      ],
      "stateMutability": "view",
      "type": "function",
      "constant": true
    },
    {
      "inputs": [
        {
          "internalType": "address",
          "name": "",
          "type": "address"
        },
        {
          "internalType": "address",
          "name": "",
          "type": "address"
        },
        {
          "internalType": "uint256[]",
          "name": "",
          "type": "uint256[]"
        },
        {
          "internalType": "uint256[]",
          "name": "",
          "type": "uint256[]"
        },
        {
          "internalType": "bytes",
          "name": "",
          "type": "bytes"
        }
      ],
      "name": "onERC1155BatchReceived",
      "outputs": [
        {
          "internalType": "bytes4",
          "name": "",
          "type": "bytes4"
        }
      ],
      "stateMutability": "nonpayable",
      "type": "function"
    },
    {
      "inputs": [
        {
          "internalType": "address",
          "name": "",
          "type": "address"
        },
        {
          "internalType": "address",
          "name": "",
          "type": "address"
        },
        {
          "internalType": "uint256",
          "name": "",
          "type": "uint256"
        },
        {
          "internalType": "uint256",
          "name": "",
          "type": "uint256"
        },
        {
          "internalType": "bytes",
          "name": "",
          "type": "bytes"
        }
      ],
      "name": "onERC1155Received",
      "outputs": [
        {
          "internalType": "bytes4",
          "name": "",
          "type": "bytes4"
        }
      ],
      "stateMutability": "nonpayable",
      "type": "function"
    },
    {
      "inputs": [
        {
          "internalType": "address",
          "name": "",
          "type": "address"
        },
        {
          "internalType": "address",
          "name": "",
          "type": "address"
        },
        {
          "internalType": "uint256",
          "name": "",
          "type": "uint256"
        },
        {
          "internalType": "bytes",
          "name": "",
          "type": "bytes"
        }
      ],
      "name": "onERC721Received",
      "outputs": [
        {
          "internalType": "bytes4",
          "name": "",
          "type": "bytes4"
        }
      ],
      "stateMutability": "nonpayable",
      "type": "function"
    },
    {
      "inputs": [
        {
          "internalType": "uint256",
          "name": "proposalId",
          "type": "uint256"
        }
      ],
      "name": "proposalDeadline",
      "outputs": [
        {
          "internalType": "uint256",
          "name": "",
          "type": "uint256"
        }
      ],
      "stateMutability": "view",
      "type": "function",
      "constant": true
    },
    {
      "inputs": [
        {
          "internalType": "uint256",
          "name": "proposalId",
          "type": "uint256"
        }
      ],
      "name": "proposalEta",
      "outputs": [
        {
          "internalType": "uint256",
          "name": "",
          "type": "uint256"
        }
      ],
      "stateMutability": "view",
      "type": "function",
      "constant": true
    },
    {
      "inputs": [
        {
          "internalType": "uint256",
          "name": "proposalId",
          "type": "uint256"
        }
      ],
      "name": "proposalSnapshot",
      "outputs": [
        {
          "internalType": "uint256",
          "name": "",
          "type": "uint256"
        }
      ],
      "stateMutability": "view",
      "type": "function",
      "constant": true
    },
    {
      "inputs": [
        {
          "internalType": "uint256",
          "name": "proposalId",
          "type": "uint256"
        }
      ],
      "name": "proposalVotes",
      "outputs": [
        {
          "internalType": "uint256",
          "name": "againstVotes",
          "type": "uint256"
        },
        {
          "internalType": "uint256",
          "name": "forVotes",
          "type": "uint256"
        },
        {
          "internalType": "uint256",
          "name": "abstainVotes",
          "type": "uint256"
        }
      ],
      "stateMutability": "view",
      "type": "function",
      "constant": true
    },
    {
      "inputs": [
        {
          "internalType": "address[]",
          "name": "targets",
          "type": "address[]"
        },
        {
          "internalType": "uint256[]",
          "name": "values",
          "type": "uint256[]"
        },
        {
          "internalType": "bytes[]",
          "name": "calldatas",
          "type": "bytes[]"
        },
        {
          "internalType": "bytes32",
          "name": "descriptionHash",
          "type": "bytes32"
        }
      ],
      "name": "queue",
      "outputs": [
        {
          "internalType": "uint256",
          "name": "",
          "type": "uint256"
        }
      ],
      "stateMutability": "nonpayable",
      "type": "function"
    },
    {
      "inputs": [],
      "name": "quorumDenominator",
      "outputs": [
        {
          "internalType": "uint256",
          "name": "",
          "type": "uint256"
        }
      ],
      "stateMutability": "view",
      "type": "function",
      "constant": true
    },
    {
      "inputs": [
        {
          "internalType": "uint256",
          "name": "blockNumber",
          "type": "uint256"
        }
      ],
      "name": "quorumNumerator",
      "outputs": [
        {
          "internalType": "uint256",
          "name": "",
          "type": "uint256"
        }
      ],
      "stateMutability": "view",
      "type": "function",
      "constant": true
    },
    {
      "inputs": [],
      "name": "quorumNumerator",
      "outputs": [
        {
          "internalType": "uint256",
          "name": "",
          "type": "uint256"
        }
      ],
      "stateMutability": "view",
      "type": "function",
      "constant": true
    },
    {
      "inputs": [
        {
          "internalType": "address",
          "name": "target",
          "type": "address"
        },
        {
          "internalType": "uint256",
          "name": "value",
          "type": "uint256"
        },
        {
          "internalType": "bytes",
          "name": "data",
          "type": "bytes"
        }
      ],
      "name": "relay",
      "outputs": [],
      "stateMutability": "payable",
      "type": "function",
      "payable": true
    },
    {
      "inputs": [
        {
          "internalType": "uint256",
          "name": "newProposalThreshold",
          "type": "uint256"
        }
      ],
      "name": "setProposalThreshold",
      "outputs": [],
      "stateMutability": "nonpayable",
      "type": "function"
    },
    {
      "inputs": [
        {
          "internalType": "uint256",
          "name": "newVotingDelay",
          "type": "uint256"
        }
      ],
      "name": "setVotingDelay",
      "outputs": [],
      "stateMutability": "nonpayable",
      "type": "function"
    },
    {
      "inputs": [
        {
          "internalType": "uint256",
          "name": "newVotingPeriod",
          "type": "uint256"
        }
      ],
      "name": "setVotingPeriod",
      "outputs": [],
      "stateMutability": "nonpayable",
      "type": "function"
    },
    {
      "inputs": [],
      "name": "timelock",
      "outputs": [
        {
          "internalType": "address",
          "name": "",
          "type": "address"
        }
      ],
      "stateMutability": "view",
      "type": "function",
      "constant": true
    },
    {
      "inputs": [],
      "name": "token",
      "outputs": [
        {
          "internalType": "contract IVotes",
          "name": "",
          "type": "address"
        }
      ],
      "stateMutability": "view",
      "type": "function",
      "constant": true
    },
    {
      "inputs": [
        {
          "internalType": "uint256",
          "name": "newQuorumNumerator",
          "type": "uint256"
        }
      ],
      "name": "updateQuorumNumerator",
      "outputs": [],
      "stateMutability": "nonpayable",
      "type": "function"
    },
    {
      "inputs": [
        {
          "internalType": "contract TimelockController",
          "name": "newTimelock",
          "type": "address"
        }
      ],
      "name": "updateTimelock",
      "outputs": [],
      "stateMutability": "nonpayable",
      "type": "function"
    },
    {
      "inputs": [],
      "name": "version",
      "outputs": [
        {
          "internalType": "string",
          "name": "",
          "type": "string"
        }
      ],
      "stateMutability": "view",
      "type": "function",
      "constant": true
    },
    {
      "stateMutability": "payable",
      "type": "receive",
      "payable": true
    },
    {
      "inputs": [
        {
          "internalType": "uint256",
          "name": "blockNumber",
          "type": "uint256"
        }
      ],
      "name": "getMyVotesWeight",
      "outputs": [
        {
          "internalType": "uint256",
          "name": "",
          "type": "uint256"
        }
      ],
      "stateMutability": "view",
      "type": "function",
      "constant": true
    },
    {
      "inputs": [],
      "name": "votingDelay",
      "outputs": [
        {
          "internalType": "uint256",
          "name": "",
          "type": "uint256"
        }
      ],
      "stateMutability": "view",
      "type": "function",
      "constant": true
    },
    {
      "inputs": [],
      "name": "votingPeriod",
      "outputs": [
        {
          "internalType": "uint256",
          "name": "",
          "type": "uint256"
        }
      ],
      "stateMutability": "view",
      "type": "function",
      "constant": true
    },
    {
      "inputs": [
        {
          "internalType": "uint256",
          "name": "blockNumber",
          "type": "uint256"
        }
      ],
      "name": "quorum",
      "outputs": [
        {
          "internalType": "uint256",
          "name": "",
          "type": "uint256"
        }
      ],
      "stateMutability": "view",
      "type": "function",
      "constant": true
    },
    {
      "inputs": [
        {
          "internalType": "uint256",
          "name": "proposalId",
          "type": "uint256"
        }
      ],
      "name": "state",
      "outputs": [
        {
          "internalType": "enum IGovernor.ProposalState",
          "name": "",
          "type": "uint8"
        }
      ],
      "stateMutability": "view",
      "type": "function",
      "constant": true
    },
    {
      "inputs": [
        {
          "internalType": "address[]",
          "name": "targets",
          "type": "address[]"
        },
        {
          "internalType": "uint256[]",
          "name": "values",
          "type": "uint256[]"
        },
        {
          "internalType": "bytes[]",
          "name": "calldatas",
          "type": "bytes[]"
        },
        {
          "internalType": "string",
          "name": "description",
          "type": "string"
        }
      ],
      "name": "propose",
      "outputs": [
        {
          "internalType": "uint256",
          "name": "",
          "type": "uint256"
        }
      ],
      "stateMutability": "nonpayable",
      "type": "function"
    },
    {
      "inputs": [],
      "name": "proposalThreshold",
      "outputs": [
        {
          "internalType": "uint256",
          "name": "",
          "type": "uint256"
        }
      ],
      "stateMutability": "view",
      "type": "function",
      "constant": true
    },
    {
      "inputs": [
        {
          "internalType": "bytes4",
          "name": "interfaceId",
          "type": "bytes4"
        }
      ],
      "name": "supportsInterface",
      "outputs": [
        {
          "internalType": "bool",
          "name": "",
          "type": "bool"
        }
      ],
      "stateMutability": "view",
      "type": "function",
      "constant": true
    }
  ],
  "bytecode": "0x6101606040523480156200001257600080fd5b5060405162004632380380620046328339810160408190526200003591620007e2565b81604b846000600360006040518060400160405280600c81526020016b22a7221023b7bb32b93737b960a11b81525080620000756200018760201b60201c565b815160209283012081519183019190912060e08290526101008190524660a0818152604080517f8b73c3c69bb8fe3d512ecc4cf759cc79239f7b179b0ffacaa9a75d522b39400f818801819052818301969096526060810194909452608080850193909352308483018190528151808603909301835260c094850190915281519190950120905291909152610120526000620001128282620008db565b5062000120905083620001a2565b6200012b82620001e3565b62000136816200028a565b5050506001600160a01b0316610140526200015181620002cb565b506200015d8162000422565b50600c80546001600160a01b0319166001600160a01b039290921691909117905550620009cf9050565b6040805180820190915260018152603160f81b602082015290565b60045460408051918252602082018390527fc565b045403dc03c2eea82b81a0465edad9e2e7fc4d97e11421c209da93d7a93910160405180910390a1600455565b60008111620002495760405162461bcd60e51b815260206004820152602760248201527f476f7665726e6f7253657474696e67733a20766f74696e6720706572696f6420604482015266746f6f206c6f7760c81b60648201526084015b60405180910390fd5b60055460408051918252602082018390527f7e3f7f0708a84de9203036abaa450dccc85ad5ff52f78c170f3edb55cf5e8828910160405180910390a1600555565b60065460408051918252602082018390527fccb45da8d5717e6c4544694297c4ba5cf151d455c9bb0ed4fc7a38411bc05461910160405180910390a1600655565b6064811115620003505760405162461bcd60e51b815260206004820152604360248201527f476f7665726e6f72566f74657351756f72756d4672616374696f6e3a2071756f60448201527f72756d4e756d657261746f72206f7665722071756f72756d44656e6f6d696e616064820152623a37b960e91b608482015260a40162000240565b60006200035c6200048b565b905080158015906200036e5750600954155b15620003d6576040805180820190915260008152600990602081016200039484620004b8565b6001600160e01b0390811690915282546001810184556000938452602093849020835194909301519091166401000000000263ffffffff909316929092179101555b620003e360098362000527565b505060408051828152602081018490527f0553476bf02ef2726e8ce5ced78d63e26e602e4a2257b1f559418e24b4633997910160405180910390a15050565b600a54604080516001600160a01b03928316815291831660208301527f08f74ea46ef7894f65eabfb5e6e695de773a000b47c529ab559178069b226401910160405180910390a1600a80546001600160a01b0319166001600160a01b0392909216919091179055565b60095460009015620004b157620004a3600962000561565b6001600160e01b0316905090565b5060085490565b60006001600160e01b03821115620005235760405162461bcd60e51b815260206004820152602760248201527f53616665436173743a2076616c756520646f65736e27742066697420696e20326044820152663234206269747360c81b606482015260840162000240565b5090565b6000806200054b846200053a43620005af565b6200054586620004b8565b62000616565b6001600160e01b03918216969116945092505050565b80546000908015620005a5576200058d836200057f600184620009a7565b600091825260209091200190565b5464010000000090046001600160e01b0316620005a8565b60005b9392505050565b600063ffffffff821115620005235760405162461bcd60e51b815260206004820152602660248201527f53616665436173743a2076616c756520646f65736e27742066697420696e203360448201526532206269747360d01b606482015260840162000240565b8254600090819080156200076b57600062000638876200057f600185620009a7565b60408051808201909152905463ffffffff8082168084526401000000009092046001600160e01b031660208401529192509087161015620006bc5760405162461bcd60e51b815260206004820152601760248201527f436865636b706f696e743a20696e76616c6964206b6579000000000000000000604482015260640162000240565b805163ffffffff8088169116036200070a5784620006e1886200057f600186620009a7565b80546001600160e01b03929092166401000000000263ffffffff9092169190911790556200075a565b6040805180820190915263ffffffff80881682526001600160e01b0380881660208085019182528b54600181018d5560008d81529190912094519151909216640100000000029216919091179101555b602001519250839150620007c19050565b50506040805180820190915263ffffffff80851682526001600160e01b0380851660208085019182528854600181018a5560008a8152918220955192519093166401000000000291909316179201919091559050815b935093915050565b6001600160a01b0381168114620007df57600080fd5b50565b600080600060608486031215620007f857600080fd5b83516200080581620007c9565b60208501519093506200081881620007c9565b60408501519092506200082b81620007c9565b809150509250925092565b634e487b7160e01b600052604160045260246000fd5b600181811c908216806200086157607f821691505b6020821081036200088257634e487b7160e01b600052602260045260246000fd5b50919050565b601f821115620008d657600081815260208120601f850160051c81016020861015620008b15750805b601f850160051c820191505b81811015620008d257828155600101620008bd565b5050505b505050565b81516001600160401b03811115620008f757620008f762000836565b6200090f816200090884546200084c565b8462000888565b602080601f8311600181146200094757600084156200092e5750858301515b600019600386901b1c1916600185901b178555620008d2565b600085815260208120601f198616915b82811015620009785788860151825594840194600190910190840162000957565b5085821015620009975787850151600019600388901b60f8161c191681555b5050505050600190811b01905550565b81810381811115620009c957634e487b7160e01b600052601160045260246000fd5b92915050565b60805160a05160c05160e051610100516101205161014051613bfa62000a38600039600081816108c301528181611c1d015261220501526000612381015260006123d0015260006123ab015260006123040152600061232e015260006123580152613bfa6000f3fe6080604052600436106102605760003560e01c80637b3c71d311610144578063c28bc2fa116100b6578063ea0217cf1161007a578063ea0217cf14610805578063eb9019d414610825578063ece40cc114610845578063f23a6e6114610865578063f8ce560a14610891578063fc0c546a146108b157600080fd5b8063c28bc2fa1461073a578063c59057e41461074d578063d33219b41461076d578063dd4e2ba51461078b578063deaaa7cc146107d157600080fd5b8063a890c91011610108578063a890c91014610661578063ab58fb8e14610681578063b58131b0146106a1578063b8fcf937146106b6578063bc197c81146106ee578063c01f9e371461071a57600080fd5b80637b3c71d3146105d85780637d5e81e2146105f857806397c3d334146106185780639a802a6d1461062c578063a7713a701461064c57600080fd5b80633932abb1116101dd57806354fd4d50116101a157806354fd4d501461050e57806356781388146105385780635ab42934146105585780635f398a141461057857806360c4247f1461059857806370b0f660146105b857600080fd5b80633932abb11461040d5780633bccf4fd146104225780633e4f49e614610442578063438596321461046f578063544ffc9c146104b957600080fd5b8063150b7a0211610224578063150b7a0214610342578063160cbed7146103865780632656227d146103a65780632d63f693146103b95780632fe3e261146103d957600080fd5b806301ffc9a71461028857806302a251a3146102bd57806303420181146102e057806306f3f9e61461030057806306fdde031461032057600080fd5b36610283573061026e6108e5565b6001600160a01b03161461028157600080fd5b005b600080fd5b34801561029457600080fd5b506102a86102a3366004612d52565b6108fe565b60405190151581526020015b60405180910390f35b3480156102c957600080fd5b506102d261090f565b6040519081526020016102b4565b3480156102ec57600080fd5b506102d26102fb366004612e90565b61091a565b34801561030c57600080fd5b5061028161031b366004612f36565b610a12565b34801561032c57600080fd5b50610335610aa5565b6040516102b49190612f95565b34801561034e57600080fd5b5061036d61035d366004612fbd565b630a85bd0160e11b949350505050565b6040516001600160e01b031990911681526020016102b4565b34801561039257600080fd5b506102d26103a1366004613199565b610b37565b6102d26103b4366004613199565b610d37565b3480156103c557600080fd5b506102d26103d4366004612f36565b610e24565b3480156103e557600080fd5b506102d27fb3b3f3b703cd84ce352197dcff232b1b5d3cfb2025ce47cf04742d0651f1af8881565b34801561041957600080fd5b506102d2610e5b565b34801561042e57600080fd5b506102d261043d366004613228565b610e66565b34801561044e57600080fd5b5061046261045d366004612f36565b610edc565b6040516102b4919061328c565b34801561047b57600080fd5b506102a861048a3660046132b4565b60008281526007602090815260408083206001600160a01b038516845260030190915290205460ff1692915050565b3480156104c557600080fd5b506104f36104d4366004612f36565b6000908152600760205260409020805460018201546002909201549092565b604080519384526020840192909252908201526060016102b4565b34801561051a57600080fd5b506040805180820190915260018152603160f81b6020820152610335565b34801561054457600080fd5b506102d26105533660046132e4565b610ee7565b34801561056457600080fd5b506102d2610573366004612f36565b610f10565b34801561058457600080fd5b506102d2610593366004613310565b610f2c565b3480156105a457600080fd5b506102d26105b3366004612f36565b610f76565b3480156105c457600080fd5b506102816105d3366004612f36565b61100d565b3480156105e457600080fd5b506102d26105f3366004613393565b611094565b34801561060457600080fd5b506102d26106133660046133ec565b6110e6565b34801561062457600080fd5b5060646102d2565b34801561063857600080fd5b506102d26106473660046134a0565b6110fd565b34801561065857600080fd5b506102d2611114565b34801561066d57600080fd5b5061028161067c3660046134f8565b61113e565b34801561068d57600080fd5b506102d261069c366004612f36565b6111c5565b3480156106ad57600080fd5b506102d261125f565b3480156106c257600080fd5b50600c546106d6906001600160a01b031681565b6040516001600160a01b0390911681526020016102b4565b3480156106fa57600080fd5b5061036d610709366004613515565b63bc197c8160e01b95945050505050565b34801561072657600080fd5b506102d2610735366004612f36565b61126a565b6102816107483660046135a8565b611299565b34801561075957600080fd5b506102d2610768366004613199565b6113a8565b34801561077957600080fd5b50600a546001600160a01b03166106d6565b34801561079757600080fd5b506040805180820190915260208082527f737570706f72743d627261766f2671756f72756d3d666f722c6162737461696e90820152610335565b3480156107dd57600080fd5b506102d27f150214d74d59b7d1e90c73fc22ef3d991dd0a76b046543d4d80ab92d2a50328f81565b34801561081157600080fd5b50610281610820366004612f36565b6113e2565b34801561083157600080fd5b506102d26108403660046135eb565b611469565b34801561085157600080fd5b50610281610860366004612f36565b61148a565b34801561087157600080fd5b5061036d610880366004613617565b63f23a6e6160e01b95945050505050565b34801561089d57600080fd5b506102d26108ac366004612f36565b611511565b3480156108bd57600080fd5b506106d67f000000000000000000000000000000000000000000000000000000000000000081565b60006108f9600a546001600160a01b031690565b905090565b60006109098261151c565b92915050565b60006108f960055490565b6000806109be6109b67fb3b3f3b703cd84ce352197dcff232b1b5d3cfb2025ce47cf04742d0651f1af888c8c8c8c60405161095692919061367f565b60405180910390208b8051906020012060405160200161099b959493929190948552602085019390935260ff9190911660408401526060830152608082015260a00190565b60405160208183030381529060405280519060200120611541565b86868661158f565b9050610a048a828b8b8b8080601f0160208091040260200160405190810160405280939291908181526020018383808284376000920191909152508d92506115ad915050565b9a9950505050505050505050565b610a1a6108e5565b6001600160a01b0316336001600160a01b031614610a535760405162461bcd60e51b8152600401610a4a9061368f565b60405180910390fd5b30610a5c6108e5565b6001600160a01b031614610a995760008036604051610a7c92919061367f565b604051809103902090505b80610a926002611712565b03610a8757505b610aa281611791565b50565b606060008054610ab4906136c6565b80601f0160208091040260200160405190810160405280929190818152602001828054610ae0906136c6565b8015610b2d5780601f10610b0257610100808354040283529160200191610b2d565b820191906000526020600020905b815481529060010190602001808311610b1057829003601f168201915b5050505050905090565b600080610b46868686866113a8565b90506004610b5382610edc565b6007811115610b6457610b64613276565b14610b815760405162461bcd60e51b8152600401610a4a90613700565b600a546040805163793d064960e11b815290516000926001600160a01b03169163f27a0c929160048083019260209291908290030181865afa158015610bcb573d6000803e3d6000fd5b505050506040513d601f19601f82011682018060405250810190610bef9190613741565b600a5460405163b1c5f42760e01b81529192506001600160a01b03169063b1c5f42790610c29908a908a908a906000908b90600401613820565b602060405180830381865afa158015610c46573d6000803e3d6000fd5b505050506040513d601f19601f82011682018060405250810190610c6a9190613741565b6000838152600b602052604080822092909255600a5491516308f2a0bb60e41b81526001600160a01b0390921691638f2a0bb091610cb5918b918b918b91908b90899060040161386e565b600060405180830381600087803b158015610ccf57600080fd5b505af1158015610ce3573d6000803e3d6000fd5b505050507f9a2e42fd6722813d69113e7d0079d3d940171428df7373df9c7f7617cfda2892828242610d1591906138dc565b6040805192835260208301919091520160405180910390a15095945050505050565b600080610d46868686866113a8565b90506000610d5382610edc565b90506004816007811115610d6957610d69613276565b1480610d8657506005816007811115610d8457610d84613276565b145b610da25760405162461bcd60e51b8152600401610a4a90613700565b600082815260016020818152604092839020600201805460ff191690921790915590518381527f712ae1383f79ac853f8d882153778e0260ef8f03b504e2866e0593e04d2b291f910160405180910390a1610e0082888888886118dd565b610e0d828888888861197f565b610e1a8288888888611a4e565b5095945050505050565b60008181526001602090815260408083208151928301909152546001600160401b0316908190525b6001600160401b031692915050565b60006108f960045490565b604080517f150214d74d59b7d1e90c73fc22ef3d991dd0a76b046543d4d80ab92d2a50328f602082015290810186905260ff851660608201526000908190610eb4906109b69060800161099b565b9050610ed187828860405180602001604052806000815250611a87565b979650505050505050565b600061090982611aaa565b600080339050610f0884828560405180602001604052806000815250611a87565b949350505050565b6000610909338360405180602001604052806000815250611bf4565b600080339050610ed187828888888080601f0160208091040260200160405190810160405280939291908181526020018383808284376000920191909152508a92506115ad915050565b600954600090808203610f8d575050600854919050565b60006009610f9c6001846138ef565b81548110610fac57610fac613902565b60009182526020918290206040805180820190915291015463ffffffff8116808352600160201b9091046001600160e01b0316928201929092529150841061100257602001516001600160e01b03169392505050565b610f08600985611c8a565b6110156108e5565b6001600160a01b0316336001600160a01b0316146110455760405162461bcd60e51b8152600401610a4a9061368f565b3061104e6108e5565b6001600160a01b03161461108b576000803660405161106e92919061367f565b604051809103902090505b806110846002611712565b0361107957505b610aa281611d4a565b6000803390506110dc86828787878080601f016020809104026020016040519081016040528093929190818152602001838380828437600092019190915250611a8792505050565b9695505050505050565b60006110f485858585611d8b565b95945050505050565b600061110a848484611bf4565b90505b9392505050565b6009546000901561113757611129600961204e565b6001600160e01b0316905090565b5060085490565b6111466108e5565b6001600160a01b0316336001600160a01b0316146111765760405162461bcd60e51b8152600401610a4a9061368f565b3061117f6108e5565b6001600160a01b0316146111bc576000803660405161119f92919061367f565b604051809103902090505b806111b56002611712565b036111aa57505b610aa28161207e565b600a546000828152600b602052604080822054905163d45c443560e01b81526004810191909152909182916001600160a01b039091169063d45c443590602401602060405180830381865afa158015611222573d6000803e3d6000fd5b505050506040513d601f19601f820116820180604052508101906112469190613741565b905080600114611256578061110d565b60009392505050565b60006108f960065490565b60008181526001602081815260408084208151928301909152909101546001600160401b031690819052610e4c565b6112a16108e5565b6001600160a01b0316336001600160a01b0316146112d15760405162461bcd60e51b8152600401610a4a9061368f565b306112da6108e5565b6001600160a01b03161461131757600080366040516112fa92919061367f565b604051809103902090505b806113106002611712565b0361130557505b600080856001600160a01b031685858560405161133592919061367f565b60006040518083038185875af1925050503d8060008114611372576040519150601f19603f3d011682016040523d82523d6000602084013e611377565b606091505b509150915061139f8282604051806060016040528060288152602001613b9d602891396120e7565b50505050505050565b6000848484846040516020016113c19493929190613918565b60408051601f19818403018152919052805160209091012095945050505050565b6113ea6108e5565b6001600160a01b0316336001600160a01b03161461141a5760405162461bcd60e51b8152600401610a4a9061368f565b306114236108e5565b6001600160a01b031614611460576000803660405161144392919061367f565b604051809103902090505b806114596002611712565b0361144e57505b610aa281612100565b600061110d838361148560408051602081019091526000815290565b611bf4565b6114926108e5565b6001600160a01b0316336001600160a01b0316146114c25760405162461bcd60e51b8152600401610a4a9061368f565b306114cb6108e5565b6001600160a01b03161461150857600080366040516114eb92919061367f565b604051809103902090505b806115016002611712565b036114f657505b610aa2816121a1565b6000610909826121e2565b60006001600160e01b03198216636e665ced60e01b148061090957506109098261228c565b600061090961154e6122f7565b8360405161190160f01b6020820152602281018390526042810182905260009060620160405160208183030381529060405280519060200120905092915050565b60008060006115a08787878761241e565b91509150610e1a816124e2565b60008581526001602081905260408220906115c788610edc565b60078111156115d8576115d8613276565b146116315760405162461bcd60e51b815260206004820152602360248201527f476f7665726e6f723a20766f7465206e6f742063757272656e746c792061637460448201526269766560e81b6064820152608401610a4a565b604080516020810190915281546001600160401b03169081905260009061165a90889086611bf4565b9050611669888888848861262c565b83516000036116be57866001600160a01b03167fb8e138887d0aa13bab447e82de9d5c1777041ecd21ca36ba824ff1e6c07ddda4898884896040516116b19493929190613963565b60405180910390a2610ed1565b866001600160a01b03167fe2babfbac5889a709b63bb7f598b324e08bc5a4fb9ec647fb3cbc9ec07eb871289888489896040516116ff95949392919061398b565b60405180910390a2979650505050505050565b600061172d8254600f81810b600160801b909204900b131590565b1561174b57604051631ed9509560e11b815260040160405180910390fd5b508054600f0b6000818152600180840160205260408220805492905583546fffffffffffffffffffffffffffffffff191692016001600160801b03169190911790915590565b60648111156118145760405162461bcd60e51b815260206004820152604360248201527f476f7665726e6f72566f74657351756f72756d4672616374696f6e3a2071756f60448201527f72756d4e756d657261746f72206f7665722071756f72756d44656e6f6d696e616064820152623a37b960e91b608482015260a401610a4a565b600061181e611114565b9050801580159061182f5750600954155b1561189357604080518082019091526000815260099060208101611852846127a6565b6001600160e01b039081169091528254600181018455600093845260209384902083519490930151909116600160201b0263ffffffff909316929092179101555b61189e600983612813565b505060408051828152602081018490527f0553476bf02ef2726e8ce5ced78d63e26e602e4a2257b1f559418e24b4633997910160405180910390a15050565b306118e66108e5565b6001600160a01b0316146119785760005b845181101561197657306001600160a01b031685828151811061191c5761191c613902565b60200260200101516001600160a01b0316036119665761196683828151811061194757611947613902565b602002602001015180519060200120600261284990919063ffffffff16565b61196f816139d1565b90506118f7565b505b5050505050565b600c546040516370a0823160e01b8152336004820152678ac7230489e80000916001600160a01b0316906370a0823190602401602060405180830381865afa1580156119cf573d6000803e3d6000fd5b505050506040513d601f19601f820116820180604052508101906119f39190613741565b1015611a415760405162461bcd60e51b815260206004820152601c60248201527f596f7520646f6e2774206861766520656e6f75676820746f6b656e73000000006044820152606401610a4a565b6119788585858585612885565b30611a576108e5565b6001600160a01b03161461197857600254600f81810b600160801b909204900b1315611978576000600255611978565b60006110f485858585611aa560408051602081019091526000815290565b6115ad565b600080611ab6836128f9565b90506004816007811115611acc57611acc613276565b14611ad75792915050565b6000838152600b602052604090205480611af2575092915050565b600a54604051632ab0f52960e01b8152600481018390526001600160a01b0390911690632ab0f52990602401602060405180830381865afa158015611b3b573d6000803e3d6000fd5b505050506040513d601f19601f82011682018060405250810190611b5f91906139ea565b15611b6e575060079392505050565b600a54604051632c258a9f60e11b8152600481018390526001600160a01b039091169063584b153e90602401602060405180830381865afa158015611bb7573d6000803e3d6000fd5b505050506040513d601f19601f82011682018060405250810190611bdb91906139ea565b15611bea575060059392505050565b5060029392505050565b604051630748d63560e31b81526001600160a01b038481166004830152602482018490526000917f000000000000000000000000000000000000000000000000000000000000000090911690633a46b1a890604401602060405180830381865afa158015611c66573d6000803e3d6000fd5b505050506040513d601f19601f8201168201806040525081019061110a9190613741565b6000438210611cdb5760405162461bcd60e51b815260206004820181905260248201527f436865636b706f696e74733a20626c6f636b206e6f7420796574206d696e65646044820152606401610a4a565b6000611ce683612a08565b84549091506000611cf986848385612a6d565b90508015611d3457611d1e86611d106001846138ef565b600091825260209091200190565b54600160201b90046001600160e01b0316611d37565b60005b6001600160e01b03169695505050505050565b60045460408051918252602082018390527fc565b045403dc03c2eea82b81a0465edad9e2e7fc4d97e11421c209da93d7a93910160405180910390a1600455565b6000611d9561125f565b611da4336108406001436138ef565b1015611e0c5760405162461bcd60e51b815260206004820152603160248201527f476f7665726e6f723a2070726f706f73657220766f7465732062656c6f7720706044820152701c9bdc1bdcd85b081d1a1c995cda1bdb19607a1b6064820152608401610a4a565b6000611e2186868686805190602001206113a8565b90508451865114611e445760405162461bcd60e51b8152600401610a4a90613a0c565b8351865114611e655760405162461bcd60e51b8152600401610a4a90613a0c565b6000865111611eb65760405162461bcd60e51b815260206004820152601860248201527f476f7665726e6f723a20656d7074792070726f706f73616c00000000000000006044820152606401610a4a565b600081815260016020908152604091829020825191820190925281546001600160401b03169081905215611f365760405162461bcd60e51b815260206004820152602160248201527f476f7665726e6f723a2070726f706f73616c20616c72656164792065786973746044820152607360f81b6064820152608401610a4a565b6000611f48611f43610e5b565b612acb565b611f5143612acb565b611f5b9190613a4d565b90506000611f6a611f4361090f565b611f749083613a4d565b835467ffffffffffffffff19166001600160401b038416178455905060018301805467ffffffffffffffff19166001600160401b0383161790557f7d84a6263ae0d98d3329bd7b46bb4e8d6f98cd35a7adb45c274c8b7fd5ebd5e084338b8b8d516001600160401b03811115611fec57611fec612dd3565b60405190808252806020026020018201604052801561201f57816020015b606081526020019060019003908161200a5790505b508c88888e60405161203999989796959493929190613a74565b60405180910390a15091979650505050505050565b805460009080156112565761206883611d106001846138ef565b54600160201b90046001600160e01b031661110d565b600a54604080516001600160a01b03928316815291831660208301527f08f74ea46ef7894f65eabfb5e6e695de773a000b47c529ab559178069b226401910160405180910390a1600a80546001600160a01b0319166001600160a01b0392909216919091179055565b606083156120f657508161110d565b61110d8383612b33565b600081116121605760405162461bcd60e51b815260206004820152602760248201527f476f7665726e6f7253657474696e67733a20766f74696e6720706572696f6420604482015266746f6f206c6f7760c81b6064820152608401610a4a565b60055460408051918252602082018390527f7e3f7f0708a84de9203036abaa450dccc85ad5ff52f78c170f3edb55cf5e8828910160405180910390a1600555565b60065460408051918252602082018390527fccb45da8d5717e6c4544694297c4ba5cf151d455c9bb0ed4fc7a38411bc05461910160405180910390a1600655565b600060646121ef83610f76565b604051632394e7a360e21b8152600481018590527f00000000000000000000000000000000000000000000000000000000000000006001600160a01b031690638e539e8c90602401602060405180830381865afa158015612254573d6000803e3d6000fd5b505050506040513d601f19601f820116820180604052508101906122789190613741565b6122829190613b63565b6109099190613b7a565b60006001600160e01b0319821663bf26d89760e01b14806122bd57506001600160e01b031982166379dd796f60e01b145b806122d857506001600160e01b03198216630271189760e51b145b8061090957506301ffc9a760e01b6001600160e01b0319831614610909565b6000306001600160a01b037f00000000000000000000000000000000000000000000000000000000000000001614801561235057507f000000000000000000000000000000000000000000000000000000000000000046145b1561237a57507f000000000000000000000000000000000000000000000000000000000000000090565b50604080517f00000000000000000000000000000000000000000000000000000000000000006020808301919091527f0000000000000000000000000000000000000000000000000000000000000000828401527f000000000000000000000000000000000000000000000000000000000000000060608301524660808301523060a0808401919091528351808403909101815260c0909201909252805191012090565b6000807f7fffffffffffffffffffffffffffffff5d576e7357a4501ddfe92f46681b20a083111561245557506000905060036124d9565b6040805160008082526020820180845289905260ff881692820192909252606081018690526080810185905260019060a0016020604051602081039080840390855afa1580156124a9573d6000803e3d6000fd5b5050604051601f1901519150506001600160a01b0381166124d2576000600192509250506124d9565b9150600090505b94509492505050565b60008160048111156124f6576124f6613276565b036124fe5750565b600181600481111561251257612512613276565b0361255f5760405162461bcd60e51b815260206004820152601860248201527f45434453413a20696e76616c6964207369676e617475726500000000000000006044820152606401610a4a565b600281600481111561257357612573613276565b036125c05760405162461bcd60e51b815260206004820152601f60248201527f45434453413a20696e76616c6964207369676e6174757265206c656e677468006044820152606401610a4a565b60038160048111156125d4576125d4613276565b03610aa25760405162461bcd60e51b815260206004820152602260248201527f45434453413a20696e76616c6964207369676e6174757265202773272076616c604482015261756560f01b6064820152608401610a4a565b60008581526007602090815260408083206001600160a01b0388168452600381019092529091205460ff16156126b45760405162461bcd60e51b815260206004820152602760248201527f476f7665726e6f72566f74696e6753696d706c653a20766f746520616c726561604482015266191e4818d85cdd60ca1b6064820152608401610a4a565b6001600160a01b03851660009081526003820160205260409020805460ff1916600117905560ff841661270057828160000160008282546126f591906138dc565b909155506119769050565b60001960ff85160161272057828160010160008282546126f591906138dc565b60011960ff85160161274057828160020160008282546126f591906138dc565b60405162461bcd60e51b815260206004820152603560248201527f476f7665726e6f72566f74696e6753696d706c653a20696e76616c69642076616044820152746c756520666f7220656e756d20566f74655479706560581b6064820152608401610a4a565b60006001600160e01b0382111561280f5760405162461bcd60e51b815260206004820152602760248201527f53616665436173743a2076616c756520646f65736e27742066697420696e20326044820152663234206269747360c81b6064820152608401610a4a565b5090565b6000806128318461282343612a08565b61282c866127a6565b612b5d565b6001600160e01b0391821693501690505b9250929050565b8154600160801b90819004600f0b6000818152600180860160205260409091209390935583546001600160801b03908116939091011602179055565b600a5460405163e38335e560e01b81526001600160a01b039091169063e38335e59034906128c0908890889088906000908990600401613820565b6000604051808303818588803b1580156128d957600080fd5b505af11580156128ed573d6000803e3d6000fd5b50505050505050505050565b6000818152600160205260408120600281015460ff161561291d5750600792915050565b6002810154610100900460ff16156129385750600292915050565b600061294384610e24565b9050806000036129955760405162461bcd60e51b815260206004820152601d60248201527f476f7665726e6f723a20756e6b6e6f776e2070726f706f73616c2069640000006044820152606401610a4a565b4381106129a6575060009392505050565b60006129b18561126a565b90504381106129c557506001949350505050565b6129ce85612d00565b80156129ed575060008581526007602052604090208054600190910154115b156129fd57506004949350505050565b506003949350505050565b600063ffffffff82111561280f5760405162461bcd60e51b815260206004820152602660248201527f53616665436173743a2076616c756520646f65736e27742066697420696e203360448201526532206269747360d01b6064820152608401610a4a565b60005b81831015612ac3576000612a848484612d37565b60008781526020902090915063ffffffff86169082015463ffffffff161115612aaf57809250612abd565b612aba8160016138dc565b93505b50612a70565b509392505050565b60006001600160401b0382111561280f5760405162461bcd60e51b815260206004820152602660248201527f53616665436173743a2076616c756520646f65736e27742066697420696e203660448201526534206269747360d01b6064820152608401610a4a565b815115612b435781518083602001fd5b8060405162461bcd60e51b8152600401610a4a9190612f95565b825460009081908015612ca3576000612b7b87611d106001856138ef565b60408051808201909152905463ffffffff808216808452600160201b9092046001600160e01b031660208401529192509087161015612bfc5760405162461bcd60e51b815260206004820152601760248201527f436865636b706f696e743a20696e76616c6964206b65790000000000000000006044820152606401610a4a565b805163ffffffff808816911603612c445784612c1d88611d106001866138ef565b80546001600160e01b0392909216600160201b0263ffffffff909216919091179055612c93565b6040805180820190915263ffffffff80881682526001600160e01b0380881660208085019182528b54600181018d5560008d81529190912094519151909216600160201b029216919091179101555b602001519250839150612cf89050565b50506040805180820190915263ffffffff80851682526001600160e01b0380851660208085019182528854600181018a5560008a815291822095519251909316600160201b0291909316179201919091559050815b935093915050565b600081815260076020526040812060028101546001820154612d2291906138dc565b612d2e6108ac85610e24565b11159392505050565b6000612d466002848418613b7a565b61110d908484166138dc565b600060208284031215612d6457600080fd5b81356001600160e01b03198116811461110d57600080fd5b803560ff81168114612d8d57600080fd5b919050565b60008083601f840112612da457600080fd5b5081356001600160401b03811115612dbb57600080fd5b60208301915083602082850101111561284257600080fd5b634e487b7160e01b600052604160045260246000fd5b604051601f8201601f191681016001600160401b0381118282101715612e1157612e11612dd3565b604052919050565b60006001600160401b03831115612e3257612e32612dd3565b612e45601f8401601f1916602001612de9565b9050828152838383011115612e5957600080fd5b828260208301376000602084830101529392505050565b600082601f830112612e8157600080fd5b61110d83833560208501612e19565b60008060008060008060008060e0898b031215612eac57600080fd5b88359750612ebc60208a01612d7c565b965060408901356001600160401b0380821115612ed857600080fd5b612ee48c838d01612d92565b909850965060608b0135915080821115612efd57600080fd5b50612f0a8b828c01612e70565b945050612f1960808a01612d7c565b925060a0890135915060c089013590509295985092959890939650565b600060208284031215612f4857600080fd5b5035919050565b6000815180845260005b81811015612f7557602081850181015186830182015201612f59565b506000602082860101526020601f19601f83011685010191505092915050565b60208152600061110d6020830184612f4f565b6001600160a01b0381168114610aa257600080fd5b60008060008060808587031215612fd357600080fd5b8435612fde81612fa8565b93506020850135612fee81612fa8565b92506040850135915060608501356001600160401b0381111561301057600080fd5b61301c87828801612e70565b91505092959194509250565b60006001600160401b0382111561304157613041612dd3565b5060051b60200190565b600082601f83011261305c57600080fd5b8135602061307161306c83613028565b612de9565b82815260059290921b8401810191818101908684111561309057600080fd5b8286015b848110156130b45780356130a781612fa8565b8352918301918301613094565b509695505050505050565b600082601f8301126130d057600080fd5b813560206130e061306c83613028565b82815260059290921b840181019181810190868411156130ff57600080fd5b8286015b848110156130b45780358352918301918301613103565b600082601f83011261312b57600080fd5b8135602061313b61306c83613028565b82815260059290921b8401810191818101908684111561315a57600080fd5b8286015b848110156130b45780356001600160401b0381111561317d5760008081fd5b61318b8986838b0101612e70565b84525091830191830161315e565b600080600080608085870312156131af57600080fd5b84356001600160401b03808211156131c657600080fd5b6131d28883890161304b565b955060208701359150808211156131e857600080fd5b6131f4888389016130bf565b9450604087013591508082111561320a57600080fd5b506132178782880161311a565b949793965093946060013593505050565b600080600080600060a0868803121561324057600080fd5b8535945061325060208701612d7c565b935061325e60408701612d7c565b94979396509394606081013594506080013592915050565b634e487b7160e01b600052602160045260246000fd5b60208101600883106132ae57634e487b7160e01b600052602160045260246000fd5b91905290565b600080604083850312156132c757600080fd5b8235915060208301356132d981612fa8565b809150509250929050565b600080604083850312156132f757600080fd5b8235915061330760208401612d7c565b90509250929050565b60008060008060006080868803121561332857600080fd5b8535945061333860208701612d7c565b935060408601356001600160401b038082111561335457600080fd5b61336089838a01612d92565b9095509350606088013591508082111561337957600080fd5b5061338688828901612e70565b9150509295509295909350565b600080600080606085870312156133a957600080fd5b843593506133b960208601612d7c565b925060408501356001600160401b038111156133d457600080fd5b6133e087828801612d92565b95989497509550505050565b6000806000806080858703121561340257600080fd5b84356001600160401b038082111561341957600080fd5b6134258883890161304b565b9550602087013591508082111561343b57600080fd5b613447888389016130bf565b9450604087013591508082111561345d57600080fd5b6134698883890161311a565b9350606087013591508082111561347f57600080fd5b508501601f8101871361349157600080fd5b61301c87823560208401612e19565b6000806000606084860312156134b557600080fd5b83356134c081612fa8565b92506020840135915060408401356001600160401b038111156134e257600080fd5b6134ee86828701612e70565b9150509250925092565b60006020828403121561350a57600080fd5b813561110d81612fa8565b600080600080600060a0868803121561352d57600080fd5b853561353881612fa8565b9450602086013561354881612fa8565b935060408601356001600160401b038082111561356457600080fd5b61357089838a016130bf565b9450606088013591508082111561358657600080fd5b61359289838a016130bf565b9350608088013591508082111561337957600080fd5b600080600080606085870312156135be57600080fd5b84356135c981612fa8565b93506020850135925060408501356001600160401b038111156133d457600080fd5b600080604083850312156135fe57600080fd5b823561360981612fa8565b946020939093013593505050565b600080600080600060a0868803121561362f57600080fd5b853561363a81612fa8565b9450602086013561364a81612fa8565b9350604086013592506060860135915060808601356001600160401b0381111561367357600080fd5b61338688828901612e70565b8183823760009101908152919050565b60208082526018908201527f476f7665726e6f723a206f6e6c79476f7665726e616e63650000000000000000604082015260600190565b600181811c908216806136da57607f821691505b6020821081036136fa57634e487b7160e01b600052602260045260246000fd5b50919050565b60208082526021908201527f476f7665726e6f723a2070726f706f73616c206e6f74207375636365737366756040820152601b60fa1b606082015260800190565b60006020828403121561375357600080fd5b5051919050565b600081518084526020808501945080840160005b838110156137935781516001600160a01b03168752958201959082019060010161376e565b509495945050505050565b600081518084526020808501945080840160005b83811015613793578151875295820195908201906001016137b2565b6000815180845260208085019450848260051b860182860160005b85811015613813578383038952613801838351612f4f565b988501989250908401906001016137e9565b5090979650505050505050565b60a08152600061383360a083018861375a565b8281036020840152613845818861379e565b9050828103604084015261385981876137ce565b60608401959095525050608001529392505050565b60c08152600061388160c083018961375a565b8281036020840152613893818961379e565b905082810360408401526138a781886137ce565b60608401969096525050608081019290925260a0909101529392505050565b634e487b7160e01b600052601160045260246000fd5b80820180821115610909576109096138c6565b81810381811115610909576109096138c6565b634e487b7160e01b600052603260045260246000fd5b60808152600061392b608083018761375a565b828103602084015261393d818761379e565b9050828103604084015261395181866137ce565b91505082606083015295945050505050565b84815260ff841660208201528260408201526080606082015260006110dc6080830184612f4f565b85815260ff8516602082015283604082015260a0606082015260006139b360a0830185612f4f565b82810360808401526139c58185612f4f565b98975050505050505050565b6000600182016139e3576139e36138c6565b5060010190565b6000602082840312156139fc57600080fd5b8151801515811461110d57600080fd5b60208082526021908201527f476f7665726e6f723a20696e76616c69642070726f706f73616c206c656e67746040820152600d60fb1b606082015260800190565b6001600160401b03818116838216019080821115613a6d57613a6d6138c6565b5092915050565b60006101208b8352602060018060a01b038c1681850152816040850152613a9d8285018c61375a565b91508382036060850152613ab1828b61379e565b915083820360808501528189518084528284019150828160051b850101838c0160005b83811015613b0257601f19878403018552613af0838351612f4f565b94860194925090850190600101613ad4565b505086810360a0880152613b16818c6137ce565b945050505050613b3160c08401876001600160401b03169052565b6001600160401b03851660e0840152828103610100840152613b538185612f4f565b9c9b505050505050505050505050565b8082028115828204841417610909576109096138c6565b600082613b9757634e487b7160e01b600052601260045260246000fd5b50049056fe476f7665726e6f723a2072656c617920726576657274656420776974686f7574206d657373616765a2646970667358221220deafcfc6b37c2ef388fad9231a46a371e00079241c23634146a54fdf8e42763764736f6c63430008130033",
  "immutableReferences": {
    "3811": [
      {
        "length": 32,
        "start": 2243
      },
      {
        "length": 32,
        "start": 7197
      },
      {
        "length": 32,
        "start": 8709
      }
    ],
    "8373": [
      {
        "length": 32,
        "start": 9048
      }
    ],
    "8375": [
      {
        "length": 32,
        "start": 9006
      }
    ],
    "8377": [
      {
        "length": 32,
        "start": 8964
      }
    ],
    "8379": [
      {
        "length": 32,
        "start": 9131
      }
    ],
    "8381": [
      {
        "length": 32,
        "start": 9168
      }
    ],
    "8383": [
      {
        "length": 32,
        "start": 9089
      }
    ]
  },
  "source": "// SPDX-License-Identifier: MIT\r\npragma solidity ^0.8.19;\r\n\r\nimport \"@openzeppelin/contracts/governance/Governor.sol\";\r\nimport \"@openzeppelin/contracts/governance/extensions/GovernorSettings.sol\";\r\nimport \"@openzeppelin/contracts/governance/extensions/GovernorCountingSimple.sol\";\r\nimport \"@openzeppelin/contracts/governance/extensions/GovernorVotes.sol\";\r\nimport \"@openzeppelin/contracts/governance/extensions/GovernorVotesQuorumFraction.sol\";\r\nimport \"@openzeppelin/contracts/governance/extensions/GovernorTimelockControl.sol\";\r\n\r\nimport \"./GovernanceToken.sol\";\r\n\r\ncontract MyGovernor is Governor, GovernorSettings, GovernorCountingSimple, GovernorVotes, GovernorVotesQuorumFraction, GovernorTimelockControl {\r\n\r\n    GovernanceToken public myToken;\r\n    constructor(IVotes _token, TimelockController _timelock, address myTokenAddress)\r\n        Governor(\"END Governor\")\r\n        GovernorSettings(0, 3, 0)\r\n        GovernorVotes(_token)\r\n        GovernorVotesQuorumFraction(75)\r\n        GovernorTimelockControl(_timelock)\r\n    {\r\n        myToken = GovernanceToken(myTokenAddress);\r\n    }\r\n\r\n    function getMyVotesWeight(uint256 blockNumber) public view returns(uint256){\r\n        return _getVotes(msg.sender, blockNumber, \"\");\r\n    }\r\n\r\n        function _execute(uint256 proposalId, address[] memory targets, uint256[] memory values, bytes[] memory calldatas, bytes32 descriptionHash)\r\n        internal\r\n        override(Governor, GovernorTimelockControl)\r\n    {   \r\n        require(myToken.balanceOf(msg.sender) >= 10 ether, \"You don't have enough tokens\");\r\n        super._execute(proposalId, targets, values, calldatas, descriptionHash);\r\n    }\r\n\r\n\r\n\r\n    // The following functions are overrides required by Solidity.\r\n\r\n    function votingDelay()\r\n        public\r\n        view\r\n        override(IGovernor, GovernorSettings)\r\n        returns (uint256)\r\n    {\r\n        return super.votingDelay();\r\n    }\r\n\r\n    function votingPeriod()\r\n        public\r\n        view\r\n        override(IGovernor, GovernorSettings)\r\n        returns (uint256)\r\n    {\r\n        return super.votingPeriod();\r\n    }\r\n\r\n    function quorum(uint256 blockNumber)\r\n        public\r\n        view\r\n        override(IGovernor, GovernorVotesQuorumFraction)\r\n        returns (uint256)\r\n    {\r\n        return super.quorum(blockNumber);\r\n    }\r\n\r\n    function state(uint256 proposalId)\r\n        public\r\n        view\r\n        override(Governor, GovernorTimelockControl)\r\n        returns (ProposalState)\r\n    {\r\n        return super.state(proposalId);\r\n    }\r\n\r\n    function propose(address[] memory targets, uint256[] memory values, bytes[] memory calldatas, string memory description)\r\n        public\r\n        override(Governor, IGovernor)\r\n        returns (uint256)\r\n    {\r\n        return super.propose(targets, values, calldatas, description);\r\n    }\r\n\r\n    function proposalThreshold()\r\n        public\r\n        view\r\n        override(Governor, GovernorSettings)\r\n        returns (uint256)\r\n    {\r\n        return super.proposalThreshold();\r\n    }\r\n\r\n\r\n    function _cancel(address[] memory targets, uint256[] memory values, bytes[] memory calldatas, bytes32 descriptionHash)\r\n        internal\r\n        override(Governor, GovernorTimelockControl)\r\n        returns (uint256)\r\n    {\r\n        return super._cancel(targets, values, calldatas, descriptionHash);\r\n    }\r\n\r\n    function _executor()\r\n        internal\r\n        view\r\n        override(Governor, GovernorTimelockControl)\r\n        returns (address)\r\n    {\r\n        return super._executor();\r\n    }\r\n\r\n    function supportsInterface(bytes4 interfaceId)\r\n        public\r\n        view\r\n        override(Governor, GovernorTimelockControl)\r\n        returns (bool)\r\n    {\r\n        return super.supportsInterface(interfaceId);\r\n    }\r\n}",
  "sourcePath": "D:\\Documentos\\END\\curso\\Tema_6\\DAO\\contracts\\GovernorContract.sol",
  "compiler": {
    "name": "solc",
    "version": "0.8.19+commit.7dd6d404.Emscripten.clang"
  },
  "schemaVersion": "3.4.8",
  "updatedAt": "2023-04-12T11:00:18.446Z",
  "networkType": "ethereum",
  "devdoc": {
    "errors": {
      "Empty()": [
        {
          "details": "An operation (e.g. {front}) couldn't be completed due to the queue being empty."
        }
      ]
    },
    "events": {
      "ProposalCanceled(uint256)": {
        "details": "Emitted when a proposal is canceled."
      },
      "ProposalCreated(uint256,address,address[],uint256[],string[],bytes[],uint256,uint256,string)": {
        "details": "Emitted when a proposal is created."
      },
      "ProposalExecuted(uint256)": {
        "details": "Emitted when a proposal is executed."
      },
      "TimelockChange(address,address)": {
        "details": "Emitted when the timelock controller used for proposal execution is modified."
      },
      "VoteCast(address,uint256,uint8,uint256,string)": {
        "details": "Emitted when a vote is cast without params. Note: `support` values should be seen as buckets. Their interpretation depends on the voting module used."
      },
      "VoteCastWithParams(address,uint256,uint8,uint256,string,bytes)": {
        "details": "Emitted when a vote is cast with params. Note: `support` values should be seen as buckets. Their interpretation depends on the voting module used. `params` are additional encoded parameters. Their intepepretation also depends on the voting module used."
      }
    },
    "kind": "dev",
    "methods": {
      "COUNTING_MODE()": {
        "details": "See {IGovernor-COUNTING_MODE}."
      },
      "castVote(uint256,uint8)": {
        "details": "See {IGovernor-castVote}."
      },
      "castVoteBySig(uint256,uint8,uint8,bytes32,bytes32)": {
        "details": "See {IGovernor-castVoteBySig}."
      },
      "castVoteWithReason(uint256,uint8,string)": {
        "details": "See {IGovernor-castVoteWithReason}."
      },
      "castVoteWithReasonAndParams(uint256,uint8,string,bytes)": {
        "details": "See {IGovernor-castVoteWithReasonAndParams}."
      },
      "castVoteWithReasonAndParamsBySig(uint256,uint8,string,bytes,uint8,bytes32,bytes32)": {
        "details": "See {IGovernor-castVoteWithReasonAndParamsBySig}."
      },
      "execute(address[],uint256[],bytes[],bytes32)": {
        "details": "See {IGovernor-execute}."
      },
      "getVotes(address,uint256)": {
        "details": "See {IGovernor-getVotes}."
      },
      "getVotesWithParams(address,uint256,bytes)": {
        "details": "See {IGovernor-getVotesWithParams}."
      },
      "hasVoted(uint256,address)": {
        "details": "See {IGovernor-hasVoted}."
      },
      "hashProposal(address[],uint256[],bytes[],bytes32)": {
        "details": "See {IGovernor-hashProposal}. The proposal id is produced by hashing the ABI encoded `targets` array, the `values` array, the `calldatas` array and the descriptionHash (bytes32 which itself is the keccak256 hash of the description string). This proposal id can be produced from the proposal data which is part of the {ProposalCreated} event. It can even be computed in advance, before the proposal is submitted. Note that the chainId and the governor address are not part of the proposal id computation. Consequently, the same proposal (with same operation and same description) will have the same id if submitted on multiple governors across multiple networks. This also means that in order to execute the same operation twice (on the same governor) the proposer will have to change the description in order to avoid proposal id conflicts."
      },
      "name()": {
        "details": "See {IGovernor-name}."
      },
      "onERC1155BatchReceived(address,address,uint256[],uint256[],bytes)": {
        "details": "See {IERC1155Receiver-onERC1155BatchReceived}."
      },
      "onERC1155Received(address,address,uint256,uint256,bytes)": {
        "details": "See {IERC1155Receiver-onERC1155Received}."
      },
      "onERC721Received(address,address,uint256,bytes)": {
        "details": "See {IERC721Receiver-onERC721Received}."
      },
      "proposalDeadline(uint256)": {
        "details": "See {IGovernor-proposalDeadline}."
      },
      "proposalEta(uint256)": {
        "details": "Public accessor to check the eta of a queued proposal"
      },
      "proposalSnapshot(uint256)": {
        "details": "See {IGovernor-proposalSnapshot}."
      },
      "proposalVotes(uint256)": {
        "details": "Accessor to the internal vote counts."
      },
      "queue(address[],uint256[],bytes[],bytes32)": {
        "details": "Function to queue a proposal to the timelock."
      },
      "quorumDenominator()": {
        "details": "Returns the quorum denominator. Defaults to 100, but may be overridden."
      },
      "quorumNumerator()": {
        "details": "Returns the current quorum numerator. See {quorumDenominator}."
      },
      "quorumNumerator(uint256)": {
        "details": "Returns the quorum numerator at a specific block number. See {quorumDenominator}."
      },
      "relay(address,uint256,bytes)": {
        "details": "Relays a transaction or function call to an arbitrary target. In cases where the governance executor is some contract other than the governor itself, like when using a timelock, this function can be invoked in a governance proposal to recover tokens or Ether that was sent to the governor contract by mistake. Note that if the executor is simply the governor itself, use of `relay` is redundant."
      },
      "setProposalThreshold(uint256)": {
        "details": "Update the proposal threshold. This operation can only be performed through a governance proposal. Emits a {ProposalThresholdSet} event."
      },
      "setVotingDelay(uint256)": {
        "details": "Update the voting delay. This operation can only be performed through a governance proposal. Emits a {VotingDelaySet} event."
      },
      "setVotingPeriod(uint256)": {
        "details": "Update the voting period. This operation can only be performed through a governance proposal. Emits a {VotingPeriodSet} event."
      },
      "timelock()": {
        "details": "Public accessor to check the address of the timelock"
      },
      "updateQuorumNumerator(uint256)": {
        "details": "Changes the quorum numerator. Emits a {QuorumNumeratorUpdated} event. Requirements: - Must be called through a governance proposal. - New numerator must be smaller or equal to the denominator."
      },
      "updateTimelock(address)": {
        "details": "Public endpoint to update the underlying timelock instance. Restricted to the timelock itself, so updates must be proposed, scheduled, and executed through governance proposals. CAUTION: It is not recommended to change the timelock while there are other queued governance proposals."
      },
      "version()": {
        "details": "See {IGovernor-version}."
      }
    },
    "version": 1
  },
  "userdoc": {
    "kind": "user",
    "methods": {},
    "version": 1
  }
}