{
  "contractName": "MyToken",
  "abi": [
    {
      "inputs": [],
      "stateMutability": "nonpayable",
      "type": "constructor"
    },
    {
      "anonymous": false,
      "inputs": [
        {
          "indexed": true,
          "internalType": "address",
          "name": "owner",
          "type": "address"
        },
        {
          "indexed": true,
          "internalType": "address",
          "name": "spender",
          "type": "address"
        },
        {
          "indexed": false,
          "internalType": "uint256",
          "name": "value",
          "type": "uint256"
        }
      ],
      "name": "Approval",
      "type": "event"
    },
    {
      "anonymous": false,
      "inputs": [
        {
          "indexed": true,
          "internalType": "address",
          "name": "from",
          "type": "address"
        },
        {
          "indexed": true,
          "internalType": "address",
          "name": "to",
          "type": "address"
        },
        {
          "indexed": false,
          "internalType": "uint256",
          "name": "value",
          "type": "uint256"
        }
      ],
      "name": "Transfer",
      "type": "event"
    },
    {
      "inputs": [
        {
          "internalType": "address",
          "name": "owner",
          "type": "address"
        },
        {
          "internalType": "address",
          "name": "spender",
          "type": "address"
        }
      ],
      "name": "allowance",
      "outputs": [
        {
          "internalType": "uint256",
          "name": "",
          "type": "uint256"
        }
      ],
      "stateMutability": "view",
      "type": "function",
      "constant": true
    },
    {
      "inputs": [
        {
          "internalType": "address",
          "name": "spender",
          "type": "address"
        },
        {
          "internalType": "uint256",
          "name": "amount",
          "type": "uint256"
        }
      ],
      "name": "approve",
      "outputs": [
        {
          "internalType": "bool",
          "name": "",
          "type": "bool"
        }
      ],
      "stateMutability": "nonpayable",
      "type": "function"
    },
    {
      "inputs": [
        {
          "internalType": "address",
          "name": "account",
          "type": "address"
        }
      ],
      "name": "balanceOf",
      "outputs": [
        {
          "internalType": "uint256",
          "name": "",
          "type": "uint256"
        }
      ],
      "stateMutability": "view",
      "type": "function",
      "constant": true
    },
    {
      "inputs": [],
      "name": "decimals",
      "outputs": [
        {
          "internalType": "uint8",
          "name": "",
          "type": "uint8"
        }
      ],
      "stateMutability": "view",
      "type": "function",
      "constant": true
    },
    {
      "inputs": [
        {
          "internalType": "address",
          "name": "spender",
          "type": "address"
        },
        {
          "internalType": "uint256",
          "name": "subtractedValue",
          "type": "uint256"
        }
      ],
      "name": "decreaseAllowance",
      "outputs": [
        {
          "internalType": "bool",
          "name": "",
          "type": "bool"
        }
      ],
      "stateMutability": "nonpayable",
      "type": "function"
    },
    {
      "inputs": [
        {
          "internalType": "address",
          "name": "spender",
          "type": "address"
        },
        {
          "internalType": "uint256",
          "name": "addedValue",
          "type": "uint256"
        }
      ],
      "name": "increaseAllowance",
      "outputs": [
        {
          "internalType": "bool",
          "name": "",
          "type": "bool"
        }
      ],
      "stateMutability": "nonpayable",
      "type": "function"
    },
    {
      "inputs": [],
      "name": "name",
      "outputs": [
        {
          "internalType": "string",
          "name": "",
          "type": "string"
        }
      ],
      "stateMutability": "view",
      "type": "function",
      "constant": true
    },
    {
      "inputs": [],
      "name": "symbol",
      "outputs": [
        {
          "internalType": "string",
          "name": "",
          "type": "string"
        }
      ],
      "stateMutability": "view",
      "type": "function",
      "constant": true
    },
    {
      "inputs": [],
      "name": "totalSupply",
      "outputs": [
        {
          "internalType": "uint256",
          "name": "",
          "type": "uint256"
        }
      ],
      "stateMutability": "view",
      "type": "function",
      "constant": true
    },
    {
      "inputs": [
        {
          "internalType": "address",
          "name": "to",
          "type": "address"
        },
        {
          "internalType": "uint256",
          "name": "amount",
          "type": "uint256"
        }
      ],
      "name": "transfer",
      "outputs": [
        {
          "internalType": "bool",
          "name": "",
          "type": "bool"
        }
      ],
      "stateMutability": "nonpayable",
      "type": "function"
    },
    {
      "inputs": [
        {
          "internalType": "address",
          "name": "from",
          "type": "address"
        },
        {
          "internalType": "address",
          "name": "to",
          "type": "address"
        },
        {
          "internalType": "uint256",
          "name": "amount",
          "type": "uint256"
        }
      ],
      "name": "transferFrom",
      "outputs": [
        {
          "internalType": "bool",
          "name": "",
          "type": "bool"
        }
      ],
      "stateMutability": "nonpayable",
      "type": "function"
    },
    {
      "inputs": [
        {
          "internalType": "address",
          "name": "receiver",
          "type": "address"
        },
        {
          "internalType": "uint256",
          "name": "amount",
          "type": "uint256"
        }
      ],
      "name": "mint",
      "outputs": [],
      "stateMutability": "nonpayable",
      "type": "function"
    },
    {
      "inputs": [
        {
          "internalType": "uint256",
          "name": "amount",
          "type": "uint256"
        }
      ],
      "name": "buyTokens",
      "outputs": [],
      "stateMutability": "payable",
      "type": "function",
      "payable": true
    },
    {
      "inputs": [
        {
          "internalType": "address",
          "name": "from",
          "type": "address"
        },
        {
          "internalType": "address",
          "name": "receiver",
          "type": "address"
        },
        {
          "internalType": "uint256",
          "name": "amount",
          "type": "uint256"
        }
      ],
      "name": "sendTokens",
      "outputs": [],
      "stateMutability": "nonpayable",
      "type": "function"
    },
    {
      "inputs": [
        {
          "internalType": "address",
          "name": "newAddress",
          "type": "address"
        }
      ],
      "name": "setGladiatorAddress",
      "outputs": [
        {
          "internalType": "address",
          "name": "",
          "type": "address"
        }
      ],
      "stateMutability": "nonpayable",
      "type": "function"
    },
    {
      "inputs": [],
      "name": "getGladiatorAddress",
      "outputs": [
        {
          "internalType": "address",
          "name": "",
          "type": "address"
        }
      ],
      "stateMutability": "view",
      "type": "function",
      "constant": true
    }
  ],
  "bytecode": "0x6080604052662386f26fc100006007553480156200001c57600080fd5b506040518060400160405280600781526020016636bcaa37b5b2b760c91b815250604051806040016040528060038152602001624d544b60e81b81525081600390816200006a919062000219565b50600462000079828262000219565b5050600580546001600160a01b0319163317905550620000a43069d3c21bcecceda1000000620000aa565b6200030d565b6001600160a01b038216620001055760405162461bcd60e51b815260206004820152601f60248201527f45524332303a206d696e7420746f20746865207a65726f206164647265737300604482015260640160405180910390fd5b8060026000828254620001199190620002e5565b90915550506001600160a01b038216600081815260208181526040808320805486019055518481527fddf252ad1be2c89b69c2b068fc378daa952ba7f163c4a11628f55a4df523b3ef910160405180910390a35050565b505050565b634e487b7160e01b600052604160045260246000fd5b600181811c90821680620001a057607f821691505b602082108103620001c157634e487b7160e01b600052602260045260246000fd5b50919050565b601f8211156200017057600081815260208120601f850160051c81016020861015620001f05750805b601f850160051c820191505b818110156200021157828155600101620001fc565b505050505050565b81516001600160401b0381111562000235576200023562000175565b6200024d816200024684546200018b565b84620001c7565b602080601f8311600181146200028557600084156200026c5750858301515b600019600386901b1c1916600185901b17855562000211565b600085815260208120601f198616915b82811015620002b65788860151825594840194600190910190840162000295565b5085821015620002d55787850151600019600388901b60f8161c191681555b5050505050600190811b01905550565b808201808211156200030757634e487b7160e01b600052601160045260246000fd5b92915050565b610dcf806200031d6000396000f3fe6080604052600436106100f35760003560e01c806340c10f191161008a578063a9059cbb11610059578063a9059cbb146102a0578063ce50b847146102c0578063dd62ed3e146102e0578063e6d66ac81461030057600080fd5b806340c10f191461021557806370a082311461023557806395d89b411461026b578063a457c2d71461028057600080fd5b8063273470e5116100c6578063273470e514610192578063313ce567146101c45780633610724e146101e057806339509351146101f557600080fd5b806306fdde03146100f8578063095ea7b31461012357806318160ddd1461015357806323b872dd14610172575b600080fd5b34801561010457600080fd5b5061010d610320565b60405161011a9190610bc4565b60405180910390f35b34801561012f57600080fd5b5061014361013e366004610c29565b6103b2565b604051901515815260200161011a565b34801561015f57600080fd5b506002545b60405190815260200161011a565b34801561017e57600080fd5b5061014361018d366004610c53565b6103cc565b34801561019e57600080fd5b506006546001600160a01b03165b6040516001600160a01b03909116815260200161011a565b3480156101d057600080fd5b506040516012815260200161011a565b6101f36101ee366004610c8f565b6103f0565b005b34801561020157600080fd5b50610143610210366004610c29565b610573565b34801561022157600080fd5b506101f3610230366004610c29565b610595565b34801561024157600080fd5b50610164610250366004610ca8565b6001600160a01b031660009081526020819052604090205490565b34801561027757600080fd5b5061010d610601565b34801561028c57600080fd5b5061014361029b366004610c29565b610610565b3480156102ac57600080fd5b506101436102bb366004610c29565b61068b565b3480156102cc57600080fd5b506101ac6102db366004610ca8565b610699565b3480156102ec57600080fd5b506101646102fb366004610cca565b61071f565b34801561030c57600080fd5b506101f361031b366004610c53565b61074a565b60606003805461032f90610cfd565b80601f016020809104026020016040519081016040528092919081815260200182805461035b90610cfd565b80156103a85780601f1061037d576101008083540402835291602001916103a8565b820191906000526020600020905b81548152906001019060200180831161038b57829003601f168201915b5050505050905090565b6000336103c08185856107c3565b60019150505b92915050565b6000336103da8582856108e7565b6103e5858585610961565b506001949350505050565b3060009081526020819052604090205481111561045e5760405162461bcd60e51b815260206004820152602160248201527f416d6f756e74206578636565647320636f6e747261637427732062616c616e636044820152606560f81b60648201526084015b60405180910390fd5b600754600090610476670de0b6b3a764000084610d4d565b6104809190610d6f565b90508034146104c85760405162461bcd60e51b8152602060048201526014602482015273141c9a5e99481a5cc81b9bdd0818dbdc9c9958dd60621b6044820152606401610455565b6005546040516000916001600160a01b03169034908381818185875af1925050503d8060008114610515576040519150601f19603f3d011682016040523d82523d6000602084013e61051a565b606091505b50509050806105635760405162461bcd60e51b815260206004820152601560248201527414185e5b595b9d081b9bdd0818dbdb5c1b195d1959605a1b6044820152606401610455565b61056e303385610961565b505050565b6000336103c0818585610586838361071f565b6105909190610d86565b6107c3565b6005546001600160a01b03163314806105b857506006546001600160a01b031633145b6105f35760405162461bcd60e51b815260206004820152600c60248201526b155b985d5d1a1bdc9a5e995960a21b6044820152606401610455565b6105fd8282610b05565b5050565b60606004805461032f90610cfd565b6000338161061e828661071f565b90508381101561067e5760405162461bcd60e51b815260206004820152602560248201527f45524332303a2064656372656173656420616c6c6f77616e63652062656c6f77604482015264207a65726f60d81b6064820152608401610455565b6103e582868684036107c3565b6000336103c0818585610961565b6005546000906001600160a01b03163314806106bf57506006546001600160a01b031633145b6106fa5760405162461bcd60e51b815260206004820152600c60248201526b155b985d5d1a1bdc9a5e995960a21b6044820152606401610455565b50600680546001600160a01b0319166001600160a01b0383169081179091555b919050565b6001600160a01b03918216600090815260016020908152604080832093909416825291909152205490565b8061076a846001600160a01b031660009081526020819052604090205490565b10156107b85760405162461bcd60e51b815260206004820152601f60248201527f416d6f756e7420657863656564732073656e64657227732062616c616e6365006044820152606401610455565b61056e838383610961565b6001600160a01b0383166108255760405162461bcd60e51b8152602060048201526024808201527f45524332303a20617070726f76652066726f6d20746865207a65726f206164646044820152637265737360e01b6064820152608401610455565b6001600160a01b0382166108865760405162461bcd60e51b815260206004820152602260248201527f45524332303a20617070726f766520746f20746865207a65726f206164647265604482015261737360f01b6064820152608401610455565b6001600160a01b0383811660008181526001602090815260408083209487168084529482529182902085905590518481527f8c5be1e5ebec7d5bd14f71427d1e84f3dd0314c0f7b2291e5b200ac8c7c3b925910160405180910390a3505050565b60006108f3848461071f565b9050600019811461095b578181101561094e5760405162461bcd60e51b815260206004820152601d60248201527f45524332303a20696e73756666696369656e7420616c6c6f77616e63650000006044820152606401610455565b61095b84848484036107c3565b50505050565b6001600160a01b0383166109c55760405162461bcd60e51b815260206004820152602560248201527f45524332303a207472616e736665722066726f6d20746865207a65726f206164604482015264647265737360d81b6064820152608401610455565b6001600160a01b038216610a275760405162461bcd60e51b815260206004820152602360248201527f45524332303a207472616e7366657220746f20746865207a65726f206164647260448201526265737360e81b6064820152608401610455565b6001600160a01b03831660009081526020819052604090205481811015610a9f5760405162461bcd60e51b815260206004820152602660248201527f45524332303a207472616e7366657220616d6f756e7420657863656564732062604482015265616c616e636560d01b6064820152608401610455565b6001600160a01b03848116600081815260208181526040808320878703905593871680835291849020805487019055925185815290927fddf252ad1be2c89b69c2b068fc378daa952ba7f163c4a11628f55a4df523b3ef910160405180910390a361095b565b6001600160a01b038216610b5b5760405162461bcd60e51b815260206004820152601f60248201527f45524332303a206d696e7420746f20746865207a65726f2061646472657373006044820152606401610455565b8060026000828254610b6d9190610d86565b90915550506001600160a01b038216600081815260208181526040808320805486019055518481527fddf252ad1be2c89b69c2b068fc378daa952ba7f163c4a11628f55a4df523b3ef910160405180910390a35050565b600060208083528351808285015260005b81811015610bf157858101830151858201604001528201610bd5565b506000604082860101526040601f19601f8301168501019250505092915050565b80356001600160a01b038116811461071a57600080fd5b60008060408385031215610c3c57600080fd5b610c4583610c12565b946020939093013593505050565b600080600060608486031215610c6857600080fd5b610c7184610c12565b9250610c7f60208501610c12565b9150604084013590509250925092565b600060208284031215610ca157600080fd5b5035919050565b600060208284031215610cba57600080fd5b610cc382610c12565b9392505050565b60008060408385031215610cdd57600080fd5b610ce683610c12565b9150610cf460208401610c12565b90509250929050565b600181811c90821680610d1157607f821691505b602082108103610d3157634e487b7160e01b600052602260045260246000fd5b50919050565b634e487b7160e01b600052601160045260246000fd5b600082610d6a57634e487b7160e01b600052601260045260246000fd5b500490565b80820281158282048414176103c6576103c6610d37565b808201808211156103c6576103c6610d3756fea26469706673582212206834f958cc49abe829e70adf99b0a63f8852fadbec17518fe98d5c365c1c581d64736f6c63430008130033",
  "immutableReferences": {},
  "source": "//SPDX-License-Identifier: UNLICENSED\r\n\r\npragma solidity  ^0.8.17;\r\n\r\nimport \"../node_modules/@openzeppelin/contracts/token/ERC20/ERC20.sol\";\r\n\r\ncontract MyToken is ERC20 {\r\n\r\n    address private owner;\r\n    address private gladiatorAddress;\r\n    uint256 private tokenPrize = 0.01 ether;\r\n\r\n    modifier onlyAuthorizedAccounts()  {\r\n        require(msg.sender == owner || msg.sender == gladiatorAddress, \"Unauthorized\");\r\n        _;\r\n    }\r\n\r\n    constructor() ERC20(\"myToken\", \"MTK\"){\r\n        owner = msg.sender;\r\n        _mint(address(this), 1000000 * 10 ** 18);\r\n    }\r\n\r\n    function mint(address receiver, uint256 amount) external onlyAuthorizedAccounts{\r\n        _mint(receiver, amount);\r\n    }\r\n\r\n    //buy token\r\n    function buyTokens(uint256 amount) external payable { //Payable permite que una funcin o una address reciba ether en el propio contrato.\r\n                                                          //La funcin recibe ether del msg.sender para pagar los tokens, y el owner recibe dicho ether\r\n        require(balanceOf(address(this)) >= amount, \"Amount exceeds contract's balance\");\r\n        uint256 totalToPay = (amount / 1 ether) * tokenPrize;\r\n        require(msg.value == totalToPay, \"Prize is not correct\");\r\n        (bool sent, ) = payable(owner).call{value: msg.value}(\"\"); //call es una funcin de bajo nivel que se usa para interactuar con otros contratos. \r\n                                                                    //Puede ser insegura por lo que hay que hacer un uso muy controlado de ella.\r\n                                                                    //Existen otras formas de mandar ether a contratos que seran send y trnasfer, pero \r\n                                                                    //no se recomiendan.\r\n        require(sent, \"Payment not completed\");\r\n        _transfer(address(this), msg.sender, amount);\r\n    }\r\n\r\n    //Send token to other accounts (send totken to friends, reward when player wins a fight)\r\n    function sendTokens(address from, address receiver, uint256 amount) external {\r\n        require(balanceOf(from) >= amount, \"Amount exceeds sender's balance\");\r\n        _transfer(from, receiver, amount);\r\n    }\r\n\r\n    function setGladiatorAddress(address newAddress) external onlyAuthorizedAccounts returns(address) {\r\n        gladiatorAddress = newAddress;\r\n        //Event\r\n        return gladiatorAddress;\r\n    }\r\n\r\n    function getGladiatorAddress() external view returns(address){\r\n        return gladiatorAddress;\r\n    }\r\n\r\n}",
  "sourcePath": "D:\\Documentos\\END\\curso\\Tema_6\\DAO\\contracts\\myToken.sol",
  "compiler": {
    "name": "solc",
    "version": "0.8.19+commit.7dd6d404.Emscripten.clang"
  },
  "schemaVersion": "3.4.8",
  "updatedAt": "2023-04-12T11:00:24.860Z",
  "networkType": "ethereum",
  "devdoc": {
    "events": {
      "Approval(address,address,uint256)": {
        "details": "Emitted when the allowance of a `spender` for an `owner` is set by a call to {approve}. `value` is the new allowance."
      },
      "Transfer(address,address,uint256)": {
        "details": "Emitted when `value` tokens are moved from one account (`from`) to another (`to`). Note that `value` may be zero."
      }
    },
    "kind": "dev",
    "methods": {
      "allowance(address,address)": {
        "details": "See {IERC20-allowance}."
      },
      "approve(address,uint256)": {
        "details": "See {IERC20-approve}. NOTE: If `amount` is the maximum `uint256`, the allowance is not updated on `transferFrom`. This is semantically equivalent to an infinite approval. Requirements: - `spender` cannot be the zero address."
      },
      "balanceOf(address)": {
        "details": "See {IERC20-balanceOf}."
      },
      "decimals()": {
        "details": "Returns the number of decimals used to get its user representation. For example, if `decimals` equals `2`, a balance of `505` tokens should be displayed to a user as `5.05` (`505 / 10 ** 2`). Tokens usually opt for a value of 18, imitating the relationship between Ether and Wei. This is the value {ERC20} uses, unless this function is overridden; NOTE: This information is only used for _display_ purposes: it in no way affects any of the arithmetic of the contract, including {IERC20-balanceOf} and {IERC20-transfer}."
      },
      "decreaseAllowance(address,uint256)": {
        "details": "Atomically decreases the allowance granted to `spender` by the caller. This is an alternative to {approve} that can be used as a mitigation for problems described in {IERC20-approve}. Emits an {Approval} event indicating the updated allowance. Requirements: - `spender` cannot be the zero address. - `spender` must have allowance for the caller of at least `subtractedValue`."
      },
      "increaseAllowance(address,uint256)": {
        "details": "Atomically increases the allowance granted to `spender` by the caller. This is an alternative to {approve} that can be used as a mitigation for problems described in {IERC20-approve}. Emits an {Approval} event indicating the updated allowance. Requirements: - `spender` cannot be the zero address."
      },
      "name()": {
        "details": "Returns the name of the token."
      },
      "symbol()": {
        "details": "Returns the symbol of the token, usually a shorter version of the name."
      },
      "totalSupply()": {
        "details": "See {IERC20-totalSupply}."
      },
      "transfer(address,uint256)": {
        "details": "See {IERC20-transfer}. Requirements: - `to` cannot be the zero address. - the caller must have a balance of at least `amount`."
      },
      "transferFrom(address,address,uint256)": {
        "details": "See {IERC20-transferFrom}. Emits an {Approval} event indicating the updated allowance. This is not required by the EIP. See the note at the beginning of {ERC20}. NOTE: Does not update the allowance if the current allowance is the maximum `uint256`. Requirements: - `from` and `to` cannot be the zero address. - `from` must have a balance of at least `amount`. - the caller must have allowance for ``from``'s tokens of at least `amount`."
      }
    },
    "version": 1
  },
  "userdoc": {
    "kind": "user",
    "methods": {},
    "version": 1
  }
}